{
	"wtfSolidity/101/101_9/const.sol": {
		"Const": {
			"abi": [
				{
					"inputs": [],
					"stateMutability": "nonpayable",
					"type": "constructor"
				},
				{
					"inputs": [],
					"name": "IMMUTABLE_ADDRESS",
					"outputs": [
						{
							"internalType": "address",
							"name": "",
							"type": "address"
						}
					],
					"stateMutability": "view",
					"type": "function"
				},
				{
					"inputs": [],
					"name": "IMMUTABLE_BLOCK",
					"outputs": [
						{
							"internalType": "uint256",
							"name": "",
							"type": "uint256"
						}
					],
					"stateMutability": "view",
					"type": "function"
				},
				{
					"inputs": [],
					"name": "IMMUTABLE_NUM",
					"outputs": [
						{
							"internalType": "uint256",
							"name": "",
							"type": "uint256"
						}
					],
					"stateMutability": "view",
					"type": "function"
				},
				{
					"inputs": [],
					"name": "IMMUTABLE_TEST",
					"outputs": [
						{
							"internalType": "uint256",
							"name": "",
							"type": "uint256"
						}
					],
					"stateMutability": "view",
					"type": "function"
				},
				{
					"inputs": [
						{
							"internalType": "uint256",
							"name": "v",
							"type": "uint256"
						}
					],
					"name": "changeNum",
					"outputs": [
						{
							"internalType": "uint256",
							"name": "",
							"type": "uint256"
						}
					],
					"stateMutability": "nonpayable",
					"type": "function"
				},
				{
					"inputs": [],
					"name": "test",
					"outputs": [
						{
							"internalType": "uint256",
							"name": "",
							"type": "uint256"
						}
					],
					"stateMutability": "pure",
					"type": "function"
				}
			],
			"devdoc": {
				"kind": "dev",
				"methods": {},
				"version": 1
			},
			"evm": {
				"assembly": "    /* \"wtfSolidity/101/101_9/const.sol\":60:1070  contract Const{... */\n  mstore(0x40, 0x0100)\n    /* \"wtfSolidity/101/101_9/const.sol\":418:428  9999999999 */\n  0x02540be3ff\n    /* \"wtfSolidity/101/101_9/const.sol\":377:428  uint256 public immutable IMMUTABLE_NUM = 9999999999 */\n  0x80\n  swap1\n  dup2\n  mstore\n  pop\n    /* \"wtfSolidity/101/101_9/const.sol\":650:790  constructor(){... */\n  callvalue\n  dup1\n  iszero\n  tag_1\n  jumpi\n  0x00\n  dup1\n  revert\ntag_1:\n  pop\n    /* \"wtfSolidity/101/101_9/const.sol\":702:706  this */\n  address\n    /* \"wtfSolidity/101/101_9/const.sol\":674:707  IMMUTABLE_ADDRESS = address(this) */\n  0xffffffffffffffffffffffffffffffffffffffff\n  and\n  0xa0\n  dup2\n  0xffffffffffffffffffffffffffffffffffffffff\n  and\n  dup2\n  mstore\n  pop\n  pop\n    /* \"wtfSolidity/101/101_9/const.sol\":736:748  block.number */\n  number\n    /* \"wtfSolidity/101/101_9/const.sol\":718:748  IMMUTABLE_BLOCK = block.number */\n  0xc0\n  dup2\n  dup2\n  mstore\n  pop\n  pop\n    /* \"wtfSolidity/101/101_9/const.sol\":776:782  test() */\n  tag_4\n    /* \"wtfSolidity/101/101_9/const.sol\":776:780  test */\n  shl(0x20, tag_5)\n    /* \"wtfSolidity/101/101_9/const.sol\":776:782  test() */\n  0x20\n  shr\n  jump\t// in\ntag_4:\n    /* \"wtfSolidity/101/101_9/const.sol\":759:782  IMMUTABLE_TEST = test() */\n  0xe0\n  dup2\n  dup2\n  mstore\n  pop\n  pop\n    /* \"wtfSolidity/101/101_9/const.sol\":60:1070  contract Const{... */\n  jump(tag_6)\n    /* \"wtfSolidity/101/101_9/const.sol\":798:900  function test() public pure returns(uint256){... */\ntag_5:\n    /* \"wtfSolidity/101/101_9/const.sol\":834:841  uint256 */\n  0x00\n    /* \"wtfSolidity/101/101_9/const.sol\":853:865  uint256 what */\n  dup1\n    /* \"wtfSolidity/101/101_9/const.sol\":868:869  9 */\n  0x09\n    /* \"wtfSolidity/101/101_9/const.sol\":853:869  uint256 what = 9 */\n  swap1\n  pop\n    /* \"wtfSolidity/101/101_9/const.sol\":887:891  what */\n  dup1\n    /* \"wtfSolidity/101/101_9/const.sol\":880:892  return(what) */\n  swap2\n  pop\n  pop\n    /* \"wtfSolidity/101/101_9/const.sol\":798:900  function test() public pure returns(uint256){... */\n  swap1\n  jump\t// out\n    /* \"wtfSolidity/101/101_9/const.sol\":60:1070  contract Const{... */\ntag_6:\n  mload(0x80)\n  mload(0xa0)\n  mload(0xc0)\n  mload(0xe0)\n  codecopy(0x00, dataOffset(sub_0), dataSize(sub_0))\n  0x00\n  assignImmutable(\"0xd4d1a59767271eefdc7830a772b9732a11d503531d972ab8c981a6b1c0e666e5\")\n  0x00\n  assignImmutable(\"0x731dc163f73d31d8c68f9917ce4ff967753939f70432973c04fd2c2a48148607\")\n  0x00\n  assignImmutable(\"0x8fef2229291b68be841adf029e58b87f39ba144b2d3b0af1760243d0a9bc6a1c\")\n  0x00\n  assignImmutable(\"0x277ab82e5a4641341820a4a2933a62c1de997e42e92548657ae21b3728d580fe\")\n  return(0x00, dataSize(sub_0))\nstop\n\nsub_0: assembly {\n        /* \"wtfSolidity/101/101_9/const.sol\":60:1070  contract Const{... */\n      mstore(0x40, 0x80)\n      callvalue\n      dup1\n      iszero\n      tag_1\n      jumpi\n      0x00\n      dup1\n      revert\n    tag_1:\n      pop\n      jumpi(tag_2, lt(calldatasize, 0x04))\n      shr(0xe0, calldataload(0x00))\n      dup1\n      0x1d9afdd2\n      eq\n      tag_3\n      jumpi\n      dup1\n      0x2b311337\n      eq\n      tag_4\n      jumpi\n      dup1\n      0x4064572e\n      eq\n      tag_5\n      jumpi\n      dup1\n      0xed7ff875\n      eq\n      tag_6\n      jumpi\n      dup1\n      0xf1513021\n      eq\n      tag_7\n      jumpi\n      dup1\n      0xf8a8fd6d\n      eq\n      tag_8\n      jumpi\n    tag_2:\n      0x00\n      dup1\n      revert\n        /* \"wtfSolidity/101/101_9/const.sol\":484:524  uint256 public immutable IMMUTABLE_BLOCK */\n    tag_3:\n      tag_9\n      tag_10\n      jump\t// in\n    tag_9:\n      mload(0x40)\n      tag_11\n      swap2\n      swap1\n      tag_12\n      jump\t// in\n    tag_11:\n      mload(0x40)\n      dup1\n      swap2\n      sub\n      swap1\n      return\n        /* \"wtfSolidity/101/101_9/const.sol\":908:1067  function changeNum(uint256 v) public returns(uint256) {... */\n    tag_4:\n      tag_13\n      0x04\n      dup1\n      calldatasize\n      sub\n      dup2\n      add\n      swap1\n      tag_14\n      swap2\n      swap1\n      tag_15\n      jump\t// in\n    tag_14:\n      tag_16\n      jump\t// in\n    tag_13:\n      mload(0x40)\n      tag_17\n      swap2\n      swap1\n      tag_12\n      jump\t// in\n    tag_17:\n      mload(0x40)\n      dup1\n      swap2\n      sub\n      swap1\n      return\n        /* \"wtfSolidity/101/101_9/const.sol\":531:570  uint256 public immutable IMMUTABLE_TEST */\n    tag_5:\n      tag_18\n      tag_19\n      jump\t// in\n    tag_18:\n      mload(0x40)\n      tag_20\n      swap2\n      swap1\n      tag_12\n      jump\t// in\n    tag_20:\n      mload(0x40)\n      dup1\n      swap2\n      sub\n      swap1\n      return\n        /* \"wtfSolidity/101/101_9/const.sol\":377:428  uint256 public immutable IMMUTABLE_NUM = 9999999999 */\n    tag_6:\n      tag_21\n      tag_22\n      jump\t// in\n    tag_21:\n      mload(0x40)\n      tag_23\n      swap2\n      swap1\n      tag_12\n      jump\t// in\n    tag_23:\n      mload(0x40)\n      dup1\n      swap2\n      sub\n      swap1\n      return\n        /* \"wtfSolidity/101/101_9/const.sol\":435:477  address public immutable IMMUTABLE_ADDRESS */\n    tag_7:\n      tag_24\n      tag_25\n      jump\t// in\n    tag_24:\n      mload(0x40)\n      tag_26\n      swap2\n      swap1\n      tag_27\n      jump\t// in\n    tag_26:\n      mload(0x40)\n      dup1\n      swap2\n      sub\n      swap1\n      return\n        /* \"wtfSolidity/101/101_9/const.sol\":798:900  function test() public pure returns(uint256){... */\n    tag_8:\n      tag_28\n      tag_29\n      jump\t// in\n    tag_28:\n      mload(0x40)\n      tag_30\n      swap2\n      swap1\n      tag_12\n      jump\t// in\n    tag_30:\n      mload(0x40)\n      dup1\n      swap2\n      sub\n      swap1\n      return\n        /* \"wtfSolidity/101/101_9/const.sol\":484:524  uint256 public immutable IMMUTABLE_BLOCK */\n    tag_10:\n      immutable(\"0x731dc163f73d31d8c68f9917ce4ff967753939f70432973c04fd2c2a48148607\")\n      dup2\n      jump\t// out\n        /* \"wtfSolidity/101/101_9/const.sol\":908:1067  function changeNum(uint256 v) public returns(uint256) {... */\n    tag_16:\n        /* \"wtfSolidity/101/101_9/const.sol\":953:960  uint256 */\n      0x00\n        /* \"wtfSolidity/101/101_9/const.sol\":1057:1058  v */\n      dup2\n        /* \"wtfSolidity/101/101_9/const.sol\":1050:1059  return(v) */\n      swap1\n      pop\n        /* \"wtfSolidity/101/101_9/const.sol\":908:1067  function changeNum(uint256 v) public returns(uint256) {... */\n      swap2\n      swap1\n      pop\n      jump\t// out\n        /* \"wtfSolidity/101/101_9/const.sol\":531:570  uint256 public immutable IMMUTABLE_TEST */\n    tag_19:\n      immutable(\"0xd4d1a59767271eefdc7830a772b9732a11d503531d972ab8c981a6b1c0e666e5\")\n      dup2\n      jump\t// out\n        /* \"wtfSolidity/101/101_9/const.sol\":377:428  uint256 public immutable IMMUTABLE_NUM = 9999999999 */\n    tag_22:\n      immutable(\"0x277ab82e5a4641341820a4a2933a62c1de997e42e92548657ae21b3728d580fe\")\n      dup2\n      jump\t// out\n        /* \"wtfSolidity/101/101_9/const.sol\":435:477  address public immutable IMMUTABLE_ADDRESS */\n    tag_25:\n      immutable(\"0x8fef2229291b68be841adf029e58b87f39ba144b2d3b0af1760243d0a9bc6a1c\")\n      dup2\n      jump\t// out\n        /* \"wtfSolidity/101/101_9/const.sol\":798:900  function test() public pure returns(uint256){... */\n    tag_29:\n        /* \"wtfSolidity/101/101_9/const.sol\":834:841  uint256 */\n      0x00\n        /* \"wtfSolidity/101/101_9/const.sol\":853:865  uint256 what */\n      dup1\n        /* \"wtfSolidity/101/101_9/const.sol\":868:869  9 */\n      0x09\n        /* \"wtfSolidity/101/101_9/const.sol\":853:869  uint256 what = 9 */\n      swap1\n      pop\n        /* \"wtfSolidity/101/101_9/const.sol\":887:891  what */\n      dup1\n        /* \"wtfSolidity/101/101_9/const.sol\":880:892  return(what) */\n      swap2\n      pop\n      pop\n        /* \"wtfSolidity/101/101_9/const.sol\":798:900  function test() public pure returns(uint256){... */\n      swap1\n      jump\t// out\n        /* \"#utility.yul\":7:84   */\n    tag_33:\n        /* \"#utility.yul\":44:51   */\n      0x00\n        /* \"#utility.yul\":73:78   */\n      dup2\n        /* \"#utility.yul\":62:78   */\n      swap1\n      pop\n        /* \"#utility.yul\":7:84   */\n      swap2\n      swap1\n      pop\n      jump\t// out\n        /* \"#utility.yul\":90:208   */\n    tag_34:\n        /* \"#utility.yul\":177:201   */\n      tag_46\n        /* \"#utility.yul\":195:200   */\n      dup2\n        /* \"#utility.yul\":177:201   */\n      tag_33\n      jump\t// in\n    tag_46:\n        /* \"#utility.yul\":172:175   */\n      dup3\n        /* \"#utility.yul\":165:202   */\n      mstore\n        /* \"#utility.yul\":90:208   */\n      pop\n      pop\n      jump\t// out\n        /* \"#utility.yul\":214:436   */\n    tag_12:\n        /* \"#utility.yul\":307:311   */\n      0x00\n        /* \"#utility.yul\":345:347   */\n      0x20\n        /* \"#utility.yul\":334:343   */\n      dup3\n        /* \"#utility.yul\":330:348   */\n      add\n        /* \"#utility.yul\":322:348   */\n      swap1\n      pop\n        /* \"#utility.yul\":358:429   */\n      tag_48\n        /* \"#utility.yul\":426:427   */\n      0x00\n        /* \"#utility.yul\":415:424   */\n      dup4\n        /* \"#utility.yul\":411:428   */\n      add\n        /* \"#utility.yul\":402:408   */\n      dup5\n        /* \"#utility.yul\":358:429   */\n      tag_34\n      jump\t// in\n    tag_48:\n        /* \"#utility.yul\":214:436   */\n      swap3\n      swap2\n      pop\n      pop\n      jump\t// out\n        /* \"#utility.yul\":523:640   */\n    tag_36:\n        /* \"#utility.yul\":632:633   */\n      0x00\n        /* \"#utility.yul\":629:630   */\n      dup1\n        /* \"#utility.yul\":622:634   */\n      revert\n        /* \"#utility.yul\":769:891   */\n    tag_38:\n        /* \"#utility.yul\":842:866   */\n      tag_53\n        /* \"#utility.yul\":860:865   */\n      dup2\n        /* \"#utility.yul\":842:866   */\n      tag_33\n      jump\t// in\n    tag_53:\n        /* \"#utility.yul\":835:840   */\n      dup2\n        /* \"#utility.yul\":832:867   */\n      eq\n        /* \"#utility.yul\":822:885   */\n      tag_54\n      jumpi\n        /* \"#utility.yul\":881:882   */\n      0x00\n        /* \"#utility.yul\":878:879   */\n      dup1\n        /* \"#utility.yul\":871:883   */\n      revert\n        /* \"#utility.yul\":822:885   */\n    tag_54:\n        /* \"#utility.yul\":769:891   */\n      pop\n      jump\t// out\n        /* \"#utility.yul\":897:1036   */\n    tag_39:\n        /* \"#utility.yul\":943:948   */\n      0x00\n        /* \"#utility.yul\":981:987   */\n      dup2\n        /* \"#utility.yul\":968:988   */\n      calldataload\n        /* \"#utility.yul\":959:988   */\n      swap1\n      pop\n        /* \"#utility.yul\":997:1030   */\n      tag_56\n        /* \"#utility.yul\":1024:1029   */\n      dup2\n        /* \"#utility.yul\":997:1030   */\n      tag_38\n      jump\t// in\n    tag_56:\n        /* \"#utility.yul\":897:1036   */\n      swap3\n      swap2\n      pop\n      pop\n      jump\t// out\n        /* \"#utility.yul\":1042:1371   */\n    tag_15:\n        /* \"#utility.yul\":1101:1107   */\n      0x00\n        /* \"#utility.yul\":1150:1152   */\n      0x20\n        /* \"#utility.yul\":1138:1147   */\n      dup3\n        /* \"#utility.yul\":1129:1136   */\n      dup5\n        /* \"#utility.yul\":1125:1148   */\n      sub\n        /* \"#utility.yul\":1121:1153   */\n      slt\n        /* \"#utility.yul\":1118:1237   */\n      iszero\n      tag_58\n      jumpi\n        /* \"#utility.yul\":1156:1235   */\n      tag_59\n      tag_36\n      jump\t// in\n    tag_59:\n        /* \"#utility.yul\":1118:1237   */\n    tag_58:\n        /* \"#utility.yul\":1276:1277   */\n      0x00\n        /* \"#utility.yul\":1301:1354   */\n      tag_60\n        /* \"#utility.yul\":1346:1353   */\n      dup5\n        /* \"#utility.yul\":1337:1343   */\n      dup3\n        /* \"#utility.yul\":1326:1335   */\n      dup6\n        /* \"#utility.yul\":1322:1344   */\n      add\n        /* \"#utility.yul\":1301:1354   */\n      tag_39\n      jump\t// in\n    tag_60:\n        /* \"#utility.yul\":1291:1354   */\n      swap2\n      pop\n        /* \"#utility.yul\":1247:1364   */\n      pop\n        /* \"#utility.yul\":1042:1371   */\n      swap3\n      swap2\n      pop\n      pop\n      jump\t// out\n        /* \"#utility.yul\":1377:1503   */\n    tag_40:\n        /* \"#utility.yul\":1414:1421   */\n      0x00\n        /* \"#utility.yul\":1454:1496   */\n      0xffffffffffffffffffffffffffffffffffffffff\n        /* \"#utility.yul\":1447:1452   */\n      dup3\n        /* \"#utility.yul\":1443:1497   */\n      and\n        /* \"#utility.yul\":1432:1497   */\n      swap1\n      pop\n        /* \"#utility.yul\":1377:1503   */\n      swap2\n      swap1\n      pop\n      jump\t// out\n        /* \"#utility.yul\":1509:1605   */\n    tag_41:\n        /* \"#utility.yul\":1546:1553   */\n      0x00\n        /* \"#utility.yul\":1575:1599   */\n      tag_63\n        /* \"#utility.yul\":1593:1598   */\n      dup3\n        /* \"#utility.yul\":1575:1599   */\n      tag_40\n      jump\t// in\n    tag_63:\n        /* \"#utility.yul\":1564:1599   */\n      swap1\n      pop\n        /* \"#utility.yul\":1509:1605   */\n      swap2\n      swap1\n      pop\n      jump\t// out\n        /* \"#utility.yul\":1611:1729   */\n    tag_42:\n        /* \"#utility.yul\":1698:1722   */\n      tag_65\n        /* \"#utility.yul\":1716:1721   */\n      dup2\n        /* \"#utility.yul\":1698:1722   */\n      tag_41\n      jump\t// in\n    tag_65:\n        /* \"#utility.yul\":1693:1696   */\n      dup3\n        /* \"#utility.yul\":1686:1723   */\n      mstore\n        /* \"#utility.yul\":1611:1729   */\n      pop\n      pop\n      jump\t// out\n        /* \"#utility.yul\":1735:1957   */\n    tag_27:\n        /* \"#utility.yul\":1828:1832   */\n      0x00\n        /* \"#utility.yul\":1866:1868   */\n      0x20\n        /* \"#utility.yul\":1855:1864   */\n      dup3\n        /* \"#utility.yul\":1851:1869   */\n      add\n        /* \"#utility.yul\":1843:1869   */\n      swap1\n      pop\n        /* \"#utility.yul\":1879:1950   */\n      tag_67\n        /* \"#utility.yul\":1947:1948   */\n      0x00\n        /* \"#utility.yul\":1936:1945   */\n      dup4\n        /* \"#utility.yul\":1932:1949   */\n      add\n        /* \"#utility.yul\":1923:1929   */\n      dup5\n        /* \"#utility.yul\":1879:1950   */\n      tag_42\n      jump\t// in\n    tag_67:\n        /* \"#utility.yul\":1735:1957   */\n      swap3\n      swap2\n      pop\n      pop\n      jump\t// out\n\n    auxdata: 0xa2646970667358221220e60d2fc80600af56f071927fb4ae7e47311f49b427720c74670a20fea918e16264736f6c63430008190033\n}\n",
				"bytecode": {
					"linkReferences": {},
					"object": "6101006040526402540be3ff60809081525034801561001c575f80fd5b503073ffffffffffffffffffffffffffffffffffffffff1660a08173ffffffffffffffffffffffffffffffffffffffff16815250504360c0818152505061006761007360201b60201c565b60e08181525050610080565b5f80600990508091505090565b60805160a05160c05160e0516102e86100b35f395f61015901525f61012c01525f6101a101525f61017d01526102e85ff3fe608060405234801561000f575f80fd5b5060043610610060575f3560e01c80631d9afdd2146100645780632b311337146100825780634064572e146100b2578063ed7ff875146100d0578063f1513021146100ee578063f8a8fd6d1461010c575b5f80fd5b61006c61012a565b60405161007991906101e8565b60405180910390f35b61009c6004803603810190610097919061022f565b61014e565b6040516100a991906101e8565b60405180910390f35b6100ba610157565b6040516100c791906101e8565b60405180910390f35b6100d861017b565b6040516100e591906101e8565b60405180910390f35b6100f661019f565b6040516101039190610299565b60405180910390f35b6101146101c3565b60405161012191906101e8565b60405180910390f35b7f000000000000000000000000000000000000000000000000000000000000000081565b5f819050919050565b7f000000000000000000000000000000000000000000000000000000000000000081565b7f000000000000000000000000000000000000000000000000000000000000000081565b7f000000000000000000000000000000000000000000000000000000000000000081565b5f80600990508091505090565b5f819050919050565b6101e2816101d0565b82525050565b5f6020820190506101fb5f8301846101d9565b92915050565b5f80fd5b61020e816101d0565b8114610218575f80fd5b50565b5f8135905061022981610205565b92915050565b5f6020828403121561024457610243610201565b5b5f6102518482850161021b565b91505092915050565b5f73ffffffffffffffffffffffffffffffffffffffff82169050919050565b5f6102838261025a565b9050919050565b61029381610279565b82525050565b5f6020820190506102ac5f83018461028a565b9291505056fea2646970667358221220e60d2fc80600af56f071927fb4ae7e47311f49b427720c74670a20fea918e16264736f6c63430008190033",
					"opcodes": "PUSH2 0x100 PUSH1 0x40 MSTORE PUSH5 0x2540BE3FF PUSH1 0x80 SWAP1 DUP2 MSTORE POP CALLVALUE DUP1 ISZERO PUSH2 0x1C JUMPI PUSH0 DUP1 REVERT JUMPDEST POP ADDRESS PUSH20 0xFFFFFFFFFFFFFFFFFFFFFFFFFFFFFFFFFFFFFFFF AND PUSH1 0xA0 DUP2 PUSH20 0xFFFFFFFFFFFFFFFFFFFFFFFFFFFFFFFFFFFFFFFF AND DUP2 MSTORE POP POP NUMBER PUSH1 0xC0 DUP2 DUP2 MSTORE POP POP PUSH2 0x67 PUSH2 0x73 PUSH1 0x20 SHL PUSH1 0x20 SHR JUMP JUMPDEST PUSH1 0xE0 DUP2 DUP2 MSTORE POP POP PUSH2 0x80 JUMP JUMPDEST PUSH0 DUP1 PUSH1 0x9 SWAP1 POP DUP1 SWAP2 POP POP SWAP1 JUMP JUMPDEST PUSH1 0x80 MLOAD PUSH1 0xA0 MLOAD PUSH1 0xC0 MLOAD PUSH1 0xE0 MLOAD PUSH2 0x2E8 PUSH2 0xB3 PUSH0 CODECOPY PUSH0 PUSH2 0x159 ADD MSTORE PUSH0 PUSH2 0x12C ADD MSTORE PUSH0 PUSH2 0x1A1 ADD MSTORE PUSH0 PUSH2 0x17D ADD MSTORE PUSH2 0x2E8 PUSH0 RETURN INVALID PUSH1 0x80 PUSH1 0x40 MSTORE CALLVALUE DUP1 ISZERO PUSH2 0xF JUMPI PUSH0 DUP1 REVERT JUMPDEST POP PUSH1 0x4 CALLDATASIZE LT PUSH2 0x60 JUMPI PUSH0 CALLDATALOAD PUSH1 0xE0 SHR DUP1 PUSH4 0x1D9AFDD2 EQ PUSH2 0x64 JUMPI DUP1 PUSH4 0x2B311337 EQ PUSH2 0x82 JUMPI DUP1 PUSH4 0x4064572E EQ PUSH2 0xB2 JUMPI DUP1 PUSH4 0xED7FF875 EQ PUSH2 0xD0 JUMPI DUP1 PUSH4 0xF1513021 EQ PUSH2 0xEE JUMPI DUP1 PUSH4 0xF8A8FD6D EQ PUSH2 0x10C JUMPI JUMPDEST PUSH0 DUP1 REVERT JUMPDEST PUSH2 0x6C PUSH2 0x12A JUMP JUMPDEST PUSH1 0x40 MLOAD PUSH2 0x79 SWAP2 SWAP1 PUSH2 0x1E8 JUMP JUMPDEST PUSH1 0x40 MLOAD DUP1 SWAP2 SUB SWAP1 RETURN JUMPDEST PUSH2 0x9C PUSH1 0x4 DUP1 CALLDATASIZE SUB DUP2 ADD SWAP1 PUSH2 0x97 SWAP2 SWAP1 PUSH2 0x22F JUMP JUMPDEST PUSH2 0x14E JUMP JUMPDEST PUSH1 0x40 MLOAD PUSH2 0xA9 SWAP2 SWAP1 PUSH2 0x1E8 JUMP JUMPDEST PUSH1 0x40 MLOAD DUP1 SWAP2 SUB SWAP1 RETURN JUMPDEST PUSH2 0xBA PUSH2 0x157 JUMP JUMPDEST PUSH1 0x40 MLOAD PUSH2 0xC7 SWAP2 SWAP1 PUSH2 0x1E8 JUMP JUMPDEST PUSH1 0x40 MLOAD DUP1 SWAP2 SUB SWAP1 RETURN JUMPDEST PUSH2 0xD8 PUSH2 0x17B JUMP JUMPDEST PUSH1 0x40 MLOAD PUSH2 0xE5 SWAP2 SWAP1 PUSH2 0x1E8 JUMP JUMPDEST PUSH1 0x40 MLOAD DUP1 SWAP2 SUB SWAP1 RETURN JUMPDEST PUSH2 0xF6 PUSH2 0x19F JUMP JUMPDEST PUSH1 0x40 MLOAD PUSH2 0x103 SWAP2 SWAP1 PUSH2 0x299 JUMP JUMPDEST PUSH1 0x40 MLOAD DUP1 SWAP2 SUB SWAP1 RETURN JUMPDEST PUSH2 0x114 PUSH2 0x1C3 JUMP JUMPDEST PUSH1 0x40 MLOAD PUSH2 0x121 SWAP2 SWAP1 PUSH2 0x1E8 JUMP JUMPDEST PUSH1 0x40 MLOAD DUP1 SWAP2 SUB SWAP1 RETURN JUMPDEST PUSH32 0x0 DUP2 JUMP JUMPDEST PUSH0 DUP2 SWAP1 POP SWAP2 SWAP1 POP JUMP JUMPDEST PUSH32 0x0 DUP2 JUMP JUMPDEST PUSH32 0x0 DUP2 JUMP JUMPDEST PUSH32 0x0 DUP2 JUMP JUMPDEST PUSH0 DUP1 PUSH1 0x9 SWAP1 POP DUP1 SWAP2 POP POP SWAP1 JUMP JUMPDEST PUSH0 DUP2 SWAP1 POP SWAP2 SWAP1 POP JUMP JUMPDEST PUSH2 0x1E2 DUP2 PUSH2 0x1D0 JUMP JUMPDEST DUP3 MSTORE POP POP JUMP JUMPDEST PUSH0 PUSH1 0x20 DUP3 ADD SWAP1 POP PUSH2 0x1FB PUSH0 DUP4 ADD DUP5 PUSH2 0x1D9 JUMP JUMPDEST SWAP3 SWAP2 POP POP JUMP JUMPDEST PUSH0 DUP1 REVERT JUMPDEST PUSH2 0x20E DUP2 PUSH2 0x1D0 JUMP JUMPDEST DUP2 EQ PUSH2 0x218 JUMPI PUSH0 DUP1 REVERT JUMPDEST POP JUMP JUMPDEST PUSH0 DUP2 CALLDATALOAD SWAP1 POP PUSH2 0x229 DUP2 PUSH2 0x205 JUMP JUMPDEST SWAP3 SWAP2 POP POP JUMP JUMPDEST PUSH0 PUSH1 0x20 DUP3 DUP5 SUB SLT ISZERO PUSH2 0x244 JUMPI PUSH2 0x243 PUSH2 0x201 JUMP JUMPDEST JUMPDEST PUSH0 PUSH2 0x251 DUP5 DUP3 DUP6 ADD PUSH2 0x21B JUMP JUMPDEST SWAP2 POP POP SWAP3 SWAP2 POP POP JUMP JUMPDEST PUSH0 PUSH20 0xFFFFFFFFFFFFFFFFFFFFFFFFFFFFFFFFFFFFFFFF DUP3 AND SWAP1 POP SWAP2 SWAP1 POP JUMP JUMPDEST PUSH0 PUSH2 0x283 DUP3 PUSH2 0x25A JUMP JUMPDEST SWAP1 POP SWAP2 SWAP1 POP JUMP JUMPDEST PUSH2 0x293 DUP2 PUSH2 0x279 JUMP JUMPDEST DUP3 MSTORE POP POP JUMP JUMPDEST PUSH0 PUSH1 0x20 DUP3 ADD SWAP1 POP PUSH2 0x2AC PUSH0 DUP4 ADD DUP5 PUSH2 0x28A JUMP JUMPDEST SWAP3 SWAP2 POP POP JUMP INVALID LOG2 PUSH5 0x6970667358 0x22 SLT KECCAK256 0xE6 0xD 0x2F 0xC8 MOD STOP 0xAF JUMP CREATE PUSH18 0x927FB4AE7E47311F49B427720C74670A20FE 0xA9 XOR 0xE1 PUSH3 0x64736F PUSH13 0x63430008190033000000000000 "
				},
				"gasEstimates": {
					"creation": {
						"codeDepositCost": "148800",
						"executionCost": "infinite",
						"totalCost": "infinite"
					},
					"external": {
						"IMMUTABLE_ADDRESS()": "infinite",
						"IMMUTABLE_BLOCK()": "infinite",
						"IMMUTABLE_NUM()": "infinite",
						"IMMUTABLE_TEST()": "infinite",
						"changeNum(uint256)": "infinite",
						"test()": "433"
					}
				},
				"methodIdentifiers": {
					"IMMUTABLE_ADDRESS()": "f1513021",
					"IMMUTABLE_BLOCK()": "1d9afdd2",
					"IMMUTABLE_NUM()": "ed7ff875",
					"IMMUTABLE_TEST()": "4064572e",
					"changeNum(uint256)": "2b311337",
					"test()": "f8a8fd6d"
				}
			},
			"storageLayout": {
				"storage": [],
				"types": null
			},
			"userdoc": {
				"kind": "user",
				"methods": {},
				"version": 1
			}
		}
	}
}