{
	"wtfSolidity/103/33/airdrop.sol": {
		"Airdrop": {
			"abi": [
				{
					"inputs": [
						{
							"internalType": "uint256[]",
							"name": "arr",
							"type": "uint256[]"
						}
					],
					"name": "getSum",
					"outputs": [
						{
							"internalType": "uint256",
							"name": "sum",
							"type": "uint256"
						}
					],
					"stateMutability": "pure",
					"type": "function"
				},
				{
					"inputs": [
						{
							"internalType": "address payable[]",
							"name": "_addresses",
							"type": "address[]"
						},
						{
							"internalType": "uint256[]",
							"name": "_amounts",
							"type": "uint256[]"
						}
					],
					"name": "multiTransferETH",
					"outputs": [],
					"stateMutability": "payable",
					"type": "function"
				},
				{
					"inputs": [
						{
							"internalType": "address",
							"name": "token",
							"type": "address"
						},
						{
							"internalType": "address[]",
							"name": "receives",
							"type": "address[]"
						},
						{
							"internalType": "uint256[]",
							"name": "amounts",
							"type": "uint256[]"
						}
					],
					"name": "multiTransferToken",
					"outputs": [],
					"stateMutability": "nonpayable",
					"type": "function"
				}
			],
			"devdoc": {
				"kind": "dev",
				"methods": {},
				"version": 1
			},
			"evm": {
				"assembly": "    /* \"wtfSolidity/103/33/airdrop.sol\":90:1890  contract Airdrop {... */\n  mstore(0x40, 0x80)\n  callvalue\n  dup1\n  iszero\n  tag_1\n  jumpi\n  0x00\n  dup1\n  revert\ntag_1:\n  pop\n  dataSize(sub_0)\n  dup1\n  dataOffset(sub_0)\n  0x00\n  codecopy\n  0x00\n  return\nstop\n\nsub_0: assembly {\n        /* \"wtfSolidity/103/33/airdrop.sol\":90:1890  contract Airdrop {... */\n      mstore(0x40, 0x80)\n      jumpi(tag_1, lt(calldatasize, 0x04))\n      shr(0xe0, calldataload(0x00))\n      dup1\n      0x41ed24a2\n      eq\n      tag_2\n      jumpi\n      dup1\n      0x77988cf8\n      eq\n      tag_3\n      jumpi\n      dup1\n      0xccb8c1e0\n      eq\n      tag_4\n      jumpi\n    tag_1:\n      0x00\n      dup1\n      revert\n        /* \"wtfSolidity/103/33/airdrop.sol\":535:1180  function multiTransferToken(address token, address[] calldata receives, uint[] calldata amounts) external {... */\n    tag_2:\n      callvalue\n      dup1\n      iszero\n      tag_5\n      jumpi\n      0x00\n      dup1\n      revert\n    tag_5:\n      pop\n      tag_6\n      0x04\n      dup1\n      calldatasize\n      sub\n      dup2\n      add\n      swap1\n      tag_7\n      swap2\n      swap1\n      tag_8\n      jump\t// in\n    tag_7:\n      tag_9\n      jump\t// in\n    tag_6:\n      stop\n        /* \"wtfSolidity/103/33/airdrop.sol\":1221:1887  function multiTransferETH(... */\n    tag_3:\n      tag_10\n      0x04\n      dup1\n      calldatasize\n      sub\n      dup2\n      add\n      swap1\n      tag_11\n      swap2\n      swap1\n      tag_12\n      jump\t// in\n    tag_11:\n      tag_13\n      jump\t// in\n    tag_10:\n      stop\n        /* \"wtfSolidity/103/33/airdrop.sol\":114:281  function getSum(uint256[] calldata arr) public pure returns (uint sum) {... */\n    tag_4:\n      callvalue\n      dup1\n      iszero\n      tag_14\n      jumpi\n      0x00\n      dup1\n      revert\n    tag_14:\n      pop\n      tag_15\n      0x04\n      dup1\n      calldatasize\n      sub\n      dup2\n      add\n      swap1\n      tag_16\n      swap2\n      swap1\n      tag_17\n      jump\t// in\n    tag_16:\n      tag_18\n      jump\t// in\n    tag_15:\n      mload(0x40)\n      tag_19\n      swap2\n      swap1\n      tag_20\n      jump\t// in\n    tag_19:\n      mload(0x40)\n      dup1\n      swap2\n      sub\n      swap1\n      return\n        /* \"wtfSolidity/103/33/airdrop.sol\":535:1180  function multiTransferToken(address token, address[] calldata receives, uint[] calldata amounts) external {... */\n    tag_9:\n        /* \"wtfSolidity/103/33/airdrop.sol\":743:750  amounts */\n      dup2\n      dup2\n        /* \"wtfSolidity/103/33/airdrop.sol\":743:757  amounts.length */\n      swap1\n      pop\n        /* \"wtfSolidity/103/33/airdrop.sol\":724:732  receives */\n      dup5\n      dup5\n        /* \"wtfSolidity/103/33/airdrop.sol\":724:739  receives.length */\n      swap1\n      pop\n        /* \"wtfSolidity/103/33/airdrop.sol\":724:757  receives.length == amounts.length */\n      eq\n        /* \"wtfSolidity/103/33/airdrop.sol\":716:803  require(receives.length == amounts.length, \"Lengths of Receives and Amounts NOT EQUAL\") */\n      tag_22\n      jumpi\n      mload(0x40)\n      0x08c379a000000000000000000000000000000000000000000000000000000000\n      dup2\n      mstore\n      0x04\n      add\n      tag_23\n      swap1\n      tag_24\n      jump\t// in\n    tag_23:\n      mload(0x40)\n      dup1\n      swap2\n      sub\n      swap1\n      revert\n    tag_22:\n        /* \"wtfSolidity/103/33/airdrop.sol\":814:822  IERC20 t */\n      0x00\n        /* \"wtfSolidity/103/33/airdrop.sol\":832:837  token */\n      dup6\n        /* \"wtfSolidity/103/33/airdrop.sol\":814:838  IERC20 t = IERC20(token) */\n      swap1\n      pop\n        /* \"wtfSolidity/103/33/airdrop.sol\":849:863  uint amountSum */\n      0x00\n        /* \"wtfSolidity/103/33/airdrop.sol\":866:881  getSum(amounts) */\n      tag_25\n        /* \"wtfSolidity/103/33/airdrop.sol\":873:880  amounts */\n      dup5\n      dup5\n        /* \"wtfSolidity/103/33/airdrop.sol\":866:872  getSum */\n      tag_18\n        /* \"wtfSolidity/103/33/airdrop.sol\":866:881  getSum(amounts) */\n      jump\t// in\n    tag_25:\n        /* \"wtfSolidity/103/33/airdrop.sol\":849:881  uint amountSum = getSum(amounts) */\n      swap1\n      pop\n        /* \"wtfSolidity/103/33/airdrop.sol\":1004:1013  amountSum */\n      dup1\n        /* \"wtfSolidity/103/33/airdrop.sol\":962:963  t */\n      dup3\n        /* \"wtfSolidity/103/33/airdrop.sol\":962:973  t.allowance */\n      0xffffffffffffffffffffffffffffffffffffffff\n      and\n      0xdd62ed3e\n        /* \"wtfSolidity/103/33/airdrop.sol\":974:984  msg.sender */\n      caller\n        /* \"wtfSolidity/103/33/airdrop.sol\":994:998  this */\n      address\n        /* \"wtfSolidity/103/33/airdrop.sol\":962:1000  t.allowance(msg.sender, address(this)) */\n      mload(0x40)\n      dup4\n      0xffffffff\n      and\n      0xe0\n      shl\n      dup2\n      mstore\n      0x04\n      add\n      tag_26\n      swap3\n      swap2\n      swap1\n      tag_27\n      jump\t// in\n    tag_26:\n      0x20\n      mload(0x40)\n      dup1\n      dup4\n      sub\n      dup2\n      dup7\n      gas\n      staticcall\n      iszero\n      dup1\n      iszero\n      tag_29\n      jumpi\n      returndatasize\n      0x00\n      dup1\n      returndatacopy\n      revert(0x00, returndatasize)\n    tag_29:\n      pop\n      pop\n      pop\n      pop\n      mload(0x40)\n      returndatasize\n      not(0x1f)\n      0x1f\n      dup3\n      add\n      and\n      dup3\n      add\n      dup1\n      0x40\n      mstore\n      pop\n      dup2\n      add\n      swap1\n      tag_30\n      swap2\n      swap1\n      tag_31\n      jump\t// in\n    tag_30:\n        /* \"wtfSolidity/103/33/airdrop.sol\":962:1013  t.allowance(msg.sender, address(this)) >= amountSum */\n      lt\n      iszero\n        /* \"wtfSolidity/103/33/airdrop.sol\":954:1042  require(t.allowance(msg.sender, address(this)) >= amountSum, \"Need Approve ERC20 token\") */\n      tag_32\n      jumpi\n      mload(0x40)\n      0x08c379a000000000000000000000000000000000000000000000000000000000\n      dup2\n      mstore\n      0x04\n      add\n      tag_33\n      swap1\n      tag_34\n      jump\t// in\n    tag_33:\n      mload(0x40)\n      dup1\n      swap2\n      sub\n      swap1\n      revert\n    tag_32:\n        /* \"wtfSolidity/103/33/airdrop.sol\":1060:1067  uint8 i */\n      0x00\n        /* \"wtfSolidity/103/33/airdrop.sol\":1055:1173  for (uint8 i; i < receives.length; i++) {... */\n    tag_35:\n        /* \"wtfSolidity/103/33/airdrop.sol\":1073:1081  receives */\n      dup7\n      dup7\n        /* \"wtfSolidity/103/33/airdrop.sol\":1073:1088  receives.length */\n      swap1\n      pop\n        /* \"wtfSolidity/103/33/airdrop.sol\":1069:1070  i */\n      dup2\n        /* \"wtfSolidity/103/33/airdrop.sol\":1069:1088  i < receives.length */\n      0xff\n      and\n      lt\n        /* \"wtfSolidity/103/33/airdrop.sol\":1055:1173  for (uint8 i; i < receives.length; i++) {... */\n      iszero\n      tag_36\n      jumpi\n        /* \"wtfSolidity/103/33/airdrop.sol\":1110:1111  t */\n      dup3\n        /* \"wtfSolidity/103/33/airdrop.sol\":1110:1124  t.transferFrom */\n      0xffffffffffffffffffffffffffffffffffffffff\n      and\n      0x23b872dd\n        /* \"wtfSolidity/103/33/airdrop.sol\":1125:1135  msg.sender */\n      caller\n        /* \"wtfSolidity/103/33/airdrop.sol\":1137:1145  receives */\n      dup10\n      dup10\n        /* \"wtfSolidity/103/33/airdrop.sol\":1146:1147  i */\n      dup6\n        /* \"wtfSolidity/103/33/airdrop.sol\":1137:1148  receives[i] */\n      0xff\n      and\n      dup2\n      dup2\n      lt\n      tag_38\n      jumpi\n      tag_39\n      tag_40\n      jump\t// in\n    tag_39:\n    tag_38:\n      swap1\n      pop\n      0x20\n      mul\n      add\n      0x20\n      dup2\n      add\n      swap1\n      tag_41\n      swap2\n      swap1\n      tag_42\n      jump\t// in\n    tag_41:\n        /* \"wtfSolidity/103/33/airdrop.sol\":1150:1157  amounts */\n      dup9\n      dup9\n        /* \"wtfSolidity/103/33/airdrop.sol\":1158:1159  i */\n      dup7\n        /* \"wtfSolidity/103/33/airdrop.sol\":1150:1160  amounts[i] */\n      0xff\n      and\n      dup2\n      dup2\n      lt\n      tag_43\n      jumpi\n      tag_44\n      tag_40\n      jump\t// in\n    tag_44:\n    tag_43:\n      swap1\n      pop\n      0x20\n      mul\n      add\n      calldataload\n        /* \"wtfSolidity/103/33/airdrop.sol\":1110:1161  t.transferFrom(msg.sender, receives[i], amounts[i]) */\n      mload(0x40)\n      dup5\n      0xffffffff\n      and\n      0xe0\n      shl\n      dup2\n      mstore\n      0x04\n      add\n      tag_45\n      swap4\n      swap3\n      swap2\n      swap1\n      tag_46\n      jump\t// in\n    tag_45:\n      0x20\n      mload(0x40)\n      dup1\n      dup4\n      sub\n      dup2\n      0x00\n      dup8\n      gas\n      call\n      iszero\n      dup1\n      iszero\n      tag_48\n      jumpi\n      returndatasize\n      0x00\n      dup1\n      returndatacopy\n      revert(0x00, returndatasize)\n    tag_48:\n      pop\n      pop\n      pop\n      pop\n      mload(0x40)\n      returndatasize\n      not(0x1f)\n      0x1f\n      dup3\n      add\n      and\n      dup3\n      add\n      dup1\n      0x40\n      mstore\n      pop\n      dup2\n      add\n      swap1\n      tag_49\n      swap2\n      swap1\n      tag_50\n      jump\t// in\n    tag_49:\n      pop\n        /* \"wtfSolidity/103/33/airdrop.sol\":1090:1093  i++ */\n      dup1\n      dup1\n      tag_51\n      swap1\n      tag_52\n      jump\t// in\n    tag_51:\n      swap2\n      pop\n      pop\n        /* \"wtfSolidity/103/33/airdrop.sol\":1055:1173  for (uint8 i; i < receives.length; i++) {... */\n      jump(tag_35)\n    tag_36:\n      pop\n        /* \"wtfSolidity/103/33/airdrop.sol\":641:1180  {... */\n      pop\n      pop\n        /* \"wtfSolidity/103/33/airdrop.sol\":535:1180  function multiTransferToken(address token, address[] calldata receives, uint[] calldata amounts) external {... */\n      pop\n      pop\n      pop\n      pop\n      pop\n      jump\t// out\n        /* \"wtfSolidity/103/33/airdrop.sol\":1221:1887  function multiTransferETH(... */\n    tag_13:\n        /* \"wtfSolidity/103/33/airdrop.sol\":1459:1467  _amounts */\n      dup2\n      dup2\n        /* \"wtfSolidity/103/33/airdrop.sol\":1459:1474  _amounts.length */\n      swap1\n      pop\n        /* \"wtfSolidity/103/33/airdrop.sol\":1438:1448  _addresses */\n      dup5\n      dup5\n        /* \"wtfSolidity/103/33/airdrop.sol\":1438:1455  _addresses.length */\n      swap1\n      pop\n        /* \"wtfSolidity/103/33/airdrop.sol\":1438:1474  _addresses.length == _amounts.length */\n      eq\n        /* \"wtfSolidity/103/33/airdrop.sol\":1430:1521  require(_addresses.length == _amounts.length, \"Lengths of Addresses and Amounts NOT EQUAL\") */\n      tag_54\n      jumpi\n      mload(0x40)\n      0x08c379a000000000000000000000000000000000000000000000000000000000\n      dup2\n      mstore\n      0x04\n      add\n      tag_55\n      swap1\n      tag_56\n      jump\t// in\n    tag_55:\n      mload(0x40)\n      dup1\n      swap2\n      sub\n      swap1\n      revert\n    tag_54:\n        /* \"wtfSolidity/103/33/airdrop.sol\":1532:1547  uint _amountSum */\n      0x00\n        /* \"wtfSolidity/103/33/airdrop.sol\":1550:1566  getSum(_amounts) */\n      tag_57\n        /* \"wtfSolidity/103/33/airdrop.sol\":1557:1565  _amounts */\n      dup4\n      dup4\n        /* \"wtfSolidity/103/33/airdrop.sol\":1550:1556  getSum */\n      tag_18\n        /* \"wtfSolidity/103/33/airdrop.sol\":1550:1566  getSum(_amounts) */\n      jump\t// in\n    tag_57:\n        /* \"wtfSolidity/103/33/airdrop.sol\":1532:1566  uint _amountSum = getSum(_amounts) */\n      swap1\n      pop\n        /* \"wtfSolidity/103/33/airdrop.sol\":1669:1679  _amountSum */\n      dup1\n        /* \"wtfSolidity/103/33/airdrop.sol\":1656:1665  msg.value */\n      callvalue\n        /* \"wtfSolidity/103/33/airdrop.sol\":1656:1679  msg.value == _amountSum */\n      eq\n        /* \"wtfSolidity/103/33/airdrop.sol\":1648:1705  require(msg.value == _amountSum, \"Transfer amount error\") */\n      tag_58\n      jumpi\n      mload(0x40)\n      0x08c379a000000000000000000000000000000000000000000000000000000000\n      dup2\n      mstore\n      0x04\n      add\n      tag_59\n      swap1\n      tag_60\n      jump\t// in\n    tag_59:\n      mload(0x40)\n      dup1\n      swap2\n      sub\n      swap1\n      revert\n    tag_58:\n        /* \"wtfSolidity/103/33/airdrop.sol\":1775:1784  uint256 i */\n      0x00\n        /* \"wtfSolidity/103/33/airdrop.sol\":1770:1880  for (uint256 i = 0; i < _addresses.length; i++) {... */\n    tag_61:\n        /* \"wtfSolidity/103/33/airdrop.sol\":1794:1804  _addresses */\n      dup6\n      dup6\n        /* \"wtfSolidity/103/33/airdrop.sol\":1794:1811  _addresses.length */\n      swap1\n      pop\n        /* \"wtfSolidity/103/33/airdrop.sol\":1790:1791  i */\n      dup2\n        /* \"wtfSolidity/103/33/airdrop.sol\":1790:1811  i < _addresses.length */\n      lt\n        /* \"wtfSolidity/103/33/airdrop.sol\":1770:1880  for (uint256 i = 0; i < _addresses.length; i++) {... */\n      iszero\n      tag_62\n      jumpi\n        /* \"wtfSolidity/103/33/airdrop.sol\":1833:1843  _addresses */\n      dup6\n      dup6\n        /* \"wtfSolidity/103/33/airdrop.sol\":1844:1845  i */\n      dup3\n        /* \"wtfSolidity/103/33/airdrop.sol\":1833:1846  _addresses[i] */\n      dup2\n      dup2\n      lt\n      tag_64\n      jumpi\n      tag_65\n      tag_40\n      jump\t// in\n    tag_65:\n    tag_64:\n      swap1\n      pop\n      0x20\n      mul\n      add\n      0x20\n      dup2\n      add\n      swap1\n      tag_66\n      swap2\n      swap1\n      tag_67\n      jump\t// in\n    tag_66:\n        /* \"wtfSolidity/103/33/airdrop.sol\":1833:1855  _addresses[i].transfer */\n      0xffffffffffffffffffffffffffffffffffffffff\n      and\n        /* \"wtfSolidity/103/33/airdrop.sol\":1833:1868  _addresses[i].transfer(_amounts[i]) */\n      0x08fc\n        /* \"wtfSolidity/103/33/airdrop.sol\":1856:1864  _amounts */\n      dup6\n      dup6\n        /* \"wtfSolidity/103/33/airdrop.sol\":1865:1866  i */\n      dup5\n        /* \"wtfSolidity/103/33/airdrop.sol\":1856:1867  _amounts[i] */\n      dup2\n      dup2\n      lt\n      tag_68\n      jumpi\n      tag_69\n      tag_40\n      jump\t// in\n    tag_69:\n    tag_68:\n      swap1\n      pop\n      0x20\n      mul\n      add\n      calldataload\n        /* \"wtfSolidity/103/33/airdrop.sol\":1833:1868  _addresses[i].transfer(_amounts[i]) */\n      swap1\n      dup2\n      iszero\n      mul\n      swap1\n      mload(0x40)\n      0x00\n      mload(0x40)\n      dup1\n      dup4\n      sub\n      dup2\n      dup6\n      dup9\n      dup9\n      call\n      swap4\n      pop\n      pop\n      pop\n      pop\n      iszero\n      dup1\n      iszero\n      tag_71\n      jumpi\n      returndatasize\n      0x00\n      dup1\n      returndatacopy\n      revert(0x00, returndatasize)\n    tag_71:\n      pop\n        /* \"wtfSolidity/103/33/airdrop.sol\":1813:1816  i++ */\n      dup1\n      dup1\n      0x01\n      add\n      swap2\n      pop\n      pop\n        /* \"wtfSolidity/103/33/airdrop.sol\":1770:1880  for (uint256 i = 0; i < _addresses.length; i++) {... */\n      jump(tag_61)\n    tag_62:\n      pop\n        /* \"wtfSolidity/103/33/airdrop.sol\":1355:1887  {... */\n      pop\n        /* \"wtfSolidity/103/33/airdrop.sol\":1221:1887  function multiTransferETH(... */\n      pop\n      pop\n      pop\n      pop\n      jump\t// out\n        /* \"wtfSolidity/103/33/airdrop.sol\":114:281  function getSum(uint256[] calldata arr) public pure returns (uint sum) {... */\n    tag_18:\n        /* \"wtfSolidity/103/33/airdrop.sol\":175:183  uint sum */\n      0x00\n        /* \"wtfSolidity/103/33/airdrop.sol\":201:207  uint i */\n      dup1\n        /* \"wtfSolidity/103/33/airdrop.sol\":210:211  0 */\n      0x00\n        /* \"wtfSolidity/103/33/airdrop.sol\":201:211  uint i = 0 */\n      swap1\n      pop\n        /* \"wtfSolidity/103/33/airdrop.sol\":196:274  for (uint i = 0; i < arr.length; i++) {... */\n    tag_73:\n        /* \"wtfSolidity/103/33/airdrop.sol\":217:220  arr */\n      dup4\n      dup4\n        /* \"wtfSolidity/103/33/airdrop.sol\":217:227  arr.length */\n      swap1\n      pop\n        /* \"wtfSolidity/103/33/airdrop.sol\":213:214  i */\n      dup2\n        /* \"wtfSolidity/103/33/airdrop.sol\":213:227  i < arr.length */\n      lt\n        /* \"wtfSolidity/103/33/airdrop.sol\":196:274  for (uint i = 0; i < arr.length; i++) {... */\n      iszero\n      tag_74\n      jumpi\n        /* \"wtfSolidity/103/33/airdrop.sol\":256:259  arr */\n      dup4\n      dup4\n        /* \"wtfSolidity/103/33/airdrop.sol\":260:261  i */\n      dup3\n        /* \"wtfSolidity/103/33/airdrop.sol\":256:262  arr[i] */\n      dup2\n      dup2\n      lt\n      tag_76\n      jumpi\n      tag_77\n      tag_40\n      jump\t// in\n    tag_77:\n    tag_76:\n      swap1\n      pop\n      0x20\n      mul\n      add\n      calldataload\n        /* \"wtfSolidity/103/33/airdrop.sol\":249:262  sum += arr[i] */\n      dup3\n      tag_78\n      swap2\n      swap1\n      tag_79\n      jump\t// in\n    tag_78:\n      swap2\n      pop\n        /* \"wtfSolidity/103/33/airdrop.sol\":229:232  i++ */\n      dup1\n      dup1\n      0x01\n      add\n      swap2\n      pop\n      pop\n        /* \"wtfSolidity/103/33/airdrop.sol\":196:274  for (uint i = 0; i < arr.length; i++) {... */\n      jump(tag_73)\n    tag_74:\n      pop\n        /* \"wtfSolidity/103/33/airdrop.sol\":114:281  function getSum(uint256[] calldata arr) public pure returns (uint sum) {... */\n      swap3\n      swap2\n      pop\n      pop\n      jump\t// out\n        /* \"#utility.yul\":88:205   */\n    tag_81:\n        /* \"#utility.yul\":197:198   */\n      0x00\n        /* \"#utility.yul\":194:195   */\n      dup1\n        /* \"#utility.yul\":187:199   */\n      revert\n        /* \"#utility.yul\":211:328   */\n    tag_82:\n        /* \"#utility.yul\":320:321   */\n      0x00\n        /* \"#utility.yul\":317:318   */\n      dup1\n        /* \"#utility.yul\":310:322   */\n      revert\n        /* \"#utility.yul\":334:460   */\n    tag_83:\n        /* \"#utility.yul\":371:378   */\n      0x00\n        /* \"#utility.yul\":411:453   */\n      0xffffffffffffffffffffffffffffffffffffffff\n        /* \"#utility.yul\":404:409   */\n      dup3\n        /* \"#utility.yul\":400:454   */\n      and\n        /* \"#utility.yul\":389:454   */\n      swap1\n      pop\n        /* \"#utility.yul\":334:460   */\n      swap2\n      swap1\n      pop\n      jump\t// out\n        /* \"#utility.yul\":466:562   */\n    tag_84:\n        /* \"#utility.yul\":503:510   */\n      0x00\n        /* \"#utility.yul\":532:556   */\n      tag_121\n        /* \"#utility.yul\":550:555   */\n      dup3\n        /* \"#utility.yul\":532:556   */\n      tag_83\n      jump\t// in\n    tag_121:\n        /* \"#utility.yul\":521:556   */\n      swap1\n      pop\n        /* \"#utility.yul\":466:562   */\n      swap2\n      swap1\n      pop\n      jump\t// out\n        /* \"#utility.yul\":568:690   */\n    tag_85:\n        /* \"#utility.yul\":641:665   */\n      tag_123\n        /* \"#utility.yul\":659:664   */\n      dup2\n        /* \"#utility.yul\":641:665   */\n      tag_84\n      jump\t// in\n    tag_123:\n        /* \"#utility.yul\":634:639   */\n      dup2\n        /* \"#utility.yul\":631:666   */\n      eq\n        /* \"#utility.yul\":621:684   */\n      tag_124\n      jumpi\n        /* \"#utility.yul\":680:681   */\n      0x00\n        /* \"#utility.yul\":677:678   */\n      dup1\n        /* \"#utility.yul\":670:682   */\n      revert\n        /* \"#utility.yul\":621:684   */\n    tag_124:\n        /* \"#utility.yul\":568:690   */\n      pop\n      jump\t// out\n        /* \"#utility.yul\":696:835   */\n    tag_86:\n        /* \"#utility.yul\":742:747   */\n      0x00\n        /* \"#utility.yul\":780:786   */\n      dup2\n        /* \"#utility.yul\":767:787   */\n      calldataload\n        /* \"#utility.yul\":758:787   */\n      swap1\n      pop\n        /* \"#utility.yul\":796:829   */\n      tag_126\n        /* \"#utility.yul\":823:828   */\n      dup2\n        /* \"#utility.yul\":796:829   */\n      tag_85\n      jump\t// in\n    tag_126:\n        /* \"#utility.yul\":696:835   */\n      swap3\n      swap2\n      pop\n      pop\n      jump\t// out\n        /* \"#utility.yul\":841:958   */\n    tag_87:\n        /* \"#utility.yul\":950:951   */\n      0x00\n        /* \"#utility.yul\":947:948   */\n      dup1\n        /* \"#utility.yul\":940:952   */\n      revert\n        /* \"#utility.yul\":964:1081   */\n    tag_88:\n        /* \"#utility.yul\":1073:1074   */\n      0x00\n        /* \"#utility.yul\":1070:1071   */\n      dup1\n        /* \"#utility.yul\":1063:1075   */\n      revert\n        /* \"#utility.yul\":1087:1204   */\n    tag_89:\n        /* \"#utility.yul\":1196:1197   */\n      0x00\n        /* \"#utility.yul\":1193:1194   */\n      dup1\n        /* \"#utility.yul\":1186:1198   */\n      revert\n        /* \"#utility.yul\":1227:1795   */\n    tag_90:\n        /* \"#utility.yul\":1300:1308   */\n      0x00\n        /* \"#utility.yul\":1310:1316   */\n      dup1\n        /* \"#utility.yul\":1360:1363   */\n      dup4\n        /* \"#utility.yul\":1353:1357   */\n      0x1f\n        /* \"#utility.yul\":1345:1351   */\n      dup5\n        /* \"#utility.yul\":1341:1358   */\n      add\n        /* \"#utility.yul\":1337:1364   */\n      slt\n        /* \"#utility.yul\":1327:1449   */\n      tag_131\n      jumpi\n        /* \"#utility.yul\":1368:1447   */\n      tag_132\n      tag_87\n      jump\t// in\n    tag_132:\n        /* \"#utility.yul\":1327:1449   */\n    tag_131:\n        /* \"#utility.yul\":1481:1487   */\n      dup3\n        /* \"#utility.yul\":1468:1488   */\n      calldataload\n        /* \"#utility.yul\":1458:1488   */\n      swap1\n      pop\n        /* \"#utility.yul\":1511:1529   */\n      0xffffffffffffffff\n        /* \"#utility.yul\":1503:1509   */\n      dup2\n        /* \"#utility.yul\":1500:1530   */\n      gt\n        /* \"#utility.yul\":1497:1614   */\n      iszero\n      tag_133\n      jumpi\n        /* \"#utility.yul\":1533:1612   */\n      tag_134\n      tag_88\n      jump\t// in\n    tag_134:\n        /* \"#utility.yul\":1497:1614   */\n    tag_133:\n        /* \"#utility.yul\":1647:1651   */\n      0x20\n        /* \"#utility.yul\":1639:1645   */\n      dup4\n        /* \"#utility.yul\":1635:1652   */\n      add\n        /* \"#utility.yul\":1623:1652   */\n      swap2\n      pop\n        /* \"#utility.yul\":1701:1704   */\n      dup4\n        /* \"#utility.yul\":1693:1697   */\n      0x20\n        /* \"#utility.yul\":1685:1691   */\n      dup3\n        /* \"#utility.yul\":1681:1698   */\n      mul\n        /* \"#utility.yul\":1671:1679   */\n      dup4\n        /* \"#utility.yul\":1667:1699   */\n      add\n        /* \"#utility.yul\":1664:1705   */\n      gt\n        /* \"#utility.yul\":1661:1789   */\n      iszero\n      tag_135\n      jumpi\n        /* \"#utility.yul\":1708:1787   */\n      tag_136\n      tag_89\n      jump\t// in\n    tag_136:\n        /* \"#utility.yul\":1661:1789   */\n    tag_135:\n        /* \"#utility.yul\":1227:1795   */\n      swap3\n      pop\n      swap3\n      swap1\n      pop\n      jump\t// out\n        /* \"#utility.yul\":1818:2386   */\n    tag_91:\n        /* \"#utility.yul\":1891:1899   */\n      0x00\n        /* \"#utility.yul\":1901:1907   */\n      dup1\n        /* \"#utility.yul\":1951:1954   */\n      dup4\n        /* \"#utility.yul\":1944:1948   */\n      0x1f\n        /* \"#utility.yul\":1936:1942   */\n      dup5\n        /* \"#utility.yul\":1932:1949   */\n      add\n        /* \"#utility.yul\":1928:1955   */\n      slt\n        /* \"#utility.yul\":1918:2040   */\n      tag_138\n      jumpi\n        /* \"#utility.yul\":1959:2038   */\n      tag_139\n      tag_87\n      jump\t// in\n    tag_139:\n        /* \"#utility.yul\":1918:2040   */\n    tag_138:\n        /* \"#utility.yul\":2072:2078   */\n      dup3\n        /* \"#utility.yul\":2059:2079   */\n      calldataload\n        /* \"#utility.yul\":2049:2079   */\n      swap1\n      pop\n        /* \"#utility.yul\":2102:2120   */\n      0xffffffffffffffff\n        /* \"#utility.yul\":2094:2100   */\n      dup2\n        /* \"#utility.yul\":2091:2121   */\n      gt\n        /* \"#utility.yul\":2088:2205   */\n      iszero\n      tag_140\n      jumpi\n        /* \"#utility.yul\":2124:2203   */\n      tag_141\n      tag_88\n      jump\t// in\n    tag_141:\n        /* \"#utility.yul\":2088:2205   */\n    tag_140:\n        /* \"#utility.yul\":2238:2242   */\n      0x20\n        /* \"#utility.yul\":2230:2236   */\n      dup4\n        /* \"#utility.yul\":2226:2243   */\n      add\n        /* \"#utility.yul\":2214:2243   */\n      swap2\n      pop\n        /* \"#utility.yul\":2292:2295   */\n      dup4\n        /* \"#utility.yul\":2284:2288   */\n      0x20\n        /* \"#utility.yul\":2276:2282   */\n      dup3\n        /* \"#utility.yul\":2272:2289   */\n      mul\n        /* \"#utility.yul\":2262:2270   */\n      dup4\n        /* \"#utility.yul\":2258:2290   */\n      add\n        /* \"#utility.yul\":2255:2296   */\n      gt\n        /* \"#utility.yul\":2252:2380   */\n      iszero\n      tag_142\n      jumpi\n        /* \"#utility.yul\":2299:2378   */\n      tag_143\n      tag_89\n      jump\t// in\n    tag_143:\n        /* \"#utility.yul\":2252:2380   */\n    tag_142:\n        /* \"#utility.yul\":1818:2386   */\n      swap3\n      pop\n      swap3\n      swap1\n      pop\n      jump\t// out\n        /* \"#utility.yul\":2392:3471   */\n    tag_8:\n        /* \"#utility.yul\":2523:2529   */\n      0x00\n        /* \"#utility.yul\":2531:2537   */\n      dup1\n        /* \"#utility.yul\":2539:2545   */\n      0x00\n        /* \"#utility.yul\":2547:2553   */\n      dup1\n        /* \"#utility.yul\":2555:2561   */\n      0x00\n        /* \"#utility.yul\":2604:2606   */\n      0x60\n        /* \"#utility.yul\":2592:2601   */\n      dup7\n        /* \"#utility.yul\":2583:2590   */\n      dup9\n        /* \"#utility.yul\":2579:2602   */\n      sub\n        /* \"#utility.yul\":2575:2607   */\n      slt\n        /* \"#utility.yul\":2572:2691   */\n      iszero\n      tag_145\n      jumpi\n        /* \"#utility.yul\":2610:2689   */\n      tag_146\n      tag_81\n      jump\t// in\n    tag_146:\n        /* \"#utility.yul\":2572:2691   */\n    tag_145:\n        /* \"#utility.yul\":2730:2731   */\n      0x00\n        /* \"#utility.yul\":2755:2808   */\n      tag_147\n        /* \"#utility.yul\":2800:2807   */\n      dup9\n        /* \"#utility.yul\":2791:2797   */\n      dup3\n        /* \"#utility.yul\":2780:2789   */\n      dup10\n        /* \"#utility.yul\":2776:2798   */\n      add\n        /* \"#utility.yul\":2755:2808   */\n      tag_86\n      jump\t// in\n    tag_147:\n        /* \"#utility.yul\":2745:2808   */\n      swap6\n      pop\n        /* \"#utility.yul\":2701:2818   */\n      pop\n        /* \"#utility.yul\":2885:2887   */\n      0x20\n        /* \"#utility.yul\":2874:2883   */\n      dup7\n        /* \"#utility.yul\":2870:2888   */\n      add\n        /* \"#utility.yul\":2857:2889   */\n      calldataload\n        /* \"#utility.yul\":2916:2934   */\n      0xffffffffffffffff\n        /* \"#utility.yul\":2908:2914   */\n      dup2\n        /* \"#utility.yul\":2905:2935   */\n      gt\n        /* \"#utility.yul\":2902:3019   */\n      iszero\n      tag_148\n      jumpi\n        /* \"#utility.yul\":2938:3017   */\n      tag_149\n      tag_82\n      jump\t// in\n    tag_149:\n        /* \"#utility.yul\":2902:3019   */\n    tag_148:\n        /* \"#utility.yul\":3051:3131   */\n      tag_150\n        /* \"#utility.yul\":3123:3130   */\n      dup9\n        /* \"#utility.yul\":3114:3120   */\n      dup3\n        /* \"#utility.yul\":3103:3112   */\n      dup10\n        /* \"#utility.yul\":3099:3121   */\n      add\n        /* \"#utility.yul\":3051:3131   */\n      tag_90\n      jump\t// in\n    tag_150:\n        /* \"#utility.yul\":3033:3131   */\n      swap5\n      pop\n      swap5\n      pop\n        /* \"#utility.yul\":2828:3141   */\n      pop\n        /* \"#utility.yul\":3208:3210   */\n      0x40\n        /* \"#utility.yul\":3197:3206   */\n      dup7\n        /* \"#utility.yul\":3193:3211   */\n      add\n        /* \"#utility.yul\":3180:3212   */\n      calldataload\n        /* \"#utility.yul\":3239:3257   */\n      0xffffffffffffffff\n        /* \"#utility.yul\":3231:3237   */\n      dup2\n        /* \"#utility.yul\":3228:3258   */\n      gt\n        /* \"#utility.yul\":3225:3342   */\n      iszero\n      tag_151\n      jumpi\n        /* \"#utility.yul\":3261:3340   */\n      tag_152\n      tag_82\n      jump\t// in\n    tag_152:\n        /* \"#utility.yul\":3225:3342   */\n    tag_151:\n        /* \"#utility.yul\":3374:3454   */\n      tag_153\n        /* \"#utility.yul\":3446:3453   */\n      dup9\n        /* \"#utility.yul\":3437:3443   */\n      dup3\n        /* \"#utility.yul\":3426:3435   */\n      dup10\n        /* \"#utility.yul\":3422:3444   */\n      add\n        /* \"#utility.yul\":3374:3454   */\n      tag_91\n      jump\t// in\n    tag_153:\n        /* \"#utility.yul\":3356:3454   */\n      swap3\n      pop\n      swap3\n      pop\n        /* \"#utility.yul\":3151:3464   */\n      pop\n        /* \"#utility.yul\":2392:3471   */\n      swap3\n      swap6\n      pop\n      swap3\n      swap6\n      swap1\n      swap4\n      pop\n      jump\t// out\n        /* \"#utility.yul\":3502:4078   */\n    tag_92:\n        /* \"#utility.yul\":3583:3591   */\n      0x00\n        /* \"#utility.yul\":3593:3599   */\n      dup1\n        /* \"#utility.yul\":3643:3646   */\n      dup4\n        /* \"#utility.yul\":3636:3640   */\n      0x1f\n        /* \"#utility.yul\":3628:3634   */\n      dup5\n        /* \"#utility.yul\":3624:3641   */\n      add\n        /* \"#utility.yul\":3620:3647   */\n      slt\n        /* \"#utility.yul\":3610:3732   */\n      tag_155\n      jumpi\n        /* \"#utility.yul\":3651:3730   */\n      tag_156\n      tag_87\n      jump\t// in\n    tag_156:\n        /* \"#utility.yul\":3610:3732   */\n    tag_155:\n        /* \"#utility.yul\":3764:3770   */\n      dup3\n        /* \"#utility.yul\":3751:3771   */\n      calldataload\n        /* \"#utility.yul\":3741:3771   */\n      swap1\n      pop\n        /* \"#utility.yul\":3794:3812   */\n      0xffffffffffffffff\n        /* \"#utility.yul\":3786:3792   */\n      dup2\n        /* \"#utility.yul\":3783:3813   */\n      gt\n        /* \"#utility.yul\":3780:3897   */\n      iszero\n      tag_157\n      jumpi\n        /* \"#utility.yul\":3816:3895   */\n      tag_158\n      tag_88\n      jump\t// in\n    tag_158:\n        /* \"#utility.yul\":3780:3897   */\n    tag_157:\n        /* \"#utility.yul\":3930:3934   */\n      0x20\n        /* \"#utility.yul\":3922:3928   */\n      dup4\n        /* \"#utility.yul\":3918:3935   */\n      add\n        /* \"#utility.yul\":3906:3935   */\n      swap2\n      pop\n        /* \"#utility.yul\":3984:3987   */\n      dup4\n        /* \"#utility.yul\":3976:3980   */\n      0x20\n        /* \"#utility.yul\":3968:3974   */\n      dup3\n        /* \"#utility.yul\":3964:3981   */\n      mul\n        /* \"#utility.yul\":3954:3962   */\n      dup4\n        /* \"#utility.yul\":3950:3982   */\n      add\n        /* \"#utility.yul\":3947:3988   */\n      gt\n        /* \"#utility.yul\":3944:4072   */\n      iszero\n      tag_159\n      jumpi\n        /* \"#utility.yul\":3991:4070   */\n      tag_160\n      tag_89\n      jump\t// in\n    tag_160:\n        /* \"#utility.yul\":3944:4072   */\n    tag_159:\n        /* \"#utility.yul\":3502:4078   */\n      swap3\n      pop\n      swap3\n      swap1\n      pop\n      jump\t// out\n        /* \"#utility.yul\":4084:5034   */\n    tag_12:\n        /* \"#utility.yul\":4214:4220   */\n      0x00\n        /* \"#utility.yul\":4222:4228   */\n      dup1\n        /* \"#utility.yul\":4230:4236   */\n      0x00\n        /* \"#utility.yul\":4238:4244   */\n      dup1\n        /* \"#utility.yul\":4287:4289   */\n      0x40\n        /* \"#utility.yul\":4275:4284   */\n      dup6\n        /* \"#utility.yul\":4266:4273   */\n      dup8\n        /* \"#utility.yul\":4262:4285   */\n      sub\n        /* \"#utility.yul\":4258:4290   */\n      slt\n        /* \"#utility.yul\":4255:4374   */\n      iszero\n      tag_162\n      jumpi\n        /* \"#utility.yul\":4293:4372   */\n      tag_163\n      tag_81\n      jump\t// in\n    tag_163:\n        /* \"#utility.yul\":4255:4374   */\n    tag_162:\n        /* \"#utility.yul\":4441:4442   */\n      0x00\n        /* \"#utility.yul\":4430:4439   */\n      dup6\n        /* \"#utility.yul\":4426:4443   */\n      add\n        /* \"#utility.yul\":4413:4444   */\n      calldataload\n        /* \"#utility.yul\":4471:4489   */\n      0xffffffffffffffff\n        /* \"#utility.yul\":4463:4469   */\n      dup2\n        /* \"#utility.yul\":4460:4490   */\n      gt\n        /* \"#utility.yul\":4457:4574   */\n      iszero\n      tag_164\n      jumpi\n        /* \"#utility.yul\":4493:4572   */\n      tag_165\n      tag_82\n      jump\t// in\n    tag_165:\n        /* \"#utility.yul\":4457:4574   */\n    tag_164:\n        /* \"#utility.yul\":4606:4694   */\n      tag_166\n        /* \"#utility.yul\":4686:4693   */\n      dup8\n        /* \"#utility.yul\":4677:4683   */\n      dup3\n        /* \"#utility.yul\":4666:4675   */\n      dup9\n        /* \"#utility.yul\":4662:4684   */\n      add\n        /* \"#utility.yul\":4606:4694   */\n      tag_92\n      jump\t// in\n    tag_166:\n        /* \"#utility.yul\":4588:4694   */\n      swap5\n      pop\n      swap5\n      pop\n        /* \"#utility.yul\":4384:4704   */\n      pop\n        /* \"#utility.yul\":4771:4773   */\n      0x20\n        /* \"#utility.yul\":4760:4769   */\n      dup6\n        /* \"#utility.yul\":4756:4774   */\n      add\n        /* \"#utility.yul\":4743:4775   */\n      calldataload\n        /* \"#utility.yul\":4802:4820   */\n      0xffffffffffffffff\n        /* \"#utility.yul\":4794:4800   */\n      dup2\n        /* \"#utility.yul\":4791:4821   */\n      gt\n        /* \"#utility.yul\":4788:4905   */\n      iszero\n      tag_167\n      jumpi\n        /* \"#utility.yul\":4824:4903   */\n      tag_168\n      tag_82\n      jump\t// in\n    tag_168:\n        /* \"#utility.yul\":4788:4905   */\n    tag_167:\n        /* \"#utility.yul\":4937:5017   */\n      tag_169\n        /* \"#utility.yul\":5009:5016   */\n      dup8\n        /* \"#utility.yul\":5000:5006   */\n      dup3\n        /* \"#utility.yul\":4989:4998   */\n      dup9\n        /* \"#utility.yul\":4985:5007   */\n      add\n        /* \"#utility.yul\":4937:5017   */\n      tag_91\n      jump\t// in\n    tag_169:\n        /* \"#utility.yul\":4919:5017   */\n      swap3\n      pop\n      swap3\n      pop\n        /* \"#utility.yul\":4714:5027   */\n      pop\n        /* \"#utility.yul\":4084:5034   */\n      swap3\n      swap6\n      swap2\n      swap5\n      pop\n      swap3\n      pop\n      jump\t// out\n        /* \"#utility.yul\":5040:5599   */\n    tag_17:\n        /* \"#utility.yul\":5126:5132   */\n      0x00\n        /* \"#utility.yul\":5134:5140   */\n      dup1\n        /* \"#utility.yul\":5183:5185   */\n      0x20\n        /* \"#utility.yul\":5171:5180   */\n      dup4\n        /* \"#utility.yul\":5162:5169   */\n      dup6\n        /* \"#utility.yul\":5158:5181   */\n      sub\n        /* \"#utility.yul\":5154:5186   */\n      slt\n        /* \"#utility.yul\":5151:5270   */\n      iszero\n      tag_171\n      jumpi\n        /* \"#utility.yul\":5189:5268   */\n      tag_172\n      tag_81\n      jump\t// in\n    tag_172:\n        /* \"#utility.yul\":5151:5270   */\n    tag_171:\n        /* \"#utility.yul\":5337:5338   */\n      0x00\n        /* \"#utility.yul\":5326:5335   */\n      dup4\n        /* \"#utility.yul\":5322:5339   */\n      add\n        /* \"#utility.yul\":5309:5340   */\n      calldataload\n        /* \"#utility.yul\":5367:5385   */\n      0xffffffffffffffff\n        /* \"#utility.yul\":5359:5365   */\n      dup2\n        /* \"#utility.yul\":5356:5386   */\n      gt\n        /* \"#utility.yul\":5353:5470   */\n      iszero\n      tag_173\n      jumpi\n        /* \"#utility.yul\":5389:5468   */\n      tag_174\n      tag_82\n      jump\t// in\n    tag_174:\n        /* \"#utility.yul\":5353:5470   */\n    tag_173:\n        /* \"#utility.yul\":5502:5582   */\n      tag_175\n        /* \"#utility.yul\":5574:5581   */\n      dup6\n        /* \"#utility.yul\":5565:5571   */\n      dup3\n        /* \"#utility.yul\":5554:5563   */\n      dup7\n        /* \"#utility.yul\":5550:5572   */\n      add\n        /* \"#utility.yul\":5502:5582   */\n      tag_91\n      jump\t// in\n    tag_175:\n        /* \"#utility.yul\":5484:5582   */\n      swap3\n      pop\n      swap3\n      pop\n        /* \"#utility.yul\":5280:5592   */\n      pop\n        /* \"#utility.yul\":5040:5599   */\n      swap3\n      pop\n      swap3\n      swap1\n      pop\n      jump\t// out\n        /* \"#utility.yul\":5605:5682   */\n    tag_93:\n        /* \"#utility.yul\":5642:5649   */\n      0x00\n        /* \"#utility.yul\":5671:5676   */\n      dup2\n        /* \"#utility.yul\":5660:5676   */\n      swap1\n      pop\n        /* \"#utility.yul\":5605:5682   */\n      swap2\n      swap1\n      pop\n      jump\t// out\n        /* \"#utility.yul\":5688:5806   */\n    tag_94:\n        /* \"#utility.yul\":5775:5799   */\n      tag_178\n        /* \"#utility.yul\":5793:5798   */\n      dup2\n        /* \"#utility.yul\":5775:5799   */\n      tag_93\n      jump\t// in\n    tag_178:\n        /* \"#utility.yul\":5770:5773   */\n      dup3\n        /* \"#utility.yul\":5763:5800   */\n      mstore\n        /* \"#utility.yul\":5688:5806   */\n      pop\n      pop\n      jump\t// out\n        /* \"#utility.yul\":5812:6034   */\n    tag_20:\n        /* \"#utility.yul\":5905:5909   */\n      0x00\n        /* \"#utility.yul\":5943:5945   */\n      0x20\n        /* \"#utility.yul\":5932:5941   */\n      dup3\n        /* \"#utility.yul\":5928:5946   */\n      add\n        /* \"#utility.yul\":5920:5946   */\n      swap1\n      pop\n        /* \"#utility.yul\":5956:6027   */\n      tag_180\n        /* \"#utility.yul\":6024:6025   */\n      0x00\n        /* \"#utility.yul\":6013:6022   */\n      dup4\n        /* \"#utility.yul\":6009:6026   */\n      add\n        /* \"#utility.yul\":6000:6006   */\n      dup5\n        /* \"#utility.yul\":5956:6027   */\n      tag_94\n      jump\t// in\n    tag_180:\n        /* \"#utility.yul\":5812:6034   */\n      swap3\n      swap2\n      pop\n      pop\n      jump\t// out\n        /* \"#utility.yul\":6040:6209   */\n    tag_95:\n        /* \"#utility.yul\":6124:6135   */\n      0x00\n        /* \"#utility.yul\":6158:6164   */\n      dup3\n        /* \"#utility.yul\":6153:6156   */\n      dup3\n        /* \"#utility.yul\":6146:6165   */\n      mstore\n        /* \"#utility.yul\":6198:6202   */\n      0x20\n        /* \"#utility.yul\":6193:6196   */\n      dup3\n        /* \"#utility.yul\":6189:6203   */\n      add\n        /* \"#utility.yul\":6174:6203   */\n      swap1\n      pop\n        /* \"#utility.yul\":6040:6209   */\n      swap3\n      swap2\n      pop\n      pop\n      jump\t// out\n        /* \"#utility.yul\":6215:6443   */\n    tag_96:\n        /* \"#utility.yul\":6355:6389   */\n      0x4c656e67746873206f6620526563656976657320616e6420416d6f756e747320\n        /* \"#utility.yul\":6351:6352   */\n      0x00\n        /* \"#utility.yul\":6343:6349   */\n      dup3\n        /* \"#utility.yul\":6339:6353   */\n      add\n        /* \"#utility.yul\":6332:6390   */\n      mstore\n        /* \"#utility.yul\":6424:6435   */\n      0x4e4f5420455155414c0000000000000000000000000000000000000000000000\n        /* \"#utility.yul\":6419:6421   */\n      0x20\n        /* \"#utility.yul\":6411:6417   */\n      dup3\n        /* \"#utility.yul\":6407:6422   */\n      add\n        /* \"#utility.yul\":6400:6436   */\n      mstore\n        /* \"#utility.yul\":6215:6443   */\n      pop\n      jump\t// out\n        /* \"#utility.yul\":6449:6815   */\n    tag_97:\n        /* \"#utility.yul\":6591:6594   */\n      0x00\n        /* \"#utility.yul\":6612:6679   */\n      tag_184\n        /* \"#utility.yul\":6676:6678   */\n      0x29\n        /* \"#utility.yul\":6671:6674   */\n      dup4\n        /* \"#utility.yul\":6612:6679   */\n      tag_95\n      jump\t// in\n    tag_184:\n        /* \"#utility.yul\":6605:6679   */\n      swap2\n      pop\n        /* \"#utility.yul\":6688:6781   */\n      tag_185\n        /* \"#utility.yul\":6777:6780   */\n      dup3\n        /* \"#utility.yul\":6688:6781   */\n      tag_96\n      jump\t// in\n    tag_185:\n        /* \"#utility.yul\":6806:6808   */\n      0x40\n        /* \"#utility.yul\":6801:6804   */\n      dup3\n        /* \"#utility.yul\":6797:6809   */\n      add\n        /* \"#utility.yul\":6790:6809   */\n      swap1\n      pop\n        /* \"#utility.yul\":6449:6815   */\n      swap2\n      swap1\n      pop\n      jump\t// out\n        /* \"#utility.yul\":6821:7240   */\n    tag_24:\n        /* \"#utility.yul\":6987:6991   */\n      0x00\n        /* \"#utility.yul\":7025:7027   */\n      0x20\n        /* \"#utility.yul\":7014:7023   */\n      dup3\n        /* \"#utility.yul\":7010:7028   */\n      add\n        /* \"#utility.yul\":7002:7028   */\n      swap1\n      pop\n        /* \"#utility.yul\":7074:7083   */\n      dup2\n        /* \"#utility.yul\":7068:7072   */\n      dup2\n        /* \"#utility.yul\":7064:7084   */\n      sub\n        /* \"#utility.yul\":7060:7061   */\n      0x00\n        /* \"#utility.yul\":7049:7058   */\n      dup4\n        /* \"#utility.yul\":7045:7062   */\n      add\n        /* \"#utility.yul\":7038:7085   */\n      mstore\n        /* \"#utility.yul\":7102:7233   */\n      tag_187\n        /* \"#utility.yul\":7228:7232   */\n      dup2\n        /* \"#utility.yul\":7102:7233   */\n      tag_97\n      jump\t// in\n    tag_187:\n        /* \"#utility.yul\":7094:7233   */\n      swap1\n      pop\n        /* \"#utility.yul\":6821:7240   */\n      swap2\n      swap1\n      pop\n      jump\t// out\n        /* \"#utility.yul\":7246:7364   */\n    tag_98:\n        /* \"#utility.yul\":7333:7357   */\n      tag_189\n        /* \"#utility.yul\":7351:7356   */\n      dup2\n        /* \"#utility.yul\":7333:7357   */\n      tag_84\n      jump\t// in\n    tag_189:\n        /* \"#utility.yul\":7328:7331   */\n      dup3\n        /* \"#utility.yul\":7321:7358   */\n      mstore\n        /* \"#utility.yul\":7246:7364   */\n      pop\n      pop\n      jump\t// out\n        /* \"#utility.yul\":7370:7702   */\n    tag_27:\n        /* \"#utility.yul\":7491:7495   */\n      0x00\n        /* \"#utility.yul\":7529:7531   */\n      0x40\n        /* \"#utility.yul\":7518:7527   */\n      dup3\n        /* \"#utility.yul\":7514:7532   */\n      add\n        /* \"#utility.yul\":7506:7532   */\n      swap1\n      pop\n        /* \"#utility.yul\":7542:7613   */\n      tag_191\n        /* \"#utility.yul\":7610:7611   */\n      0x00\n        /* \"#utility.yul\":7599:7608   */\n      dup4\n        /* \"#utility.yul\":7595:7612   */\n      add\n        /* \"#utility.yul\":7586:7592   */\n      dup6\n        /* \"#utility.yul\":7542:7613   */\n      tag_98\n      jump\t// in\n    tag_191:\n        /* \"#utility.yul\":7623:7695   */\n      tag_192\n        /* \"#utility.yul\":7691:7693   */\n      0x20\n        /* \"#utility.yul\":7680:7689   */\n      dup4\n        /* \"#utility.yul\":7676:7694   */\n      add\n        /* \"#utility.yul\":7667:7673   */\n      dup5\n        /* \"#utility.yul\":7623:7695   */\n      tag_98\n      jump\t// in\n    tag_192:\n        /* \"#utility.yul\":7370:7702   */\n      swap4\n      swap3\n      pop\n      pop\n      pop\n      jump\t// out\n        /* \"#utility.yul\":7708:7830   */\n    tag_99:\n        /* \"#utility.yul\":7781:7805   */\n      tag_194\n        /* \"#utility.yul\":7799:7804   */\n      dup2\n        /* \"#utility.yul\":7781:7805   */\n      tag_93\n      jump\t// in\n    tag_194:\n        /* \"#utility.yul\":7774:7779   */\n      dup2\n        /* \"#utility.yul\":7771:7806   */\n      eq\n        /* \"#utility.yul\":7761:7824   */\n      tag_195\n      jumpi\n        /* \"#utility.yul\":7820:7821   */\n      0x00\n        /* \"#utility.yul\":7817:7818   */\n      dup1\n        /* \"#utility.yul\":7810:7822   */\n      revert\n        /* \"#utility.yul\":7761:7824   */\n    tag_195:\n        /* \"#utility.yul\":7708:7830   */\n      pop\n      jump\t// out\n        /* \"#utility.yul\":7836:7979   */\n    tag_100:\n        /* \"#utility.yul\":7893:7898   */\n      0x00\n        /* \"#utility.yul\":7924:7930   */\n      dup2\n        /* \"#utility.yul\":7918:7931   */\n      mload\n        /* \"#utility.yul\":7909:7931   */\n      swap1\n      pop\n        /* \"#utility.yul\":7940:7973   */\n      tag_197\n        /* \"#utility.yul\":7967:7972   */\n      dup2\n        /* \"#utility.yul\":7940:7973   */\n      tag_99\n      jump\t// in\n    tag_197:\n        /* \"#utility.yul\":7836:7979   */\n      swap3\n      swap2\n      pop\n      pop\n      jump\t// out\n        /* \"#utility.yul\":7985:8336   */\n    tag_31:\n        /* \"#utility.yul\":8055:8061   */\n      0x00\n        /* \"#utility.yul\":8104:8106   */\n      0x20\n        /* \"#utility.yul\":8092:8101   */\n      dup3\n        /* \"#utility.yul\":8083:8090   */\n      dup5\n        /* \"#utility.yul\":8079:8102   */\n      sub\n        /* \"#utility.yul\":8075:8107   */\n      slt\n        /* \"#utility.yul\":8072:8191   */\n      iszero\n      tag_199\n      jumpi\n        /* \"#utility.yul\":8110:8189   */\n      tag_200\n      tag_81\n      jump\t// in\n    tag_200:\n        /* \"#utility.yul\":8072:8191   */\n    tag_199:\n        /* \"#utility.yul\":8230:8231   */\n      0x00\n        /* \"#utility.yul\":8255:8319   */\n      tag_201\n        /* \"#utility.yul\":8311:8318   */\n      dup5\n        /* \"#utility.yul\":8302:8308   */\n      dup3\n        /* \"#utility.yul\":8291:8300   */\n      dup6\n        /* \"#utility.yul\":8287:8309   */\n      add\n        /* \"#utility.yul\":8255:8319   */\n      tag_100\n      jump\t// in\n    tag_201:\n        /* \"#utility.yul\":8245:8319   */\n      swap2\n      pop\n        /* \"#utility.yul\":8201:8329   */\n      pop\n        /* \"#utility.yul\":7985:8336   */\n      swap3\n      swap2\n      pop\n      pop\n      jump\t// out\n        /* \"#utility.yul\":8342:8516   */\n    tag_101:\n        /* \"#utility.yul\":8482:8508   */\n      0x4e65656420417070726f766520455243323020746f6b656e0000000000000000\n        /* \"#utility.yul\":8478:8479   */\n      0x00\n        /* \"#utility.yul\":8470:8476   */\n      dup3\n        /* \"#utility.yul\":8466:8480   */\n      add\n        /* \"#utility.yul\":8459:8509   */\n      mstore\n        /* \"#utility.yul\":8342:8516   */\n      pop\n      jump\t// out\n        /* \"#utility.yul\":8522:8888   */\n    tag_102:\n        /* \"#utility.yul\":8664:8667   */\n      0x00\n        /* \"#utility.yul\":8685:8752   */\n      tag_204\n        /* \"#utility.yul\":8749:8751   */\n      0x18\n        /* \"#utility.yul\":8744:8747   */\n      dup4\n        /* \"#utility.yul\":8685:8752   */\n      tag_95\n      jump\t// in\n    tag_204:\n        /* \"#utility.yul\":8678:8752   */\n      swap2\n      pop\n        /* \"#utility.yul\":8761:8854   */\n      tag_205\n        /* \"#utility.yul\":8850:8853   */\n      dup3\n        /* \"#utility.yul\":8761:8854   */\n      tag_101\n      jump\t// in\n    tag_205:\n        /* \"#utility.yul\":8879:8881   */\n      0x20\n        /* \"#utility.yul\":8874:8877   */\n      dup3\n        /* \"#utility.yul\":8870:8882   */\n      add\n        /* \"#utility.yul\":8863:8882   */\n      swap1\n      pop\n        /* \"#utility.yul\":8522:8888   */\n      swap2\n      swap1\n      pop\n      jump\t// out\n        /* \"#utility.yul\":8894:9313   */\n    tag_34:\n        /* \"#utility.yul\":9060:9064   */\n      0x00\n        /* \"#utility.yul\":9098:9100   */\n      0x20\n        /* \"#utility.yul\":9087:9096   */\n      dup3\n        /* \"#utility.yul\":9083:9101   */\n      add\n        /* \"#utility.yul\":9075:9101   */\n      swap1\n      pop\n        /* \"#utility.yul\":9147:9156   */\n      dup2\n        /* \"#utility.yul\":9141:9145   */\n      dup2\n        /* \"#utility.yul\":9137:9157   */\n      sub\n        /* \"#utility.yul\":9133:9134   */\n      0x00\n        /* \"#utility.yul\":9122:9131   */\n      dup4\n        /* \"#utility.yul\":9118:9135   */\n      add\n        /* \"#utility.yul\":9111:9158   */\n      mstore\n        /* \"#utility.yul\":9175:9306   */\n      tag_207\n        /* \"#utility.yul\":9301:9305   */\n      dup2\n        /* \"#utility.yul\":9175:9306   */\n      tag_102\n      jump\t// in\n    tag_207:\n        /* \"#utility.yul\":9167:9306   */\n      swap1\n      pop\n        /* \"#utility.yul\":8894:9313   */\n      swap2\n      swap1\n      pop\n      jump\t// out\n        /* \"#utility.yul\":9319:9499   */\n    tag_40:\n        /* \"#utility.yul\":9367:9444   */\n      0x4e487b7100000000000000000000000000000000000000000000000000000000\n        /* \"#utility.yul\":9364:9365   */\n      0x00\n        /* \"#utility.yul\":9357:9445   */\n      mstore\n        /* \"#utility.yul\":9464:9468   */\n      0x32\n        /* \"#utility.yul\":9461:9462   */\n      0x04\n        /* \"#utility.yul\":9454:9469   */\n      mstore\n        /* \"#utility.yul\":9488:9492   */\n      0x24\n        /* \"#utility.yul\":9485:9486   */\n      0x00\n        /* \"#utility.yul\":9478:9493   */\n      revert\n        /* \"#utility.yul\":9505:9834   */\n    tag_42:\n        /* \"#utility.yul\":9564:9570   */\n      0x00\n        /* \"#utility.yul\":9613:9615   */\n      0x20\n        /* \"#utility.yul\":9601:9610   */\n      dup3\n        /* \"#utility.yul\":9592:9599   */\n      dup5\n        /* \"#utility.yul\":9588:9611   */\n      sub\n        /* \"#utility.yul\":9584:9616   */\n      slt\n        /* \"#utility.yul\":9581:9700   */\n      iszero\n      tag_210\n      jumpi\n        /* \"#utility.yul\":9619:9698   */\n      tag_211\n      tag_81\n      jump\t// in\n    tag_211:\n        /* \"#utility.yul\":9581:9700   */\n    tag_210:\n        /* \"#utility.yul\":9739:9740   */\n      0x00\n        /* \"#utility.yul\":9764:9817   */\n      tag_212\n        /* \"#utility.yul\":9809:9816   */\n      dup5\n        /* \"#utility.yul\":9800:9806   */\n      dup3\n        /* \"#utility.yul\":9789:9798   */\n      dup6\n        /* \"#utility.yul\":9785:9807   */\n      add\n        /* \"#utility.yul\":9764:9817   */\n      tag_86\n      jump\t// in\n    tag_212:\n        /* \"#utility.yul\":9754:9817   */\n      swap2\n      pop\n        /* \"#utility.yul\":9710:9827   */\n      pop\n        /* \"#utility.yul\":9505:9834   */\n      swap3\n      swap2\n      pop\n      pop\n      jump\t// out\n        /* \"#utility.yul\":9840:10282   */\n    tag_46:\n        /* \"#utility.yul\":9989:9993   */\n      0x00\n        /* \"#utility.yul\":10027:10029   */\n      0x60\n        /* \"#utility.yul\":10016:10025   */\n      dup3\n        /* \"#utility.yul\":10012:10030   */\n      add\n        /* \"#utility.yul\":10004:10030   */\n      swap1\n      pop\n        /* \"#utility.yul\":10040:10111   */\n      tag_214\n        /* \"#utility.yul\":10108:10109   */\n      0x00\n        /* \"#utility.yul\":10097:10106   */\n      dup4\n        /* \"#utility.yul\":10093:10110   */\n      add\n        /* \"#utility.yul\":10084:10090   */\n      dup7\n        /* \"#utility.yul\":10040:10111   */\n      tag_98\n      jump\t// in\n    tag_214:\n        /* \"#utility.yul\":10121:10193   */\n      tag_215\n        /* \"#utility.yul\":10189:10191   */\n      0x20\n        /* \"#utility.yul\":10178:10187   */\n      dup4\n        /* \"#utility.yul\":10174:10192   */\n      add\n        /* \"#utility.yul\":10165:10171   */\n      dup6\n        /* \"#utility.yul\":10121:10193   */\n      tag_98\n      jump\t// in\n    tag_215:\n        /* \"#utility.yul\":10203:10275   */\n      tag_216\n        /* \"#utility.yul\":10271:10273   */\n      0x40\n        /* \"#utility.yul\":10260:10269   */\n      dup4\n        /* \"#utility.yul\":10256:10274   */\n      add\n        /* \"#utility.yul\":10247:10253   */\n      dup5\n        /* \"#utility.yul\":10203:10275   */\n      tag_94\n      jump\t// in\n    tag_216:\n        /* \"#utility.yul\":9840:10282   */\n      swap5\n      swap4\n      pop\n      pop\n      pop\n      pop\n      jump\t// out\n        /* \"#utility.yul\":10288:10378   */\n    tag_103:\n        /* \"#utility.yul\":10322:10329   */\n      0x00\n        /* \"#utility.yul\":10365:10370   */\n      dup2\n        /* \"#utility.yul\":10358:10371   */\n      iszero\n        /* \"#utility.yul\":10351:10372   */\n      iszero\n        /* \"#utility.yul\":10340:10372   */\n      swap1\n      pop\n        /* \"#utility.yul\":10288:10378   */\n      swap2\n      swap1\n      pop\n      jump\t// out\n        /* \"#utility.yul\":10384:10500   */\n    tag_104:\n        /* \"#utility.yul\":10454:10475   */\n      tag_219\n        /* \"#utility.yul\":10469:10474   */\n      dup2\n        /* \"#utility.yul\":10454:10475   */\n      tag_103\n      jump\t// in\n    tag_219:\n        /* \"#utility.yul\":10447:10452   */\n      dup2\n        /* \"#utility.yul\":10444:10476   */\n      eq\n        /* \"#utility.yul\":10434:10494   */\n      tag_220\n      jumpi\n        /* \"#utility.yul\":10490:10491   */\n      0x00\n        /* \"#utility.yul\":10487:10488   */\n      dup1\n        /* \"#utility.yul\":10480:10492   */\n      revert\n        /* \"#utility.yul\":10434:10494   */\n    tag_220:\n        /* \"#utility.yul\":10384:10500   */\n      pop\n      jump\t// out\n        /* \"#utility.yul\":10506:10643   */\n    tag_105:\n        /* \"#utility.yul\":10560:10565   */\n      0x00\n        /* \"#utility.yul\":10591:10597   */\n      dup2\n        /* \"#utility.yul\":10585:10598   */\n      mload\n        /* \"#utility.yul\":10576:10598   */\n      swap1\n      pop\n        /* \"#utility.yul\":10607:10637   */\n      tag_222\n        /* \"#utility.yul\":10631:10636   */\n      dup2\n        /* \"#utility.yul\":10607:10637   */\n      tag_104\n      jump\t// in\n    tag_222:\n        /* \"#utility.yul\":10506:10643   */\n      swap3\n      swap2\n      pop\n      pop\n      jump\t// out\n        /* \"#utility.yul\":10649:10994   */\n    tag_50:\n        /* \"#utility.yul\":10716:10722   */\n      0x00\n        /* \"#utility.yul\":10765:10767   */\n      0x20\n        /* \"#utility.yul\":10753:10762   */\n      dup3\n        /* \"#utility.yul\":10744:10751   */\n      dup5\n        /* \"#utility.yul\":10740:10763   */\n      sub\n        /* \"#utility.yul\":10736:10768   */\n      slt\n        /* \"#utility.yul\":10733:10852   */\n      iszero\n      tag_224\n      jumpi\n        /* \"#utility.yul\":10771:10850   */\n      tag_225\n      tag_81\n      jump\t// in\n    tag_225:\n        /* \"#utility.yul\":10733:10852   */\n    tag_224:\n        /* \"#utility.yul\":10891:10892   */\n      0x00\n        /* \"#utility.yul\":10916:10977   */\n      tag_226\n        /* \"#utility.yul\":10969:10976   */\n      dup5\n        /* \"#utility.yul\":10960:10966   */\n      dup3\n        /* \"#utility.yul\":10949:10958   */\n      dup6\n        /* \"#utility.yul\":10945:10967   */\n      add\n        /* \"#utility.yul\":10916:10977   */\n      tag_105\n      jump\t// in\n    tag_226:\n        /* \"#utility.yul\":10906:10977   */\n      swap2\n      pop\n        /* \"#utility.yul\":10862:10987   */\n      pop\n        /* \"#utility.yul\":10649:10994   */\n      swap3\n      swap2\n      pop\n      pop\n      jump\t// out\n        /* \"#utility.yul\":11000:11180   */\n    tag_106:\n        /* \"#utility.yul\":11048:11125   */\n      0x4e487b7100000000000000000000000000000000000000000000000000000000\n        /* \"#utility.yul\":11045:11046   */\n      0x00\n        /* \"#utility.yul\":11038:11126   */\n      mstore\n        /* \"#utility.yul\":11145:11149   */\n      0x11\n        /* \"#utility.yul\":11142:11143   */\n      0x04\n        /* \"#utility.yul\":11135:11150   */\n      mstore\n        /* \"#utility.yul\":11169:11173   */\n      0x24\n        /* \"#utility.yul\":11166:11167   */\n      0x00\n        /* \"#utility.yul\":11159:11174   */\n      revert\n        /* \"#utility.yul\":11186:11272   */\n    tag_107:\n        /* \"#utility.yul\":11221:11228   */\n      0x00\n        /* \"#utility.yul\":11261:11265   */\n      0xff\n        /* \"#utility.yul\":11254:11259   */\n      dup3\n        /* \"#utility.yul\":11250:11266   */\n      and\n        /* \"#utility.yul\":11239:11266   */\n      swap1\n      pop\n        /* \"#utility.yul\":11186:11272   */\n      swap2\n      swap1\n      pop\n      jump\t// out\n        /* \"#utility.yul\":11278:11445   */\n    tag_52:\n        /* \"#utility.yul\":11315:11318   */\n      0x00\n        /* \"#utility.yul\":11338:11360   */\n      tag_230\n        /* \"#utility.yul\":11354:11359   */\n      dup3\n        /* \"#utility.yul\":11338:11360   */\n      tag_107\n      jump\t// in\n    tag_230:\n        /* \"#utility.yul\":11329:11360   */\n      swap2\n      pop\n        /* \"#utility.yul\":11382:11386   */\n      0xff\n        /* \"#utility.yul\":11375:11380   */\n      dup3\n        /* \"#utility.yul\":11372:11387   */\n      sub\n        /* \"#utility.yul\":11369:11410   */\n      tag_231\n      jumpi\n        /* \"#utility.yul\":11390:11408   */\n      tag_232\n      tag_106\n      jump\t// in\n    tag_232:\n        /* \"#utility.yul\":11369:11410   */\n    tag_231:\n        /* \"#utility.yul\":11437:11438   */\n      0x01\n        /* \"#utility.yul\":11430:11435   */\n      dup3\n        /* \"#utility.yul\":11426:11439   */\n      add\n        /* \"#utility.yul\":11419:11439   */\n      swap1\n      pop\n        /* \"#utility.yul\":11278:11445   */\n      swap2\n      swap1\n      pop\n      jump\t// out\n        /* \"#utility.yul\":11451:11680   */\n    tag_108:\n        /* \"#utility.yul\":11591:11625   */\n      0x4c656e67746873206f662041646472657373657320616e6420416d6f756e7473\n        /* \"#utility.yul\":11587:11588   */\n      0x00\n        /* \"#utility.yul\":11579:11585   */\n      dup3\n        /* \"#utility.yul\":11575:11589   */\n      add\n        /* \"#utility.yul\":11568:11626   */\n      mstore\n        /* \"#utility.yul\":11660:11672   */\n      0x204e4f5420455155414c00000000000000000000000000000000000000000000\n        /* \"#utility.yul\":11655:11657   */\n      0x20\n        /* \"#utility.yul\":11647:11653   */\n      dup3\n        /* \"#utility.yul\":11643:11658   */\n      add\n        /* \"#utility.yul\":11636:11673   */\n      mstore\n        /* \"#utility.yul\":11451:11680   */\n      pop\n      jump\t// out\n        /* \"#utility.yul\":11686:12052   */\n    tag_109:\n        /* \"#utility.yul\":11828:11831   */\n      0x00\n        /* \"#utility.yul\":11849:11916   */\n      tag_235\n        /* \"#utility.yul\":11913:11915   */\n      0x2a\n        /* \"#utility.yul\":11908:11911   */\n      dup4\n        /* \"#utility.yul\":11849:11916   */\n      tag_95\n      jump\t// in\n    tag_235:\n        /* \"#utility.yul\":11842:11916   */\n      swap2\n      pop\n        /* \"#utility.yul\":11925:12018   */\n      tag_236\n        /* \"#utility.yul\":12014:12017   */\n      dup3\n        /* \"#utility.yul\":11925:12018   */\n      tag_108\n      jump\t// in\n    tag_236:\n        /* \"#utility.yul\":12043:12045   */\n      0x40\n        /* \"#utility.yul\":12038:12041   */\n      dup3\n        /* \"#utility.yul\":12034:12046   */\n      add\n        /* \"#utility.yul\":12027:12046   */\n      swap1\n      pop\n        /* \"#utility.yul\":11686:12052   */\n      swap2\n      swap1\n      pop\n      jump\t// out\n        /* \"#utility.yul\":12058:12477   */\n    tag_56:\n        /* \"#utility.yul\":12224:12228   */\n      0x00\n        /* \"#utility.yul\":12262:12264   */\n      0x20\n        /* \"#utility.yul\":12251:12260   */\n      dup3\n        /* \"#utility.yul\":12247:12265   */\n      add\n        /* \"#utility.yul\":12239:12265   */\n      swap1\n      pop\n        /* \"#utility.yul\":12311:12320   */\n      dup2\n        /* \"#utility.yul\":12305:12309   */\n      dup2\n        /* \"#utility.yul\":12301:12321   */\n      sub\n        /* \"#utility.yul\":12297:12298   */\n      0x00\n        /* \"#utility.yul\":12286:12295   */\n      dup4\n        /* \"#utility.yul\":12282:12299   */\n      add\n        /* \"#utility.yul\":12275:12322   */\n      mstore\n        /* \"#utility.yul\":12339:12470   */\n      tag_238\n        /* \"#utility.yul\":12465:12469   */\n      dup2\n        /* \"#utility.yul\":12339:12470   */\n      tag_109\n      jump\t// in\n    tag_238:\n        /* \"#utility.yul\":12331:12470   */\n      swap1\n      pop\n        /* \"#utility.yul\":12058:12477   */\n      swap2\n      swap1\n      pop\n      jump\t// out\n        /* \"#utility.yul\":12483:12654   */\n    tag_110:\n        /* \"#utility.yul\":12623:12646   */\n      0x5472616e7366657220616d6f756e74206572726f720000000000000000000000\n        /* \"#utility.yul\":12619:12620   */\n      0x00\n        /* \"#utility.yul\":12611:12617   */\n      dup3\n        /* \"#utility.yul\":12607:12621   */\n      add\n        /* \"#utility.yul\":12600:12647   */\n      mstore\n        /* \"#utility.yul\":12483:12654   */\n      pop\n      jump\t// out\n        /* \"#utility.yul\":12660:13026   */\n    tag_111:\n        /* \"#utility.yul\":12802:12805   */\n      0x00\n        /* \"#utility.yul\":12823:12890   */\n      tag_241\n        /* \"#utility.yul\":12887:12889   */\n      0x15\n        /* \"#utility.yul\":12882:12885   */\n      dup4\n        /* \"#utility.yul\":12823:12890   */\n      tag_95\n      jump\t// in\n    tag_241:\n        /* \"#utility.yul\":12816:12890   */\n      swap2\n      pop\n        /* \"#utility.yul\":12899:12992   */\n      tag_242\n        /* \"#utility.yul\":12988:12991   */\n      dup3\n        /* \"#utility.yul\":12899:12992   */\n      tag_110\n      jump\t// in\n    tag_242:\n        /* \"#utility.yul\":13017:13019   */\n      0x20\n        /* \"#utility.yul\":13012:13015   */\n      dup3\n        /* \"#utility.yul\":13008:13020   */\n      add\n        /* \"#utility.yul\":13001:13020   */\n      swap1\n      pop\n        /* \"#utility.yul\":12660:13026   */\n      swap2\n      swap1\n      pop\n      jump\t// out\n        /* \"#utility.yul\":13032:13451   */\n    tag_60:\n        /* \"#utility.yul\":13198:13202   */\n      0x00\n        /* \"#utility.yul\":13236:13238   */\n      0x20\n        /* \"#utility.yul\":13225:13234   */\n      dup3\n        /* \"#utility.yul\":13221:13239   */\n      add\n        /* \"#utility.yul\":13213:13239   */\n      swap1\n      pop\n        /* \"#utility.yul\":13285:13294   */\n      dup2\n        /* \"#utility.yul\":13279:13283   */\n      dup2\n        /* \"#utility.yul\":13275:13295   */\n      sub\n        /* \"#utility.yul\":13271:13272   */\n      0x00\n        /* \"#utility.yul\":13260:13269   */\n      dup4\n        /* \"#utility.yul\":13256:13273   */\n      add\n        /* \"#utility.yul\":13249:13296   */\n      mstore\n        /* \"#utility.yul\":13313:13444   */\n      tag_244\n        /* \"#utility.yul\":13439:13443   */\n      dup2\n        /* \"#utility.yul\":13313:13444   */\n      tag_111\n      jump\t// in\n    tag_244:\n        /* \"#utility.yul\":13305:13444   */\n      swap1\n      pop\n        /* \"#utility.yul\":13032:13451   */\n      swap2\n      swap1\n      pop\n      jump\t// out\n        /* \"#utility.yul\":13457:13561   */\n    tag_112:\n        /* \"#utility.yul\":13502:13509   */\n      0x00\n        /* \"#utility.yul\":13531:13555   */\n      tag_246\n        /* \"#utility.yul\":13549:13554   */\n      dup3\n        /* \"#utility.yul\":13531:13555   */\n      tag_83\n      jump\t// in\n    tag_246:\n        /* \"#utility.yul\":13520:13555   */\n      swap1\n      pop\n        /* \"#utility.yul\":13457:13561   */\n      swap2\n      swap1\n      pop\n      jump\t// out\n        /* \"#utility.yul\":13567:13705   */\n    tag_113:\n        /* \"#utility.yul\":13648:13680   */\n      tag_248\n        /* \"#utility.yul\":13674:13679   */\n      dup2\n        /* \"#utility.yul\":13648:13680   */\n      tag_112\n      jump\t// in\n    tag_248:\n        /* \"#utility.yul\":13641:13646   */\n      dup2\n        /* \"#utility.yul\":13638:13681   */\n      eq\n        /* \"#utility.yul\":13628:13699   */\n      tag_249\n      jumpi\n        /* \"#utility.yul\":13695:13696   */\n      0x00\n        /* \"#utility.yul\":13692:13693   */\n      dup1\n        /* \"#utility.yul\":13685:13697   */\n      revert\n        /* \"#utility.yul\":13628:13699   */\n    tag_249:\n        /* \"#utility.yul\":13567:13705   */\n      pop\n      jump\t// out\n        /* \"#utility.yul\":13711:13866   */\n    tag_114:\n        /* \"#utility.yul\":13765:13770   */\n      0x00\n        /* \"#utility.yul\":13803:13809   */\n      dup2\n        /* \"#utility.yul\":13790:13810   */\n      calldataload\n        /* \"#utility.yul\":13781:13810   */\n      swap1\n      pop\n        /* \"#utility.yul\":13819:13860   */\n      tag_251\n        /* \"#utility.yul\":13854:13859   */\n      dup2\n        /* \"#utility.yul\":13819:13860   */\n      tag_113\n      jump\t// in\n    tag_251:\n        /* \"#utility.yul\":13711:13866   */\n      swap3\n      swap2\n      pop\n      pop\n      jump\t// out\n        /* \"#utility.yul\":13872:14217   */\n    tag_67:\n        /* \"#utility.yul\":13939:13945   */\n      0x00\n        /* \"#utility.yul\":13988:13990   */\n      0x20\n        /* \"#utility.yul\":13976:13985   */\n      dup3\n        /* \"#utility.yul\":13967:13974   */\n      dup5\n        /* \"#utility.yul\":13963:13986   */\n      sub\n        /* \"#utility.yul\":13959:13991   */\n      slt\n        /* \"#utility.yul\":13956:14075   */\n      iszero\n      tag_253\n      jumpi\n        /* \"#utility.yul\":13994:14073   */\n      tag_254\n      tag_81\n      jump\t// in\n    tag_254:\n        /* \"#utility.yul\":13956:14075   */\n    tag_253:\n        /* \"#utility.yul\":14114:14115   */\n      0x00\n        /* \"#utility.yul\":14139:14200   */\n      tag_255\n        /* \"#utility.yul\":14192:14199   */\n      dup5\n        /* \"#utility.yul\":14183:14189   */\n      dup3\n        /* \"#utility.yul\":14172:14181   */\n      dup6\n        /* \"#utility.yul\":14168:14190   */\n      add\n        /* \"#utility.yul\":14139:14200   */\n      tag_114\n      jump\t// in\n    tag_255:\n        /* \"#utility.yul\":14129:14200   */\n      swap2\n      pop\n        /* \"#utility.yul\":14085:14210   */\n      pop\n        /* \"#utility.yul\":13872:14217   */\n      swap3\n      swap2\n      pop\n      pop\n      jump\t// out\n        /* \"#utility.yul\":14223:14414   */\n    tag_79:\n        /* \"#utility.yul\":14263:14266   */\n      0x00\n        /* \"#utility.yul\":14282:14302   */\n      tag_257\n        /* \"#utility.yul\":14300:14301   */\n      dup3\n        /* \"#utility.yul\":14282:14302   */\n      tag_93\n      jump\t// in\n    tag_257:\n        /* \"#utility.yul\":14277:14302   */\n      swap2\n      pop\n        /* \"#utility.yul\":14316:14336   */\n      tag_258\n        /* \"#utility.yul\":14334:14335   */\n      dup4\n        /* \"#utility.yul\":14316:14336   */\n      tag_93\n      jump\t// in\n    tag_258:\n        /* \"#utility.yul\":14311:14336   */\n      swap3\n      pop\n        /* \"#utility.yul\":14359:14360   */\n      dup3\n        /* \"#utility.yul\":14356:14357   */\n      dup3\n        /* \"#utility.yul\":14352:14361   */\n      add\n        /* \"#utility.yul\":14345:14361   */\n      swap1\n      pop\n        /* \"#utility.yul\":14380:14383   */\n      dup1\n        /* \"#utility.yul\":14377:14378   */\n      dup3\n        /* \"#utility.yul\":14374:14384   */\n      gt\n        /* \"#utility.yul\":14371:14407   */\n      iszero\n      tag_259\n      jumpi\n        /* \"#utility.yul\":14387:14405   */\n      tag_260\n      tag_106\n      jump\t// in\n    tag_260:\n        /* \"#utility.yul\":14371:14407   */\n    tag_259:\n        /* \"#utility.yul\":14223:14414   */\n      swap3\n      swap2\n      pop\n      pop\n      jump\t// out\n\n    auxdata: 0xa2646970667358221220dcd276301b65d695daa1be56e0d5cd4f18e01ce5c93de060b0781af4982b557564736f6c63430008190033\n}\n",
				"bytecode": {
					"linkReferences": {},
					"object": "6080604052348015600e575f80fd5b50610be28061001c5f395ff3fe608060405260043610610033575f3560e01c806341ed24a21461003757806377988cf81461005f578063ccb8c1e01461007b575b5f80fd5b348015610042575f80fd5b5061005d6004803603810190610058919061055e565b6100b7565b005b61007960048036038101906100749190610644565b6102bd565b005b348015610086575f80fd5b506100a1600480360381019061009c91906106c2565b6103fa565b6040516100ae9190610725565b60405180910390f35b8181905084849050146100ff576040517f08c379a00000000000000000000000000000000000000000000000000000000081526004016100f6906107be565b60405180910390fd5b5f8590505f61010e84846103fa565b9050808273ffffffffffffffffffffffffffffffffffffffff1663dd62ed3e33306040518363ffffffff1660e01b815260040161014c9291906107eb565b602060405180830381865afa158015610167573d5f803e3d5ffd5b505050506040513d601f19601f8201168201806040525081019061018b919061083c565b10156101cc576040517f08c379a00000000000000000000000000000000000000000000000000000000081526004016101c3906108b1565b60405180910390fd5b5f5b868690508160ff1610156102b3578273ffffffffffffffffffffffffffffffffffffffff166323b872dd3389898560ff1681811061020f5761020e6108cf565b5b905060200201602081019061022491906108fc565b88888660ff1681811061023a576102396108cf565b5b905060200201356040518463ffffffff1660e01b815260040161025f93929190610927565b6020604051808303815f875af115801561027b573d5f803e3d5ffd5b505050506040513d601f19601f8201168201806040525081019061029f9190610991565b5080806102ab906109f5565b9150506101ce565b5050505050505050565b818190508484905014610305576040517f08c379a00000000000000000000000000000000000000000000000000000000081526004016102fc90610a8d565b60405180910390fd5b5f61031083836103fa565b9050803414610354576040517f08c379a000000000000000000000000000000000000000000000000000000000815260040161034b90610af5565b60405180910390fd5b5f5b858590508110156103f257858582818110610374576103736108cf565b5b90506020020160208101906103899190610b4e565b73ffffffffffffffffffffffffffffffffffffffff166108fc8585848181106103b5576103b46108cf565b5b9050602002013590811502906040515f60405180830381858888f193505050501580156103e4573d5f803e3d5ffd5b508080600101915050610356565b505050505050565b5f805f90505b8383905081101561043f5783838281811061041e5761041d6108cf565b5b90506020020135826104309190610b79565b91508080600101915050610400565b5092915050565b5f80fd5b5f80fd5b5f73ffffffffffffffffffffffffffffffffffffffff82169050919050565b5f6104778261044e565b9050919050565b6104878161046d565b8114610491575f80fd5b50565b5f813590506104a28161047e565b92915050565b5f80fd5b5f80fd5b5f80fd5b5f8083601f8401126104c9576104c86104a8565b5b8235905067ffffffffffffffff8111156104e6576104e56104ac565b5b602083019150836020820283011115610502576105016104b0565b5b9250929050565b5f8083601f84011261051e5761051d6104a8565b5b8235905067ffffffffffffffff81111561053b5761053a6104ac565b5b602083019150836020820283011115610557576105566104b0565b5b9250929050565b5f805f805f6060868803121561057757610576610446565b5b5f61058488828901610494565b955050602086013567ffffffffffffffff8111156105a5576105a461044a565b5b6105b1888289016104b4565b9450945050604086013567ffffffffffffffff8111156105d4576105d361044a565b5b6105e088828901610509565b92509250509295509295909350565b5f8083601f840112610604576106036104a8565b5b8235905067ffffffffffffffff811115610621576106206104ac565b5b60208301915083602082028301111561063d5761063c6104b0565b5b9250929050565b5f805f806040858703121561065c5761065b610446565b5b5f85013567ffffffffffffffff8111156106795761067861044a565b5b610685878288016105ef565b9450945050602085013567ffffffffffffffff8111156106a8576106a761044a565b5b6106b487828801610509565b925092505092959194509250565b5f80602083850312156106d8576106d7610446565b5b5f83013567ffffffffffffffff8111156106f5576106f461044a565b5b61070185828601610509565b92509250509250929050565b5f819050919050565b61071f8161070d565b82525050565b5f6020820190506107385f830184610716565b92915050565b5f82825260208201905092915050565b7f4c656e67746873206f6620526563656976657320616e6420416d6f756e7473205f8201527f4e4f5420455155414c0000000000000000000000000000000000000000000000602082015250565b5f6107a860298361073e565b91506107b38261074e565b604082019050919050565b5f6020820190508181035f8301526107d58161079c565b9050919050565b6107e58161046d565b82525050565b5f6040820190506107fe5f8301856107dc565b61080b60208301846107dc565b9392505050565b61081b8161070d565b8114610825575f80fd5b50565b5f8151905061083681610812565b92915050565b5f6020828403121561085157610850610446565b5b5f61085e84828501610828565b91505092915050565b7f4e65656420417070726f766520455243323020746f6b656e00000000000000005f82015250565b5f61089b60188361073e565b91506108a682610867565b602082019050919050565b5f6020820190508181035f8301526108c88161088f565b9050919050565b7f4e487b71000000000000000000000000000000000000000000000000000000005f52603260045260245ffd5b5f6020828403121561091157610910610446565b5b5f61091e84828501610494565b91505092915050565b5f60608201905061093a5f8301866107dc565b61094760208301856107dc565b6109546040830184610716565b949350505050565b5f8115159050919050565b6109708161095c565b811461097a575f80fd5b50565b5f8151905061098b81610967565b92915050565b5f602082840312156109a6576109a5610446565b5b5f6109b38482850161097d565b91505092915050565b7f4e487b71000000000000000000000000000000000000000000000000000000005f52601160045260245ffd5b5f60ff82169050919050565b5f6109ff826109e9565b915060ff8203610a1257610a116109bc565b5b600182019050919050565b7f4c656e67746873206f662041646472657373657320616e6420416d6f756e74735f8201527f204e4f5420455155414c00000000000000000000000000000000000000000000602082015250565b5f610a77602a8361073e565b9150610a8282610a1d565b604082019050919050565b5f6020820190508181035f830152610aa481610a6b565b9050919050565b7f5472616e7366657220616d6f756e74206572726f7200000000000000000000005f82015250565b5f610adf60158361073e565b9150610aea82610aab565b602082019050919050565b5f6020820190508181035f830152610b0c81610ad3565b9050919050565b5f610b1d8261044e565b9050919050565b610b2d81610b13565b8114610b37575f80fd5b50565b5f81359050610b4881610b24565b92915050565b5f60208284031215610b6357610b62610446565b5b5f610b7084828501610b3a565b91505092915050565b5f610b838261070d565b9150610b8e8361070d565b9250828201905080821115610ba657610ba56109bc565b5b9291505056fea2646970667358221220dcd276301b65d695daa1be56e0d5cd4f18e01ce5c93de060b0781af4982b557564736f6c63430008190033",
					"opcodes": "PUSH1 0x80 PUSH1 0x40 MSTORE CALLVALUE DUP1 ISZERO PUSH1 0xE JUMPI PUSH0 DUP1 REVERT JUMPDEST POP PUSH2 0xBE2 DUP1 PUSH2 0x1C PUSH0 CODECOPY PUSH0 RETURN INVALID PUSH1 0x80 PUSH1 0x40 MSTORE PUSH1 0x4 CALLDATASIZE LT PUSH2 0x33 JUMPI PUSH0 CALLDATALOAD PUSH1 0xE0 SHR DUP1 PUSH4 0x41ED24A2 EQ PUSH2 0x37 JUMPI DUP1 PUSH4 0x77988CF8 EQ PUSH2 0x5F JUMPI DUP1 PUSH4 0xCCB8C1E0 EQ PUSH2 0x7B JUMPI JUMPDEST PUSH0 DUP1 REVERT JUMPDEST CALLVALUE DUP1 ISZERO PUSH2 0x42 JUMPI PUSH0 DUP1 REVERT JUMPDEST POP PUSH2 0x5D PUSH1 0x4 DUP1 CALLDATASIZE SUB DUP2 ADD SWAP1 PUSH2 0x58 SWAP2 SWAP1 PUSH2 0x55E JUMP JUMPDEST PUSH2 0xB7 JUMP JUMPDEST STOP JUMPDEST PUSH2 0x79 PUSH1 0x4 DUP1 CALLDATASIZE SUB DUP2 ADD SWAP1 PUSH2 0x74 SWAP2 SWAP1 PUSH2 0x644 JUMP JUMPDEST PUSH2 0x2BD JUMP JUMPDEST STOP JUMPDEST CALLVALUE DUP1 ISZERO PUSH2 0x86 JUMPI PUSH0 DUP1 REVERT JUMPDEST POP PUSH2 0xA1 PUSH1 0x4 DUP1 CALLDATASIZE SUB DUP2 ADD SWAP1 PUSH2 0x9C SWAP2 SWAP1 PUSH2 0x6C2 JUMP JUMPDEST PUSH2 0x3FA JUMP JUMPDEST PUSH1 0x40 MLOAD PUSH2 0xAE SWAP2 SWAP1 PUSH2 0x725 JUMP JUMPDEST PUSH1 0x40 MLOAD DUP1 SWAP2 SUB SWAP1 RETURN JUMPDEST DUP2 DUP2 SWAP1 POP DUP5 DUP5 SWAP1 POP EQ PUSH2 0xFF JUMPI PUSH1 0x40 MLOAD PUSH32 0x8C379A000000000000000000000000000000000000000000000000000000000 DUP2 MSTORE PUSH1 0x4 ADD PUSH2 0xF6 SWAP1 PUSH2 0x7BE JUMP JUMPDEST PUSH1 0x40 MLOAD DUP1 SWAP2 SUB SWAP1 REVERT JUMPDEST PUSH0 DUP6 SWAP1 POP PUSH0 PUSH2 0x10E DUP5 DUP5 PUSH2 0x3FA JUMP JUMPDEST SWAP1 POP DUP1 DUP3 PUSH20 0xFFFFFFFFFFFFFFFFFFFFFFFFFFFFFFFFFFFFFFFF AND PUSH4 0xDD62ED3E CALLER ADDRESS PUSH1 0x40 MLOAD DUP4 PUSH4 0xFFFFFFFF AND PUSH1 0xE0 SHL DUP2 MSTORE PUSH1 0x4 ADD PUSH2 0x14C SWAP3 SWAP2 SWAP1 PUSH2 0x7EB JUMP JUMPDEST PUSH1 0x20 PUSH1 0x40 MLOAD DUP1 DUP4 SUB DUP2 DUP7 GAS STATICCALL ISZERO DUP1 ISZERO PUSH2 0x167 JUMPI RETURNDATASIZE PUSH0 DUP1 RETURNDATACOPY RETURNDATASIZE PUSH0 REVERT JUMPDEST POP POP POP POP PUSH1 0x40 MLOAD RETURNDATASIZE PUSH1 0x1F NOT PUSH1 0x1F DUP3 ADD AND DUP3 ADD DUP1 PUSH1 0x40 MSTORE POP DUP2 ADD SWAP1 PUSH2 0x18B SWAP2 SWAP1 PUSH2 0x83C JUMP JUMPDEST LT ISZERO PUSH2 0x1CC JUMPI PUSH1 0x40 MLOAD PUSH32 0x8C379A000000000000000000000000000000000000000000000000000000000 DUP2 MSTORE PUSH1 0x4 ADD PUSH2 0x1C3 SWAP1 PUSH2 0x8B1 JUMP JUMPDEST PUSH1 0x40 MLOAD DUP1 SWAP2 SUB SWAP1 REVERT JUMPDEST PUSH0 JUMPDEST DUP7 DUP7 SWAP1 POP DUP2 PUSH1 0xFF AND LT ISZERO PUSH2 0x2B3 JUMPI DUP3 PUSH20 0xFFFFFFFFFFFFFFFFFFFFFFFFFFFFFFFFFFFFFFFF AND PUSH4 0x23B872DD CALLER DUP10 DUP10 DUP6 PUSH1 0xFF AND DUP2 DUP2 LT PUSH2 0x20F JUMPI PUSH2 0x20E PUSH2 0x8CF JUMP JUMPDEST JUMPDEST SWAP1 POP PUSH1 0x20 MUL ADD PUSH1 0x20 DUP2 ADD SWAP1 PUSH2 0x224 SWAP2 SWAP1 PUSH2 0x8FC JUMP JUMPDEST DUP9 DUP9 DUP7 PUSH1 0xFF AND DUP2 DUP2 LT PUSH2 0x23A JUMPI PUSH2 0x239 PUSH2 0x8CF JUMP JUMPDEST JUMPDEST SWAP1 POP PUSH1 0x20 MUL ADD CALLDATALOAD PUSH1 0x40 MLOAD DUP5 PUSH4 0xFFFFFFFF AND PUSH1 0xE0 SHL DUP2 MSTORE PUSH1 0x4 ADD PUSH2 0x25F SWAP4 SWAP3 SWAP2 SWAP1 PUSH2 0x927 JUMP JUMPDEST PUSH1 0x20 PUSH1 0x40 MLOAD DUP1 DUP4 SUB DUP2 PUSH0 DUP8 GAS CALL ISZERO DUP1 ISZERO PUSH2 0x27B JUMPI RETURNDATASIZE PUSH0 DUP1 RETURNDATACOPY RETURNDATASIZE PUSH0 REVERT JUMPDEST POP POP POP POP PUSH1 0x40 MLOAD RETURNDATASIZE PUSH1 0x1F NOT PUSH1 0x1F DUP3 ADD AND DUP3 ADD DUP1 PUSH1 0x40 MSTORE POP DUP2 ADD SWAP1 PUSH2 0x29F SWAP2 SWAP1 PUSH2 0x991 JUMP JUMPDEST POP DUP1 DUP1 PUSH2 0x2AB SWAP1 PUSH2 0x9F5 JUMP JUMPDEST SWAP2 POP POP PUSH2 0x1CE JUMP JUMPDEST POP POP POP POP POP POP POP POP JUMP JUMPDEST DUP2 DUP2 SWAP1 POP DUP5 DUP5 SWAP1 POP EQ PUSH2 0x305 JUMPI PUSH1 0x40 MLOAD PUSH32 0x8C379A000000000000000000000000000000000000000000000000000000000 DUP2 MSTORE PUSH1 0x4 ADD PUSH2 0x2FC SWAP1 PUSH2 0xA8D JUMP JUMPDEST PUSH1 0x40 MLOAD DUP1 SWAP2 SUB SWAP1 REVERT JUMPDEST PUSH0 PUSH2 0x310 DUP4 DUP4 PUSH2 0x3FA JUMP JUMPDEST SWAP1 POP DUP1 CALLVALUE EQ PUSH2 0x354 JUMPI PUSH1 0x40 MLOAD PUSH32 0x8C379A000000000000000000000000000000000000000000000000000000000 DUP2 MSTORE PUSH1 0x4 ADD PUSH2 0x34B SWAP1 PUSH2 0xAF5 JUMP JUMPDEST PUSH1 0x40 MLOAD DUP1 SWAP2 SUB SWAP1 REVERT JUMPDEST PUSH0 JUMPDEST DUP6 DUP6 SWAP1 POP DUP2 LT ISZERO PUSH2 0x3F2 JUMPI DUP6 DUP6 DUP3 DUP2 DUP2 LT PUSH2 0x374 JUMPI PUSH2 0x373 PUSH2 0x8CF JUMP JUMPDEST JUMPDEST SWAP1 POP PUSH1 0x20 MUL ADD PUSH1 0x20 DUP2 ADD SWAP1 PUSH2 0x389 SWAP2 SWAP1 PUSH2 0xB4E JUMP JUMPDEST PUSH20 0xFFFFFFFFFFFFFFFFFFFFFFFFFFFFFFFFFFFFFFFF AND PUSH2 0x8FC DUP6 DUP6 DUP5 DUP2 DUP2 LT PUSH2 0x3B5 JUMPI PUSH2 0x3B4 PUSH2 0x8CF JUMP JUMPDEST JUMPDEST SWAP1 POP PUSH1 0x20 MUL ADD CALLDATALOAD SWAP1 DUP2 ISZERO MUL SWAP1 PUSH1 0x40 MLOAD PUSH0 PUSH1 0x40 MLOAD DUP1 DUP4 SUB DUP2 DUP6 DUP9 DUP9 CALL SWAP4 POP POP POP POP ISZERO DUP1 ISZERO PUSH2 0x3E4 JUMPI RETURNDATASIZE PUSH0 DUP1 RETURNDATACOPY RETURNDATASIZE PUSH0 REVERT JUMPDEST POP DUP1 DUP1 PUSH1 0x1 ADD SWAP2 POP POP PUSH2 0x356 JUMP JUMPDEST POP POP POP POP POP POP JUMP JUMPDEST PUSH0 DUP1 PUSH0 SWAP1 POP JUMPDEST DUP4 DUP4 SWAP1 POP DUP2 LT ISZERO PUSH2 0x43F JUMPI DUP4 DUP4 DUP3 DUP2 DUP2 LT PUSH2 0x41E JUMPI PUSH2 0x41D PUSH2 0x8CF JUMP JUMPDEST JUMPDEST SWAP1 POP PUSH1 0x20 MUL ADD CALLDATALOAD DUP3 PUSH2 0x430 SWAP2 SWAP1 PUSH2 0xB79 JUMP JUMPDEST SWAP2 POP DUP1 DUP1 PUSH1 0x1 ADD SWAP2 POP POP PUSH2 0x400 JUMP JUMPDEST POP SWAP3 SWAP2 POP POP JUMP JUMPDEST PUSH0 DUP1 REVERT JUMPDEST PUSH0 DUP1 REVERT JUMPDEST PUSH0 PUSH20 0xFFFFFFFFFFFFFFFFFFFFFFFFFFFFFFFFFFFFFFFF DUP3 AND SWAP1 POP SWAP2 SWAP1 POP JUMP JUMPDEST PUSH0 PUSH2 0x477 DUP3 PUSH2 0x44E JUMP JUMPDEST SWAP1 POP SWAP2 SWAP1 POP JUMP JUMPDEST PUSH2 0x487 DUP2 PUSH2 0x46D JUMP JUMPDEST DUP2 EQ PUSH2 0x491 JUMPI PUSH0 DUP1 REVERT JUMPDEST POP JUMP JUMPDEST PUSH0 DUP2 CALLDATALOAD SWAP1 POP PUSH2 0x4A2 DUP2 PUSH2 0x47E JUMP JUMPDEST SWAP3 SWAP2 POP POP JUMP JUMPDEST PUSH0 DUP1 REVERT JUMPDEST PUSH0 DUP1 REVERT JUMPDEST PUSH0 DUP1 REVERT JUMPDEST PUSH0 DUP1 DUP4 PUSH1 0x1F DUP5 ADD SLT PUSH2 0x4C9 JUMPI PUSH2 0x4C8 PUSH2 0x4A8 JUMP JUMPDEST JUMPDEST DUP3 CALLDATALOAD SWAP1 POP PUSH8 0xFFFFFFFFFFFFFFFF DUP2 GT ISZERO PUSH2 0x4E6 JUMPI PUSH2 0x4E5 PUSH2 0x4AC JUMP JUMPDEST JUMPDEST PUSH1 0x20 DUP4 ADD SWAP2 POP DUP4 PUSH1 0x20 DUP3 MUL DUP4 ADD GT ISZERO PUSH2 0x502 JUMPI PUSH2 0x501 PUSH2 0x4B0 JUMP JUMPDEST JUMPDEST SWAP3 POP SWAP3 SWAP1 POP JUMP JUMPDEST PUSH0 DUP1 DUP4 PUSH1 0x1F DUP5 ADD SLT PUSH2 0x51E JUMPI PUSH2 0x51D PUSH2 0x4A8 JUMP JUMPDEST JUMPDEST DUP3 CALLDATALOAD SWAP1 POP PUSH8 0xFFFFFFFFFFFFFFFF DUP2 GT ISZERO PUSH2 0x53B JUMPI PUSH2 0x53A PUSH2 0x4AC JUMP JUMPDEST JUMPDEST PUSH1 0x20 DUP4 ADD SWAP2 POP DUP4 PUSH1 0x20 DUP3 MUL DUP4 ADD GT ISZERO PUSH2 0x557 JUMPI PUSH2 0x556 PUSH2 0x4B0 JUMP JUMPDEST JUMPDEST SWAP3 POP SWAP3 SWAP1 POP JUMP JUMPDEST PUSH0 DUP1 PUSH0 DUP1 PUSH0 PUSH1 0x60 DUP7 DUP9 SUB SLT ISZERO PUSH2 0x577 JUMPI PUSH2 0x576 PUSH2 0x446 JUMP JUMPDEST JUMPDEST PUSH0 PUSH2 0x584 DUP9 DUP3 DUP10 ADD PUSH2 0x494 JUMP JUMPDEST SWAP6 POP POP PUSH1 0x20 DUP7 ADD CALLDATALOAD PUSH8 0xFFFFFFFFFFFFFFFF DUP2 GT ISZERO PUSH2 0x5A5 JUMPI PUSH2 0x5A4 PUSH2 0x44A JUMP JUMPDEST JUMPDEST PUSH2 0x5B1 DUP9 DUP3 DUP10 ADD PUSH2 0x4B4 JUMP JUMPDEST SWAP5 POP SWAP5 POP POP PUSH1 0x40 DUP7 ADD CALLDATALOAD PUSH8 0xFFFFFFFFFFFFFFFF DUP2 GT ISZERO PUSH2 0x5D4 JUMPI PUSH2 0x5D3 PUSH2 0x44A JUMP JUMPDEST JUMPDEST PUSH2 0x5E0 DUP9 DUP3 DUP10 ADD PUSH2 0x509 JUMP JUMPDEST SWAP3 POP SWAP3 POP POP SWAP3 SWAP6 POP SWAP3 SWAP6 SWAP1 SWAP4 POP JUMP JUMPDEST PUSH0 DUP1 DUP4 PUSH1 0x1F DUP5 ADD SLT PUSH2 0x604 JUMPI PUSH2 0x603 PUSH2 0x4A8 JUMP JUMPDEST JUMPDEST DUP3 CALLDATALOAD SWAP1 POP PUSH8 0xFFFFFFFFFFFFFFFF DUP2 GT ISZERO PUSH2 0x621 JUMPI PUSH2 0x620 PUSH2 0x4AC JUMP JUMPDEST JUMPDEST PUSH1 0x20 DUP4 ADD SWAP2 POP DUP4 PUSH1 0x20 DUP3 MUL DUP4 ADD GT ISZERO PUSH2 0x63D JUMPI PUSH2 0x63C PUSH2 0x4B0 JUMP JUMPDEST JUMPDEST SWAP3 POP SWAP3 SWAP1 POP JUMP JUMPDEST PUSH0 DUP1 PUSH0 DUP1 PUSH1 0x40 DUP6 DUP8 SUB SLT ISZERO PUSH2 0x65C JUMPI PUSH2 0x65B PUSH2 0x446 JUMP JUMPDEST JUMPDEST PUSH0 DUP6 ADD CALLDATALOAD PUSH8 0xFFFFFFFFFFFFFFFF DUP2 GT ISZERO PUSH2 0x679 JUMPI PUSH2 0x678 PUSH2 0x44A JUMP JUMPDEST JUMPDEST PUSH2 0x685 DUP8 DUP3 DUP9 ADD PUSH2 0x5EF JUMP JUMPDEST SWAP5 POP SWAP5 POP POP PUSH1 0x20 DUP6 ADD CALLDATALOAD PUSH8 0xFFFFFFFFFFFFFFFF DUP2 GT ISZERO PUSH2 0x6A8 JUMPI PUSH2 0x6A7 PUSH2 0x44A JUMP JUMPDEST JUMPDEST PUSH2 0x6B4 DUP8 DUP3 DUP9 ADD PUSH2 0x509 JUMP JUMPDEST SWAP3 POP SWAP3 POP POP SWAP3 SWAP6 SWAP2 SWAP5 POP SWAP3 POP JUMP JUMPDEST PUSH0 DUP1 PUSH1 0x20 DUP4 DUP6 SUB SLT ISZERO PUSH2 0x6D8 JUMPI PUSH2 0x6D7 PUSH2 0x446 JUMP JUMPDEST JUMPDEST PUSH0 DUP4 ADD CALLDATALOAD PUSH8 0xFFFFFFFFFFFFFFFF DUP2 GT ISZERO PUSH2 0x6F5 JUMPI PUSH2 0x6F4 PUSH2 0x44A JUMP JUMPDEST JUMPDEST PUSH2 0x701 DUP6 DUP3 DUP7 ADD PUSH2 0x509 JUMP JUMPDEST SWAP3 POP SWAP3 POP POP SWAP3 POP SWAP3 SWAP1 POP JUMP JUMPDEST PUSH0 DUP2 SWAP1 POP SWAP2 SWAP1 POP JUMP JUMPDEST PUSH2 0x71F DUP2 PUSH2 0x70D JUMP JUMPDEST DUP3 MSTORE POP POP JUMP JUMPDEST PUSH0 PUSH1 0x20 DUP3 ADD SWAP1 POP PUSH2 0x738 PUSH0 DUP4 ADD DUP5 PUSH2 0x716 JUMP JUMPDEST SWAP3 SWAP2 POP POP JUMP JUMPDEST PUSH0 DUP3 DUP3 MSTORE PUSH1 0x20 DUP3 ADD SWAP1 POP SWAP3 SWAP2 POP POP JUMP JUMPDEST PUSH32 0x4C656E67746873206F6620526563656976657320616E6420416D6F756E747320 PUSH0 DUP3 ADD MSTORE PUSH32 0x4E4F5420455155414C0000000000000000000000000000000000000000000000 PUSH1 0x20 DUP3 ADD MSTORE POP JUMP JUMPDEST PUSH0 PUSH2 0x7A8 PUSH1 0x29 DUP4 PUSH2 0x73E JUMP JUMPDEST SWAP2 POP PUSH2 0x7B3 DUP3 PUSH2 0x74E JUMP JUMPDEST PUSH1 0x40 DUP3 ADD SWAP1 POP SWAP2 SWAP1 POP JUMP JUMPDEST PUSH0 PUSH1 0x20 DUP3 ADD SWAP1 POP DUP2 DUP2 SUB PUSH0 DUP4 ADD MSTORE PUSH2 0x7D5 DUP2 PUSH2 0x79C JUMP JUMPDEST SWAP1 POP SWAP2 SWAP1 POP JUMP JUMPDEST PUSH2 0x7E5 DUP2 PUSH2 0x46D JUMP JUMPDEST DUP3 MSTORE POP POP JUMP JUMPDEST PUSH0 PUSH1 0x40 DUP3 ADD SWAP1 POP PUSH2 0x7FE PUSH0 DUP4 ADD DUP6 PUSH2 0x7DC JUMP JUMPDEST PUSH2 0x80B PUSH1 0x20 DUP4 ADD DUP5 PUSH2 0x7DC JUMP JUMPDEST SWAP4 SWAP3 POP POP POP JUMP JUMPDEST PUSH2 0x81B DUP2 PUSH2 0x70D JUMP JUMPDEST DUP2 EQ PUSH2 0x825 JUMPI PUSH0 DUP1 REVERT JUMPDEST POP JUMP JUMPDEST PUSH0 DUP2 MLOAD SWAP1 POP PUSH2 0x836 DUP2 PUSH2 0x812 JUMP JUMPDEST SWAP3 SWAP2 POP POP JUMP JUMPDEST PUSH0 PUSH1 0x20 DUP3 DUP5 SUB SLT ISZERO PUSH2 0x851 JUMPI PUSH2 0x850 PUSH2 0x446 JUMP JUMPDEST JUMPDEST PUSH0 PUSH2 0x85E DUP5 DUP3 DUP6 ADD PUSH2 0x828 JUMP JUMPDEST SWAP2 POP POP SWAP3 SWAP2 POP POP JUMP JUMPDEST PUSH32 0x4E65656420417070726F766520455243323020746F6B656E0000000000000000 PUSH0 DUP3 ADD MSTORE POP JUMP JUMPDEST PUSH0 PUSH2 0x89B PUSH1 0x18 DUP4 PUSH2 0x73E JUMP JUMPDEST SWAP2 POP PUSH2 0x8A6 DUP3 PUSH2 0x867 JUMP JUMPDEST PUSH1 0x20 DUP3 ADD SWAP1 POP SWAP2 SWAP1 POP JUMP JUMPDEST PUSH0 PUSH1 0x20 DUP3 ADD SWAP1 POP DUP2 DUP2 SUB PUSH0 DUP4 ADD MSTORE PUSH2 0x8C8 DUP2 PUSH2 0x88F JUMP JUMPDEST SWAP1 POP SWAP2 SWAP1 POP JUMP JUMPDEST PUSH32 0x4E487B7100000000000000000000000000000000000000000000000000000000 PUSH0 MSTORE PUSH1 0x32 PUSH1 0x4 MSTORE PUSH1 0x24 PUSH0 REVERT JUMPDEST PUSH0 PUSH1 0x20 DUP3 DUP5 SUB SLT ISZERO PUSH2 0x911 JUMPI PUSH2 0x910 PUSH2 0x446 JUMP JUMPDEST JUMPDEST PUSH0 PUSH2 0x91E DUP5 DUP3 DUP6 ADD PUSH2 0x494 JUMP JUMPDEST SWAP2 POP POP SWAP3 SWAP2 POP POP JUMP JUMPDEST PUSH0 PUSH1 0x60 DUP3 ADD SWAP1 POP PUSH2 0x93A PUSH0 DUP4 ADD DUP7 PUSH2 0x7DC JUMP JUMPDEST PUSH2 0x947 PUSH1 0x20 DUP4 ADD DUP6 PUSH2 0x7DC JUMP JUMPDEST PUSH2 0x954 PUSH1 0x40 DUP4 ADD DUP5 PUSH2 0x716 JUMP JUMPDEST SWAP5 SWAP4 POP POP POP POP JUMP JUMPDEST PUSH0 DUP2 ISZERO ISZERO SWAP1 POP SWAP2 SWAP1 POP JUMP JUMPDEST PUSH2 0x970 DUP2 PUSH2 0x95C JUMP JUMPDEST DUP2 EQ PUSH2 0x97A JUMPI PUSH0 DUP1 REVERT JUMPDEST POP JUMP JUMPDEST PUSH0 DUP2 MLOAD SWAP1 POP PUSH2 0x98B DUP2 PUSH2 0x967 JUMP JUMPDEST SWAP3 SWAP2 POP POP JUMP JUMPDEST PUSH0 PUSH1 0x20 DUP3 DUP5 SUB SLT ISZERO PUSH2 0x9A6 JUMPI PUSH2 0x9A5 PUSH2 0x446 JUMP JUMPDEST JUMPDEST PUSH0 PUSH2 0x9B3 DUP5 DUP3 DUP6 ADD PUSH2 0x97D JUMP JUMPDEST SWAP2 POP POP SWAP3 SWAP2 POP POP JUMP JUMPDEST PUSH32 0x4E487B7100000000000000000000000000000000000000000000000000000000 PUSH0 MSTORE PUSH1 0x11 PUSH1 0x4 MSTORE PUSH1 0x24 PUSH0 REVERT JUMPDEST PUSH0 PUSH1 0xFF DUP3 AND SWAP1 POP SWAP2 SWAP1 POP JUMP JUMPDEST PUSH0 PUSH2 0x9FF DUP3 PUSH2 0x9E9 JUMP JUMPDEST SWAP2 POP PUSH1 0xFF DUP3 SUB PUSH2 0xA12 JUMPI PUSH2 0xA11 PUSH2 0x9BC JUMP JUMPDEST JUMPDEST PUSH1 0x1 DUP3 ADD SWAP1 POP SWAP2 SWAP1 POP JUMP JUMPDEST PUSH32 0x4C656E67746873206F662041646472657373657320616E6420416D6F756E7473 PUSH0 DUP3 ADD MSTORE PUSH32 0x204E4F5420455155414C00000000000000000000000000000000000000000000 PUSH1 0x20 DUP3 ADD MSTORE POP JUMP JUMPDEST PUSH0 PUSH2 0xA77 PUSH1 0x2A DUP4 PUSH2 0x73E JUMP JUMPDEST SWAP2 POP PUSH2 0xA82 DUP3 PUSH2 0xA1D JUMP JUMPDEST PUSH1 0x40 DUP3 ADD SWAP1 POP SWAP2 SWAP1 POP JUMP JUMPDEST PUSH0 PUSH1 0x20 DUP3 ADD SWAP1 POP DUP2 DUP2 SUB PUSH0 DUP4 ADD MSTORE PUSH2 0xAA4 DUP2 PUSH2 0xA6B JUMP JUMPDEST SWAP1 POP SWAP2 SWAP1 POP JUMP JUMPDEST PUSH32 0x5472616E7366657220616D6F756E74206572726F720000000000000000000000 PUSH0 DUP3 ADD MSTORE POP JUMP JUMPDEST PUSH0 PUSH2 0xADF PUSH1 0x15 DUP4 PUSH2 0x73E JUMP JUMPDEST SWAP2 POP PUSH2 0xAEA DUP3 PUSH2 0xAAB JUMP JUMPDEST PUSH1 0x20 DUP3 ADD SWAP1 POP SWAP2 SWAP1 POP JUMP JUMPDEST PUSH0 PUSH1 0x20 DUP3 ADD SWAP1 POP DUP2 DUP2 SUB PUSH0 DUP4 ADD MSTORE PUSH2 0xB0C DUP2 PUSH2 0xAD3 JUMP JUMPDEST SWAP1 POP SWAP2 SWAP1 POP JUMP JUMPDEST PUSH0 PUSH2 0xB1D DUP3 PUSH2 0x44E JUMP JUMPDEST SWAP1 POP SWAP2 SWAP1 POP JUMP JUMPDEST PUSH2 0xB2D DUP2 PUSH2 0xB13 JUMP JUMPDEST DUP2 EQ PUSH2 0xB37 JUMPI PUSH0 DUP1 REVERT JUMPDEST POP JUMP JUMPDEST PUSH0 DUP2 CALLDATALOAD SWAP1 POP PUSH2 0xB48 DUP2 PUSH2 0xB24 JUMP JUMPDEST SWAP3 SWAP2 POP POP JUMP JUMPDEST PUSH0 PUSH1 0x20 DUP3 DUP5 SUB SLT ISZERO PUSH2 0xB63 JUMPI PUSH2 0xB62 PUSH2 0x446 JUMP JUMPDEST JUMPDEST PUSH0 PUSH2 0xB70 DUP5 DUP3 DUP6 ADD PUSH2 0xB3A JUMP JUMPDEST SWAP2 POP POP SWAP3 SWAP2 POP POP JUMP JUMPDEST PUSH0 PUSH2 0xB83 DUP3 PUSH2 0x70D JUMP JUMPDEST SWAP2 POP PUSH2 0xB8E DUP4 PUSH2 0x70D JUMP JUMPDEST SWAP3 POP DUP3 DUP3 ADD SWAP1 POP DUP1 DUP3 GT ISZERO PUSH2 0xBA6 JUMPI PUSH2 0xBA5 PUSH2 0x9BC JUMP JUMPDEST JUMPDEST SWAP3 SWAP2 POP POP JUMP INVALID LOG2 PUSH5 0x6970667358 0x22 SLT KECCAK256 0xDC 0xD2 PUSH23 0x301B65D695DAA1BE56E0D5CD4F18E01CE5C93DE060B078 BYTE DELEGATECALL SWAP9 0x2B SSTORE PUSH22 0x64736F6C634300081900330000000000000000000000 "
				},
				"gasEstimates": {
					"creation": {
						"codeDepositCost": "608400",
						"executionCost": "643",
						"totalCost": "609043"
					},
					"external": {
						"getSum(uint256[])": "infinite",
						"multiTransferETH(address[],uint256[])": "infinite",
						"multiTransferToken(address,address[],uint256[])": "infinite"
					}
				},
				"methodIdentifiers": {
					"getSum(uint256[])": "ccb8c1e0",
					"multiTransferETH(address[],uint256[])": "77988cf8",
					"multiTransferToken(address,address[],uint256[])": "41ed24a2"
				}
			},
			"storageLayout": {
				"storage": [],
				"types": null
			},
			"userdoc": {
				"kind": "user",
				"methods": {},
				"version": 1
			}
		}
	}
}