{
	"wtfSolidity/101/101_10/if_for.sol": {
		"IfFor": {
			"abi": [
				{
					"inputs": [],
					"name": "doWhileTest",
					"outputs": [
						{
							"internalType": "uint256",
							"name": "",
							"type": "uint256"
						}
					],
					"stateMutability": "pure",
					"type": "function"
				},
				{
					"inputs": [],
					"name": "forLoopTest",
					"outputs": [
						{
							"internalType": "uint256",
							"name": "",
							"type": "uint256"
						}
					],
					"stateMutability": "pure",
					"type": "function"
				},
				{
					"inputs": [
						{
							"internalType": "uint256",
							"name": "n",
							"type": "uint256"
						}
					],
					"name": "ifELseTest",
					"outputs": [
						{
							"internalType": "bool",
							"name": "",
							"type": "bool"
						}
					],
					"stateMutability": "pure",
					"type": "function"
				},
				{
					"inputs": [
						{
							"internalType": "uint256[]",
							"name": "a",
							"type": "uint256[]"
						}
					],
					"name": "insertionSort",
					"outputs": [
						{
							"internalType": "uint256[]",
							"name": "",
							"type": "uint256[]"
						}
					],
					"stateMutability": "pure",
					"type": "function"
				},
				{
					"inputs": [
						{
							"internalType": "uint256[]",
							"name": "a",
							"type": "uint256[]"
						}
					],
					"name": "insertionSortWrong",
					"outputs": [
						{
							"internalType": "uint256[]",
							"name": "",
							"type": "uint256[]"
						}
					],
					"stateMutability": "pure",
					"type": "function"
				},
				{
					"inputs": [
						{
							"internalType": "uint256",
							"name": "x",
							"type": "uint256"
						},
						{
							"internalType": "uint256",
							"name": "y",
							"type": "uint256"
						}
					],
					"name": "ternaryTest",
					"outputs": [
						{
							"internalType": "uint256",
							"name": "",
							"type": "uint256"
						}
					],
					"stateMutability": "pure",
					"type": "function"
				},
				{
					"inputs": [],
					"name": "whileTest",
					"outputs": [
						{
							"internalType": "uint256",
							"name": "",
							"type": "uint256"
						}
					],
					"stateMutability": "pure",
					"type": "function"
				}
			],
			"devdoc": {
				"kind": "dev",
				"methods": {},
				"version": 1
			},
			"evm": {
				"assembly": "    /* \"wtfSolidity/101/101_10/if_for.sol\":60:2232  contract IfFor {... */\n  mstore(0x40, 0x80)\n  callvalue\n  dup1\n  iszero\n  tag_1\n  jumpi\n  0x00\n  dup1\n  revert\ntag_1:\n  pop\n  dataSize(sub_0)\n  dup1\n  dataOffset(sub_0)\n  0x00\n  codecopy\n  0x00\n  return\nstop\n\nsub_0: assembly {\n        /* \"wtfSolidity/101/101_10/if_for.sol\":60:2232  contract IfFor {... */\n      mstore(0x40, 0x80)\n      callvalue\n      dup1\n      iszero\n      tag_1\n      jumpi\n      0x00\n      dup1\n      revert\n    tag_1:\n      pop\n      jumpi(tag_2, lt(calldatasize, 0x04))\n      shr(0xe0, calldataload(0x00))\n      dup1\n      0x5d14639d\n      gt\n      tag_10\n      jumpi\n      dup1\n      0x5d14639d\n      eq\n      tag_6\n      jumpi\n      dup1\n      0x6188a6c0\n      eq\n      tag_7\n      jumpi\n      dup1\n      0x6297206f\n      eq\n      tag_8\n      jumpi\n      dup1\n      0xb0cfa9fc\n      eq\n      tag_9\n      jumpi\n      jump(tag_2)\n    tag_10:\n      dup1\n      0x28766320\n      eq\n      tag_3\n      jumpi\n      dup1\n      0x2bbacaaa\n      eq\n      tag_4\n      jumpi\n      dup1\n      0x3ab316da\n      eq\n      tag_5\n      jumpi\n    tag_2:\n      0x00\n      dup1\n      revert\n        /* \"wtfSolidity/101/101_10/if_for.sol\":897:1045  function ternaryTest(uint256 x, uint256 y) public pure returns(uint256) {... */\n    tag_3:\n      tag_11\n      0x04\n      dup1\n      calldatasize\n      sub\n      dup2\n      add\n      swap1\n      tag_12\n      swap2\n      swap1\n      tag_13\n      jump\t// in\n    tag_12:\n      tag_14\n      jump\t// in\n    tag_11:\n      mload(0x40)\n      tag_15\n      swap2\n      swap1\n      tag_16\n      jump\t// in\n    tag_15:\n      mload(0x40)\n      dup1\n      swap2\n      sub\n      swap1\n      return\n        /* \"wtfSolidity/101/101_10/if_for.sol\":656:865  function doWhileTest() public pure returns(uint256) {... */\n    tag_4:\n      tag_17\n      tag_18\n      jump\t// in\n    tag_17:\n      mload(0x40)\n      tag_19\n      swap2\n      swap1\n      tag_16\n      jump\t// in\n    tag_19:\n      mload(0x40)\n      dup1\n      swap2\n      sub\n      swap1\n      return\n        /* \"wtfSolidity/101/101_10/if_for.sol\":82:252  function ifELseTest(uint256 n) public pure returns(bool) {... */\n    tag_5:\n      tag_20\n      0x04\n      dup1\n      calldatasize\n      sub\n      dup2\n      add\n      swap1\n      tag_21\n      swap2\n      swap1\n      tag_22\n      jump\t// in\n    tag_21:\n      tag_23\n      jump\t// in\n    tag_20:\n      mload(0x40)\n      tag_24\n      swap2\n      swap1\n      tag_25\n      jump\t// in\n    tag_24:\n      mload(0x40)\n      dup1\n      swap2\n      sub\n      swap1\n      return\n        /* \"wtfSolidity/101/101_10/if_for.sol\":447:648  function whileTest() public pure returns(uint256) {... */\n    tag_6:\n      tag_26\n      tag_27\n      jump\t// in\n    tag_26:\n      mload(0x40)\n      tag_28\n      swap2\n      swap1\n      tag_16\n      jump\t// in\n    tag_28:\n      mload(0x40)\n      dup1\n      swap2\n      sub\n      swap1\n      return\n        /* \"wtfSolidity/101/101_10/if_for.sol\":1085:1778  function insertionSortWrong(uint[] memory a) public pure returns(uint[] memory) {... */\n    tag_7:\n      tag_29\n      0x04\n      dup1\n      calldatasize\n      sub\n      dup2\n      add\n      swap1\n      tag_30\n      swap2\n      swap1\n      tag_31\n      jump\t// in\n    tag_30:\n      tag_32\n      jump\t// in\n    tag_29:\n      mload(0x40)\n      tag_33\n      swap2\n      swap1\n      tag_34\n      jump\t// in\n    tag_33:\n      mload(0x40)\n      dup1\n      swap2\n      sub\n      swap1\n      return\n        /* \"wtfSolidity/101/101_10/if_for.sol\":1817:2229  function insertionSort(uint[] memory a) public pure returns(uint[] memory) {... */\n    tag_8:\n      tag_35\n      0x04\n      dup1\n      calldatasize\n      sub\n      dup2\n      add\n      swap1\n      tag_36\n      swap2\n      swap1\n      tag_31\n      jump\t// in\n    tag_36:\n      tag_37\n      jump\t// in\n    tag_35:\n      mload(0x40)\n      tag_38\n      swap2\n      swap1\n      tag_34\n      jump\t// in\n    tag_38:\n      mload(0x40)\n      dup1\n      swap2\n      sub\n      swap1\n      return\n        /* \"wtfSolidity/101/101_10/if_for.sol\":260:439  function forLoopTest() public pure returns(uint256) {... */\n    tag_9:\n      tag_39\n      tag_40\n      jump\t// in\n    tag_39:\n      mload(0x40)\n      tag_41\n      swap2\n      swap1\n      tag_16\n      jump\t// in\n    tag_41:\n      mload(0x40)\n      dup1\n      swap2\n      sub\n      swap1\n      return\n        /* \"wtfSolidity/101/101_10/if_for.sol\":897:1045  function ternaryTest(uint256 x, uint256 y) public pure returns(uint256) {... */\n    tag_14:\n        /* \"wtfSolidity/101/101_10/if_for.sol\":960:967  uint256 */\n      0x00\n        /* \"wtfSolidity/101/101_10/if_for.sol\":1029:1030  y */\n      dup2\n        /* \"wtfSolidity/101/101_10/if_for.sol\":1025:1026  x */\n      dup4\n        /* \"wtfSolidity/101/101_10/if_for.sol\":1025:1030  x >=y */\n      lt\n      iszero\n        /* \"wtfSolidity/101/101_10/if_for.sol\":1025:1037  x >=y ? x: y */\n      tag_43\n      jumpi\n        /* \"wtfSolidity/101/101_10/if_for.sol\":1036:1037  y */\n      dup2\n        /* \"wtfSolidity/101/101_10/if_for.sol\":1025:1037  x >=y ? x: y */\n      jump(tag_44)\n    tag_43:\n        /* \"wtfSolidity/101/101_10/if_for.sol\":1033:1034  x */\n      dup3\n        /* \"wtfSolidity/101/101_10/if_for.sol\":1025:1037  x >=y ? x: y */\n    tag_44:\n        /* \"wtfSolidity/101/101_10/if_for.sol\":1018:1037  return x >=y ? x: y */\n      swap1\n      pop\n        /* \"wtfSolidity/101/101_10/if_for.sol\":897:1045  function ternaryTest(uint256 x, uint256 y) public pure returns(uint256) {... */\n      swap3\n      swap2\n      pop\n      pop\n      jump\t// out\n        /* \"wtfSolidity/101/101_10/if_for.sol\":656:865  function doWhileTest() public pure returns(uint256) {... */\n    tag_18:\n        /* \"wtfSolidity/101/101_10/if_for.sol\":699:706  uint256 */\n      0x00\n        /* \"wtfSolidity/101/101_10/if_for.sol\":719:727  uint sum */\n      dup1\n        /* \"wtfSolidity/101/101_10/if_for.sol\":730:731  0 */\n      0x00\n        /* \"wtfSolidity/101/101_10/if_for.sol\":719:731  uint sum = 0 */\n      swap1\n      pop\n        /* \"wtfSolidity/101/101_10/if_for.sol\":742:748  uint i */\n      0x00\n        /* \"wtfSolidity/101/101_10/if_for.sol\":763:833  do{... */\n    tag_46:\n        /* \"wtfSolidity/101/101_10/if_for.sol\":787:788  i */\n      dup1\n        /* \"wtfSolidity/101/101_10/if_for.sol\":780:788  sum += i */\n      dup3\n      tag_49\n      swap2\n      swap1\n      tag_50\n      jump\t// in\n    tag_49:\n      swap2\n      pop\n        /* \"wtfSolidity/101/101_10/if_for.sol\":803:806  i++ */\n      dup1\n      dup1\n      tag_51\n      swap1\n      tag_52\n      jump\t// in\n    tag_51:\n      swap2\n      pop\n      pop\n        /* \"wtfSolidity/101/101_10/if_for.sol\":829:831  10 */\n      0x0a\n        /* \"wtfSolidity/101/101_10/if_for.sol\":825:826  i */\n      dup2\n        /* \"wtfSolidity/101/101_10/if_for.sol\":825:831  i < 10 */\n      lt\n        /* \"wtfSolidity/101/101_10/if_for.sol\":763:833  do{... */\n      tag_46\n      jumpi\n        /* \"wtfSolidity/101/101_10/if_for.sol\":853:856  sum */\n      dup2\n        /* \"wtfSolidity/101/101_10/if_for.sol\":845:857  return (sum) */\n      swap3\n      pop\n      pop\n      pop\n        /* \"wtfSolidity/101/101_10/if_for.sol\":656:865  function doWhileTest() public pure returns(uint256) {... */\n      swap1\n      jump\t// out\n        /* \"wtfSolidity/101/101_10/if_for.sol\":82:252  function ifELseTest(uint256 n) public pure returns(bool) {... */\n    tag_23:\n        /* \"wtfSolidity/101/101_10/if_for.sol\":133:137  bool */\n      0x00\n        /* \"wtfSolidity/101/101_10/if_for.sol\":158:159  0 */\n      dup1\n        /* \"wtfSolidity/101/101_10/if_for.sol\":153:154  n */\n      dup3\n        /* \"wtfSolidity/101/101_10/if_for.sol\":153:159  n == 0 */\n      sub\n        /* \"wtfSolidity/101/101_10/if_for.sol\":150:245  if(n == 0) {... */\n      tag_54\n      jumpi\n        /* \"wtfSolidity/101/101_10/if_for.sol\":183:187  true */\n      0x01\n        /* \"wtfSolidity/101/101_10/if_for.sol\":176:188  return(true) */\n      swap1\n      pop\n      jump(tag_53)\n        /* \"wtfSolidity/101/101_10/if_for.sol\":150:245  if(n == 0) {... */\n    tag_54:\n        /* \"wtfSolidity/101/101_10/if_for.sol\":227:232  false */\n      0x00\n        /* \"wtfSolidity/101/101_10/if_for.sol\":220:233  return(false) */\n      swap1\n      pop\n        /* \"wtfSolidity/101/101_10/if_for.sol\":82:252  function ifELseTest(uint256 n) public pure returns(bool) {... */\n    tag_53:\n      swap2\n      swap1\n      pop\n      jump\t// out\n        /* \"wtfSolidity/101/101_10/if_for.sol\":447:648  function whileTest() public pure returns(uint256) {... */\n    tag_27:\n        /* \"wtfSolidity/101/101_10/if_for.sol\":488:495  uint256 */\n      0x00\n        /* \"wtfSolidity/101/101_10/if_for.sol\":508:516  uint sum */\n      dup1\n        /* \"wtfSolidity/101/101_10/if_for.sol\":519:520  0 */\n      0x00\n        /* \"wtfSolidity/101/101_10/if_for.sol\":508:520  uint sum = 0 */\n      swap1\n      pop\n        /* \"wtfSolidity/101/101_10/if_for.sol\":531:537  uint i */\n      0x00\n        /* \"wtfSolidity/101/101_10/if_for.sol\":552:618  while(i < 10){... */\n    tag_57:\n        /* \"wtfSolidity/101/101_10/if_for.sol\":562:564  10 */\n      0x0a\n        /* \"wtfSolidity/101/101_10/if_for.sol\":558:559  i */\n      dup2\n        /* \"wtfSolidity/101/101_10/if_for.sol\":558:564  i < 10 */\n      lt\n        /* \"wtfSolidity/101/101_10/if_for.sol\":552:618  while(i < 10){... */\n      iszero\n      tag_58\n      jumpi\n        /* \"wtfSolidity/101/101_10/if_for.sol\":587:588  i */\n      dup1\n        /* \"wtfSolidity/101/101_10/if_for.sol\":580:588  sum += i */\n      dup3\n      tag_59\n      swap2\n      swap1\n      tag_50\n      jump\t// in\n    tag_59:\n      swap2\n      pop\n        /* \"wtfSolidity/101/101_10/if_for.sol\":603:606  i++ */\n      dup1\n      dup1\n      tag_60\n      swap1\n      tag_52\n      jump\t// in\n    tag_60:\n      swap2\n      pop\n      pop\n        /* \"wtfSolidity/101/101_10/if_for.sol\":552:618  while(i < 10){... */\n      jump(tag_57)\n    tag_58:\n        /* \"wtfSolidity/101/101_10/if_for.sol\":636:639  sum */\n      dup2\n        /* \"wtfSolidity/101/101_10/if_for.sol\":628:640  return (sum) */\n      swap3\n      pop\n      pop\n      pop\n        /* \"wtfSolidity/101/101_10/if_for.sol\":447:648  function whileTest() public pure returns(uint256) {... */\n      swap1\n      jump\t// out\n        /* \"wtfSolidity/101/101_10/if_for.sol\":1085:1778  function insertionSortWrong(uint[] memory a) public pure returns(uint[] memory) {... */\n    tag_32:\n        /* \"wtfSolidity/101/101_10/if_for.sol\":1150:1163  uint[] memory */\n      0x60\n        /* \"wtfSolidity/101/101_10/if_for.sol\":1510:1516  uint i */\n      0x00\n        /* \"wtfSolidity/101/101_10/if_for.sol\":1519:1520  1 */\n      0x01\n        /* \"wtfSolidity/101/101_10/if_for.sol\":1510:1520  uint i = 1 */\n      swap1\n      pop\n        /* \"wtfSolidity/101/101_10/if_for.sol\":1505:1751  for (uint i = 1;i < a.length;i++){... */\n    tag_62:\n        /* \"wtfSolidity/101/101_10/if_for.sol\":1525:1526  a */\n      dup3\n        /* \"wtfSolidity/101/101_10/if_for.sol\":1525:1533  a.length */\n      mload\n        /* \"wtfSolidity/101/101_10/if_for.sol\":1521:1522  i */\n      dup2\n        /* \"wtfSolidity/101/101_10/if_for.sol\":1521:1533  i < a.length */\n      lt\n        /* \"wtfSolidity/101/101_10/if_for.sol\":1505:1751  for (uint i = 1;i < a.length;i++){... */\n      iszero\n      tag_63\n      jumpi\n        /* \"wtfSolidity/101/101_10/if_for.sol\":1553:1562  uint temp */\n      0x00\n        /* \"wtfSolidity/101/101_10/if_for.sol\":1565:1566  a */\n      dup4\n        /* \"wtfSolidity/101/101_10/if_for.sol\":1567:1568  i */\n      dup3\n        /* \"wtfSolidity/101/101_10/if_for.sol\":1565:1569  a[i] */\n      dup2\n      mload\n      dup2\n      lt\n      tag_65\n      jumpi\n      tag_66\n      tag_67\n      jump\t// in\n    tag_66:\n    tag_65:\n      0x20\n      mul\n      0x20\n      add\n      add\n      mload\n        /* \"wtfSolidity/101/101_10/if_for.sol\":1553:1569  uint temp = a[i] */\n      swap1\n      pop\n        /* \"wtfSolidity/101/101_10/if_for.sol\":1584:1590  uint j */\n      0x00\n        /* \"wtfSolidity/101/101_10/if_for.sol\":1593:1594  1 */\n      0x01\n        /* \"wtfSolidity/101/101_10/if_for.sol\":1591:1592  i */\n      dup4\n        /* \"wtfSolidity/101/101_10/if_for.sol\":1591:1594  i-1 */\n      tag_68\n      swap2\n      swap1\n      tag_69\n      jump\t// in\n    tag_68:\n        /* \"wtfSolidity/101/101_10/if_for.sol\":1584:1594  uint j=i-1 */\n      swap1\n      pop\n        /* \"wtfSolidity/101/101_10/if_for.sol\":1609:1712  while( (j >= 0) && (temp < a[j])){... */\n    tag_70:\n        /* \"wtfSolidity/101/101_10/if_for.sol\":1622:1623  0 */\n      0x00\n        /* \"wtfSolidity/101/101_10/if_for.sol\":1617:1618  j */\n      dup2\n        /* \"wtfSolidity/101/101_10/if_for.sol\":1617:1623  j >= 0 */\n      lt\n      iszero\n        /* \"wtfSolidity/101/101_10/if_for.sol\":1616:1641  (j >= 0) && (temp < a[j]) */\n      dup1\n      iszero\n      tag_72\n      jumpi\n      pop\n        /* \"wtfSolidity/101/101_10/if_for.sol\":1636:1637  a */\n      dup5\n        /* \"wtfSolidity/101/101_10/if_for.sol\":1638:1639  j */\n      dup2\n        /* \"wtfSolidity/101/101_10/if_for.sol\":1636:1640  a[j] */\n      dup2\n      mload\n      dup2\n      lt\n      tag_73\n      jumpi\n      tag_74\n      tag_67\n      jump\t// in\n    tag_74:\n    tag_73:\n      0x20\n      mul\n      0x20\n      add\n      add\n      mload\n        /* \"wtfSolidity/101/101_10/if_for.sol\":1629:1633  temp */\n      dup3\n        /* \"wtfSolidity/101/101_10/if_for.sol\":1629:1640  temp < a[j] */\n      lt\n        /* \"wtfSolidity/101/101_10/if_for.sol\":1616:1641  (j >= 0) && (temp < a[j]) */\n    tag_72:\n        /* \"wtfSolidity/101/101_10/if_for.sol\":1609:1712  while( (j >= 0) && (temp < a[j])){... */\n      iszero\n      tag_71\n      jumpi\n        /* \"wtfSolidity/101/101_10/if_for.sol\":1670:1671  a */\n      dup5\n        /* \"wtfSolidity/101/101_10/if_for.sol\":1672:1673  j */\n      dup2\n        /* \"wtfSolidity/101/101_10/if_for.sol\":1670:1674  a[j] */\n      dup2\n      mload\n      dup2\n      lt\n      tag_75\n      jumpi\n      tag_76\n      tag_67\n      jump\t// in\n    tag_76:\n    tag_75:\n      0x20\n      mul\n      0x20\n      add\n      add\n      mload\n        /* \"wtfSolidity/101/101_10/if_for.sol\":1661:1662  a */\n      dup6\n        /* \"wtfSolidity/101/101_10/if_for.sol\":1665:1666  1 */\n      0x01\n        /* \"wtfSolidity/101/101_10/if_for.sol\":1663:1664  j */\n      dup4\n        /* \"wtfSolidity/101/101_10/if_for.sol\":1663:1666  j+1 */\n      tag_77\n      swap2\n      swap1\n      tag_50\n      jump\t// in\n    tag_77:\n        /* \"wtfSolidity/101/101_10/if_for.sol\":1661:1667  a[j+1] */\n      dup2\n      mload\n      dup2\n      lt\n      tag_78\n      jumpi\n      tag_79\n      tag_67\n      jump\t// in\n    tag_79:\n    tag_78:\n      0x20\n      mul\n      0x20\n      add\n      add\n        /* \"wtfSolidity/101/101_10/if_for.sol\":1661:1674  a[j+1] = a[j] */\n      dup2\n      dup2\n      mstore\n      pop\n      pop\n        /* \"wtfSolidity/101/101_10/if_for.sol\":1693:1696  j-- */\n      dup1\n      dup1\n      tag_80\n      swap1\n      tag_81\n      jump\t// in\n    tag_80:\n      swap2\n      pop\n      pop\n        /* \"wtfSolidity/101/101_10/if_for.sol\":1609:1712  while( (j >= 0) && (temp < a[j])){... */\n      jump(tag_70)\n    tag_71:\n        /* \"wtfSolidity/101/101_10/if_for.sol\":1735:1739  temp */\n      dup2\n        /* \"wtfSolidity/101/101_10/if_for.sol\":1726:1727  a */\n      dup6\n        /* \"wtfSolidity/101/101_10/if_for.sol\":1730:1731  1 */\n      0x01\n        /* \"wtfSolidity/101/101_10/if_for.sol\":1728:1729  j */\n      dup4\n        /* \"wtfSolidity/101/101_10/if_for.sol\":1728:1731  j+1 */\n      tag_82\n      swap2\n      swap1\n      tag_50\n      jump\t// in\n    tag_82:\n        /* \"wtfSolidity/101/101_10/if_for.sol\":1726:1732  a[j+1] */\n      dup2\n      mload\n      dup2\n      lt\n      tag_83\n      jumpi\n      tag_84\n      tag_67\n      jump\t// in\n    tag_84:\n    tag_83:\n      0x20\n      mul\n      0x20\n      add\n      add\n        /* \"wtfSolidity/101/101_10/if_for.sol\":1726:1739  a[j+1] = temp */\n      dup2\n      dup2\n      mstore\n      pop\n      pop\n        /* \"wtfSolidity/101/101_10/if_for.sol\":1538:1751  {... */\n      pop\n      pop\n        /* \"wtfSolidity/101/101_10/if_for.sol\":1534:1537  i++ */\n      dup1\n      dup1\n      0x01\n      add\n      swap2\n      pop\n      pop\n        /* \"wtfSolidity/101/101_10/if_for.sol\":1505:1751  for (uint i = 1;i < a.length;i++){... */\n      jump(tag_62)\n    tag_63:\n      pop\n        /* \"wtfSolidity/101/101_10/if_for.sol\":1768:1769  a */\n      dup2\n        /* \"wtfSolidity/101/101_10/if_for.sol\":1761:1770  return(a) */\n      swap1\n      pop\n        /* \"wtfSolidity/101/101_10/if_for.sol\":1085:1778  function insertionSortWrong(uint[] memory a) public pure returns(uint[] memory) {... */\n      swap2\n      swap1\n      pop\n      jump\t// out\n        /* \"wtfSolidity/101/101_10/if_for.sol\":1817:2229  function insertionSort(uint[] memory a) public pure returns(uint[] memory) {... */\n    tag_37:\n        /* \"wtfSolidity/101/101_10/if_for.sol\":1877:1890  uint[] memory */\n      0x60\n        /* \"wtfSolidity/101/101_10/if_for.sol\":1963:1969  uint i */\n      0x00\n        /* \"wtfSolidity/101/101_10/if_for.sol\":1972:1973  1 */\n      0x01\n        /* \"wtfSolidity/101/101_10/if_for.sol\":1963:1973  uint i = 1 */\n      swap1\n      pop\n        /* \"wtfSolidity/101/101_10/if_for.sol\":1958:2202  for (uint i = 1;i < a.length;i++){... */\n    tag_86:\n        /* \"wtfSolidity/101/101_10/if_for.sol\":1978:1979  a */\n      dup3\n        /* \"wtfSolidity/101/101_10/if_for.sol\":1978:1986  a.length */\n      mload\n        /* \"wtfSolidity/101/101_10/if_for.sol\":1974:1975  i */\n      dup2\n        /* \"wtfSolidity/101/101_10/if_for.sol\":1974:1986  i < a.length */\n      lt\n        /* \"wtfSolidity/101/101_10/if_for.sol\":1958:2202  for (uint i = 1;i < a.length;i++){... */\n      iszero\n      tag_87\n      jumpi\n        /* \"wtfSolidity/101/101_10/if_for.sol\":2006:2015  uint temp */\n      0x00\n        /* \"wtfSolidity/101/101_10/if_for.sol\":2018:2019  a */\n      dup4\n        /* \"wtfSolidity/101/101_10/if_for.sol\":2020:2021  i */\n      dup3\n        /* \"wtfSolidity/101/101_10/if_for.sol\":2018:2022  a[i] */\n      dup2\n      mload\n      dup2\n      lt\n      tag_89\n      jumpi\n      tag_90\n      tag_67\n      jump\t// in\n    tag_90:\n    tag_89:\n      0x20\n      mul\n      0x20\n      add\n      add\n      mload\n        /* \"wtfSolidity/101/101_10/if_for.sol\":2006:2022  uint temp = a[i] */\n      swap1\n      pop\n        /* \"wtfSolidity/101/101_10/if_for.sol\":2037:2043  uint j */\n      0x00\n        /* \"wtfSolidity/101/101_10/if_for.sol\":2044:2045  i */\n      dup3\n        /* \"wtfSolidity/101/101_10/if_for.sol\":2037:2045  uint j=i */\n      swap1\n      pop\n        /* \"wtfSolidity/101/101_10/if_for.sol\":2060:2165  while( (j >= 1) && (temp < a[j-1])){... */\n    tag_91:\n        /* \"wtfSolidity/101/101_10/if_for.sol\":2073:2074  1 */\n      0x01\n        /* \"wtfSolidity/101/101_10/if_for.sol\":2068:2069  j */\n      dup2\n        /* \"wtfSolidity/101/101_10/if_for.sol\":2068:2074  j >= 1 */\n      lt\n      iszero\n        /* \"wtfSolidity/101/101_10/if_for.sol\":2067:2094  (j >= 1) && (temp < a[j-1]) */\n      dup1\n      iszero\n      tag_93\n      jumpi\n      pop\n        /* \"wtfSolidity/101/101_10/if_for.sol\":2087:2088  a */\n      dup5\n        /* \"wtfSolidity/101/101_10/if_for.sol\":2091:2092  1 */\n      0x01\n        /* \"wtfSolidity/101/101_10/if_for.sol\":2089:2090  j */\n      dup3\n        /* \"wtfSolidity/101/101_10/if_for.sol\":2089:2092  j-1 */\n      tag_94\n      swap2\n      swap1\n      tag_69\n      jump\t// in\n    tag_94:\n        /* \"wtfSolidity/101/101_10/if_for.sol\":2087:2093  a[j-1] */\n      dup2\n      mload\n      dup2\n      lt\n      tag_95\n      jumpi\n      tag_96\n      tag_67\n      jump\t// in\n    tag_96:\n    tag_95:\n      0x20\n      mul\n      0x20\n      add\n      add\n      mload\n        /* \"wtfSolidity/101/101_10/if_for.sol\":2080:2084  temp */\n      dup3\n        /* \"wtfSolidity/101/101_10/if_for.sol\":2080:2093  temp < a[j-1] */\n      lt\n        /* \"wtfSolidity/101/101_10/if_for.sol\":2067:2094  (j >= 1) && (temp < a[j-1]) */\n    tag_93:\n        /* \"wtfSolidity/101/101_10/if_for.sol\":2060:2165  while( (j >= 1) && (temp < a[j-1])){... */\n      iszero\n      tag_92\n      jumpi\n        /* \"wtfSolidity/101/101_10/if_for.sol\":2121:2122  a */\n      dup5\n        /* \"wtfSolidity/101/101_10/if_for.sol\":2125:2126  1 */\n      0x01\n        /* \"wtfSolidity/101/101_10/if_for.sol\":2123:2124  j */\n      dup3\n        /* \"wtfSolidity/101/101_10/if_for.sol\":2123:2126  j-1 */\n      tag_97\n      swap2\n      swap1\n      tag_69\n      jump\t// in\n    tag_97:\n        /* \"wtfSolidity/101/101_10/if_for.sol\":2121:2127  a[j-1] */\n      dup2\n      mload\n      dup2\n      lt\n      tag_98\n      jumpi\n      tag_99\n      tag_67\n      jump\t// in\n    tag_99:\n    tag_98:\n      0x20\n      mul\n      0x20\n      add\n      add\n      mload\n        /* \"wtfSolidity/101/101_10/if_for.sol\":2114:2115  a */\n      dup6\n        /* \"wtfSolidity/101/101_10/if_for.sol\":2116:2117  j */\n      dup3\n        /* \"wtfSolidity/101/101_10/if_for.sol\":2114:2118  a[j] */\n      dup2\n      mload\n      dup2\n      lt\n      tag_100\n      jumpi\n      tag_101\n      tag_67\n      jump\t// in\n    tag_101:\n    tag_100:\n      0x20\n      mul\n      0x20\n      add\n      add\n        /* \"wtfSolidity/101/101_10/if_for.sol\":2114:2127  a[j] = a[j-1] */\n      dup2\n      dup2\n      mstore\n      pop\n      pop\n        /* \"wtfSolidity/101/101_10/if_for.sol\":2146:2149  j-- */\n      dup1\n      dup1\n      tag_102\n      swap1\n      tag_81\n      jump\t// in\n    tag_102:\n      swap2\n      pop\n      pop\n        /* \"wtfSolidity/101/101_10/if_for.sol\":2060:2165  while( (j >= 1) && (temp < a[j-1])){... */\n      jump(tag_91)\n    tag_92:\n        /* \"wtfSolidity/101/101_10/if_for.sol\":2186:2190  temp */\n      dup2\n        /* \"wtfSolidity/101/101_10/if_for.sol\":2179:2180  a */\n      dup6\n        /* \"wtfSolidity/101/101_10/if_for.sol\":2181:2182  j */\n      dup3\n        /* \"wtfSolidity/101/101_10/if_for.sol\":2179:2183  a[j] */\n      dup2\n      mload\n      dup2\n      lt\n      tag_103\n      jumpi\n      tag_104\n      tag_67\n      jump\t// in\n    tag_104:\n    tag_103:\n      0x20\n      mul\n      0x20\n      add\n      add\n        /* \"wtfSolidity/101/101_10/if_for.sol\":2179:2190  a[j] = temp */\n      dup2\n      dup2\n      mstore\n      pop\n      pop\n        /* \"wtfSolidity/101/101_10/if_for.sol\":1991:2202  {... */\n      pop\n      pop\n        /* \"wtfSolidity/101/101_10/if_for.sol\":1987:1990  i++ */\n      dup1\n      dup1\n      0x01\n      add\n      swap2\n      pop\n      pop\n        /* \"wtfSolidity/101/101_10/if_for.sol\":1958:2202  for (uint i = 1;i < a.length;i++){... */\n      jump(tag_86)\n    tag_87:\n      pop\n        /* \"wtfSolidity/101/101_10/if_for.sol\":2219:2220  a */\n      dup2\n        /* \"wtfSolidity/101/101_10/if_for.sol\":2212:2221  return(a) */\n      swap1\n      pop\n        /* \"wtfSolidity/101/101_10/if_for.sol\":1817:2229  function insertionSort(uint[] memory a) public pure returns(uint[] memory) {... */\n      swap2\n      swap1\n      pop\n      jump\t// out\n        /* \"wtfSolidity/101/101_10/if_for.sol\":260:439  function forLoopTest() public pure returns(uint256) {... */\n    tag_40:\n        /* \"wtfSolidity/101/101_10/if_for.sol\":303:310  uint256 */\n      0x00\n        /* \"wtfSolidity/101/101_10/if_for.sol\":323:334  uint256 sum */\n      dup1\n        /* \"wtfSolidity/101/101_10/if_for.sol\":337:338  0 */\n      0x00\n        /* \"wtfSolidity/101/101_10/if_for.sol\":323:338  uint256 sum = 0 */\n      swap1\n      pop\n        /* \"wtfSolidity/101/101_10/if_for.sol\":353:359  uint i */\n      0x00\n        /* \"wtfSolidity/101/101_10/if_for.sol\":349:410  for(uint i=0; i < 10; i++){... */\n    tag_106:\n        /* \"wtfSolidity/101/101_10/if_for.sol\":367:369  10 */\n      0x0a\n        /* \"wtfSolidity/101/101_10/if_for.sol\":363:364  i */\n      dup2\n        /* \"wtfSolidity/101/101_10/if_for.sol\":363:369  i < 10 */\n      lt\n        /* \"wtfSolidity/101/101_10/if_for.sol\":349:410  for(uint i=0; i < 10; i++){... */\n      iszero\n      tag_107\n      jumpi\n        /* \"wtfSolidity/101/101_10/if_for.sol\":397:398  i */\n      dup1\n        /* \"wtfSolidity/101/101_10/if_for.sol\":390:398  sum += i */\n      dup3\n      tag_109\n      swap2\n      swap1\n      tag_50\n      jump\t// in\n    tag_109:\n      swap2\n      pop\n        /* \"wtfSolidity/101/101_10/if_for.sol\":371:374  i++ */\n      dup1\n      dup1\n      0x01\n      add\n      swap2\n      pop\n      pop\n        /* \"wtfSolidity/101/101_10/if_for.sol\":349:410  for(uint i=0; i < 10; i++){... */\n      jump(tag_106)\n    tag_107:\n      pop\n        /* \"wtfSolidity/101/101_10/if_for.sol\":427:430  sum */\n      dup1\n        /* \"wtfSolidity/101/101_10/if_for.sol\":420:431  return(sum) */\n      swap2\n      pop\n      pop\n        /* \"wtfSolidity/101/101_10/if_for.sol\":260:439  function forLoopTest() public pure returns(uint256) {... */\n      swap1\n      jump\t// out\n        /* \"#utility.yul\":7:82   */\n    tag_110:\n        /* \"#utility.yul\":40:46   */\n      0x00\n        /* \"#utility.yul\":73:75   */\n      0x40\n        /* \"#utility.yul\":67:76   */\n      mload\n        /* \"#utility.yul\":57:76   */\n      swap1\n      pop\n        /* \"#utility.yul\":7:82   */\n      swap1\n      jump\t// out\n        /* \"#utility.yul\":88:205   */\n    tag_111:\n        /* \"#utility.yul\":197:198   */\n      0x00\n        /* \"#utility.yul\":194:195   */\n      dup1\n        /* \"#utility.yul\":187:199   */\n      revert\n        /* \"#utility.yul\":211:328   */\n    tag_112:\n        /* \"#utility.yul\":320:321   */\n      0x00\n        /* \"#utility.yul\":317:318   */\n      dup1\n        /* \"#utility.yul\":310:322   */\n      revert\n        /* \"#utility.yul\":334:411   */\n    tag_113:\n        /* \"#utility.yul\":371:378   */\n      0x00\n        /* \"#utility.yul\":400:405   */\n      dup2\n        /* \"#utility.yul\":389:405   */\n      swap1\n      pop\n        /* \"#utility.yul\":334:411   */\n      swap2\n      swap1\n      pop\n      jump\t// out\n        /* \"#utility.yul\":417:539   */\n    tag_114:\n        /* \"#utility.yul\":490:514   */\n      tag_142\n        /* \"#utility.yul\":508:513   */\n      dup2\n        /* \"#utility.yul\":490:514   */\n      tag_113\n      jump\t// in\n    tag_142:\n        /* \"#utility.yul\":483:488   */\n      dup2\n        /* \"#utility.yul\":480:515   */\n      eq\n        /* \"#utility.yul\":470:533   */\n      tag_143\n      jumpi\n        /* \"#utility.yul\":529:530   */\n      0x00\n        /* \"#utility.yul\":526:527   */\n      dup1\n        /* \"#utility.yul\":519:531   */\n      revert\n        /* \"#utility.yul\":470:533   */\n    tag_143:\n        /* \"#utility.yul\":417:539   */\n      pop\n      jump\t// out\n        /* \"#utility.yul\":545:684   */\n    tag_115:\n        /* \"#utility.yul\":591:596   */\n      0x00\n        /* \"#utility.yul\":629:635   */\n      dup2\n        /* \"#utility.yul\":616:636   */\n      calldataload\n        /* \"#utility.yul\":607:636   */\n      swap1\n      pop\n        /* \"#utility.yul\":645:678   */\n      tag_145\n        /* \"#utility.yul\":672:677   */\n      dup2\n        /* \"#utility.yul\":645:678   */\n      tag_114\n      jump\t// in\n    tag_145:\n        /* \"#utility.yul\":545:684   */\n      swap3\n      swap2\n      pop\n      pop\n      jump\t// out\n        /* \"#utility.yul\":690:1164   */\n    tag_13:\n        /* \"#utility.yul\":758:764   */\n      0x00\n        /* \"#utility.yul\":766:772   */\n      dup1\n        /* \"#utility.yul\":815:817   */\n      0x40\n        /* \"#utility.yul\":803:812   */\n      dup4\n        /* \"#utility.yul\":794:801   */\n      dup6\n        /* \"#utility.yul\":790:813   */\n      sub\n        /* \"#utility.yul\":786:818   */\n      slt\n        /* \"#utility.yul\":783:902   */\n      iszero\n      tag_147\n      jumpi\n        /* \"#utility.yul\":821:900   */\n      tag_148\n      tag_111\n      jump\t// in\n    tag_148:\n        /* \"#utility.yul\":783:902   */\n    tag_147:\n        /* \"#utility.yul\":941:942   */\n      0x00\n        /* \"#utility.yul\":966:1019   */\n      tag_149\n        /* \"#utility.yul\":1011:1018   */\n      dup6\n        /* \"#utility.yul\":1002:1008   */\n      dup3\n        /* \"#utility.yul\":991:1000   */\n      dup7\n        /* \"#utility.yul\":987:1009   */\n      add\n        /* \"#utility.yul\":966:1019   */\n      tag_115\n      jump\t// in\n    tag_149:\n        /* \"#utility.yul\":956:1019   */\n      swap3\n      pop\n        /* \"#utility.yul\":912:1029   */\n      pop\n        /* \"#utility.yul\":1068:1070   */\n      0x20\n        /* \"#utility.yul\":1094:1147   */\n      tag_150\n        /* \"#utility.yul\":1139:1146   */\n      dup6\n        /* \"#utility.yul\":1130:1136   */\n      dup3\n        /* \"#utility.yul\":1119:1128   */\n      dup7\n        /* \"#utility.yul\":1115:1137   */\n      add\n        /* \"#utility.yul\":1094:1147   */\n      tag_115\n      jump\t// in\n    tag_150:\n        /* \"#utility.yul\":1084:1147   */\n      swap2\n      pop\n        /* \"#utility.yul\":1039:1157   */\n      pop\n        /* \"#utility.yul\":690:1164   */\n      swap3\n      pop\n      swap3\n      swap1\n      pop\n      jump\t// out\n        /* \"#utility.yul\":1170:1288   */\n    tag_116:\n        /* \"#utility.yul\":1257:1281   */\n      tag_152\n        /* \"#utility.yul\":1275:1280   */\n      dup2\n        /* \"#utility.yul\":1257:1281   */\n      tag_113\n      jump\t// in\n    tag_152:\n        /* \"#utility.yul\":1252:1255   */\n      dup3\n        /* \"#utility.yul\":1245:1282   */\n      mstore\n        /* \"#utility.yul\":1170:1288   */\n      pop\n      pop\n      jump\t// out\n        /* \"#utility.yul\":1294:1516   */\n    tag_16:\n        /* \"#utility.yul\":1387:1391   */\n      0x00\n        /* \"#utility.yul\":1425:1427   */\n      0x20\n        /* \"#utility.yul\":1414:1423   */\n      dup3\n        /* \"#utility.yul\":1410:1428   */\n      add\n        /* \"#utility.yul\":1402:1428   */\n      swap1\n      pop\n        /* \"#utility.yul\":1438:1509   */\n      tag_154\n        /* \"#utility.yul\":1506:1507   */\n      0x00\n        /* \"#utility.yul\":1495:1504   */\n      dup4\n        /* \"#utility.yul\":1491:1508   */\n      add\n        /* \"#utility.yul\":1482:1488   */\n      dup5\n        /* \"#utility.yul\":1438:1509   */\n      tag_116\n      jump\t// in\n    tag_154:\n        /* \"#utility.yul\":1294:1516   */\n      swap3\n      swap2\n      pop\n      pop\n      jump\t// out\n        /* \"#utility.yul\":1522:1851   */\n    tag_22:\n        /* \"#utility.yul\":1581:1587   */\n      0x00\n        /* \"#utility.yul\":1630:1632   */\n      0x20\n        /* \"#utility.yul\":1618:1627   */\n      dup3\n        /* \"#utility.yul\":1609:1616   */\n      dup5\n        /* \"#utility.yul\":1605:1628   */\n      sub\n        /* \"#utility.yul\":1601:1633   */\n      slt\n        /* \"#utility.yul\":1598:1717   */\n      iszero\n      tag_156\n      jumpi\n        /* \"#utility.yul\":1636:1715   */\n      tag_157\n      tag_111\n      jump\t// in\n    tag_157:\n        /* \"#utility.yul\":1598:1717   */\n    tag_156:\n        /* \"#utility.yul\":1756:1757   */\n      0x00\n        /* \"#utility.yul\":1781:1834   */\n      tag_158\n        /* \"#utility.yul\":1826:1833   */\n      dup5\n        /* \"#utility.yul\":1817:1823   */\n      dup3\n        /* \"#utility.yul\":1806:1815   */\n      dup6\n        /* \"#utility.yul\":1802:1824   */\n      add\n        /* \"#utility.yul\":1781:1834   */\n      tag_115\n      jump\t// in\n    tag_158:\n        /* \"#utility.yul\":1771:1834   */\n      swap2\n      pop\n        /* \"#utility.yul\":1727:1844   */\n      pop\n        /* \"#utility.yul\":1522:1851   */\n      swap3\n      swap2\n      pop\n      pop\n      jump\t// out\n        /* \"#utility.yul\":1857:1947   */\n    tag_117:\n        /* \"#utility.yul\":1891:1898   */\n      0x00\n        /* \"#utility.yul\":1934:1939   */\n      dup2\n        /* \"#utility.yul\":1927:1940   */\n      iszero\n        /* \"#utility.yul\":1920:1941   */\n      iszero\n        /* \"#utility.yul\":1909:1941   */\n      swap1\n      pop\n        /* \"#utility.yul\":1857:1947   */\n      swap2\n      swap1\n      pop\n      jump\t// out\n        /* \"#utility.yul\":1953:2062   */\n    tag_118:\n        /* \"#utility.yul\":2034:2055   */\n      tag_161\n        /* \"#utility.yul\":2049:2054   */\n      dup2\n        /* \"#utility.yul\":2034:2055   */\n      tag_117\n      jump\t// in\n    tag_161:\n        /* \"#utility.yul\":2029:2032   */\n      dup3\n        /* \"#utility.yul\":2022:2056   */\n      mstore\n        /* \"#utility.yul\":1953:2062   */\n      pop\n      pop\n      jump\t// out\n        /* \"#utility.yul\":2068:2278   */\n    tag_25:\n        /* \"#utility.yul\":2155:2159   */\n      0x00\n        /* \"#utility.yul\":2193:2195   */\n      0x20\n        /* \"#utility.yul\":2182:2191   */\n      dup3\n        /* \"#utility.yul\":2178:2196   */\n      add\n        /* \"#utility.yul\":2170:2196   */\n      swap1\n      pop\n        /* \"#utility.yul\":2206:2271   */\n      tag_163\n        /* \"#utility.yul\":2268:2269   */\n      0x00\n        /* \"#utility.yul\":2257:2266   */\n      dup4\n        /* \"#utility.yul\":2253:2270   */\n      add\n        /* \"#utility.yul\":2244:2250   */\n      dup5\n        /* \"#utility.yul\":2206:2271   */\n      tag_118\n      jump\t// in\n    tag_163:\n        /* \"#utility.yul\":2068:2278   */\n      swap3\n      swap2\n      pop\n      pop\n      jump\t// out\n        /* \"#utility.yul\":2284:2401   */\n    tag_119:\n        /* \"#utility.yul\":2393:2394   */\n      0x00\n        /* \"#utility.yul\":2390:2391   */\n      dup1\n        /* \"#utility.yul\":2383:2395   */\n      revert\n        /* \"#utility.yul\":2407:2509   */\n    tag_120:\n        /* \"#utility.yul\":2448:2454   */\n      0x00\n        /* \"#utility.yul\":2499:2501   */\n      0x1f\n        /* \"#utility.yul\":2495:2502   */\n      not\n        /* \"#utility.yul\":2490:2492   */\n      0x1f\n        /* \"#utility.yul\":2483:2488   */\n      dup4\n        /* \"#utility.yul\":2479:2493   */\n      add\n        /* \"#utility.yul\":2475:2503   */\n      and\n        /* \"#utility.yul\":2465:2503   */\n      swap1\n      pop\n        /* \"#utility.yul\":2407:2509   */\n      swap2\n      swap1\n      pop\n      jump\t// out\n        /* \"#utility.yul\":2515:2695   */\n    tag_121:\n        /* \"#utility.yul\":2563:2640   */\n      0x4e487b7100000000000000000000000000000000000000000000000000000000\n        /* \"#utility.yul\":2560:2561   */\n      0x00\n        /* \"#utility.yul\":2553:2641   */\n      mstore\n        /* \"#utility.yul\":2660:2664   */\n      0x41\n        /* \"#utility.yul\":2657:2658   */\n      0x04\n        /* \"#utility.yul\":2650:2665   */\n      mstore\n        /* \"#utility.yul\":2684:2688   */\n      0x24\n        /* \"#utility.yul\":2681:2682   */\n      0x00\n        /* \"#utility.yul\":2674:2689   */\n      revert\n        /* \"#utility.yul\":2701:2982   */\n    tag_122:\n        /* \"#utility.yul\":2784:2811   */\n      tag_168\n        /* \"#utility.yul\":2806:2810   */\n      dup3\n        /* \"#utility.yul\":2784:2811   */\n      tag_120\n      jump\t// in\n    tag_168:\n        /* \"#utility.yul\":2776:2782   */\n      dup2\n        /* \"#utility.yul\":2772:2812   */\n      add\n        /* \"#utility.yul\":2914:2920   */\n      dup2\n        /* \"#utility.yul\":2902:2912   */\n      dup2\n        /* \"#utility.yul\":2899:2921   */\n      lt\n        /* \"#utility.yul\":2878:2896   */\n      0xffffffffffffffff\n        /* \"#utility.yul\":2866:2876   */\n      dup3\n        /* \"#utility.yul\":2863:2897   */\n      gt\n        /* \"#utility.yul\":2860:2922   */\n      or\n        /* \"#utility.yul\":2857:2945   */\n      iszero\n      tag_169\n      jumpi\n        /* \"#utility.yul\":2925:2943   */\n      tag_170\n      tag_121\n      jump\t// in\n    tag_170:\n        /* \"#utility.yul\":2857:2945   */\n    tag_169:\n        /* \"#utility.yul\":2965:2975   */\n      dup1\n        /* \"#utility.yul\":2961:2963   */\n      0x40\n        /* \"#utility.yul\":2954:2976   */\n      mstore\n        /* \"#utility.yul\":2744:2982   */\n      pop\n        /* \"#utility.yul\":2701:2982   */\n      pop\n      pop\n      jump\t// out\n        /* \"#utility.yul\":2988:3117   */\n    tag_123:\n        /* \"#utility.yul\":3022:3028   */\n      0x00\n        /* \"#utility.yul\":3049:3069   */\n      tag_172\n      tag_110\n      jump\t// in\n    tag_172:\n        /* \"#utility.yul\":3039:3069   */\n      swap1\n      pop\n        /* \"#utility.yul\":3078:3111   */\n      tag_173\n        /* \"#utility.yul\":3106:3110   */\n      dup3\n        /* \"#utility.yul\":3098:3104   */\n      dup3\n        /* \"#utility.yul\":3078:3111   */\n      tag_122\n      jump\t// in\n    tag_173:\n        /* \"#utility.yul\":2988:3117   */\n      swap2\n      swap1\n      pop\n      jump\t// out\n        /* \"#utility.yul\":3123:3434   */\n    tag_124:\n        /* \"#utility.yul\":3200:3204   */\n      0x00\n        /* \"#utility.yul\":3290:3308   */\n      0xffffffffffffffff\n        /* \"#utility.yul\":3282:3288   */\n      dup3\n        /* \"#utility.yul\":3279:3309   */\n      gt\n        /* \"#utility.yul\":3276:3332   */\n      iszero\n      tag_175\n      jumpi\n        /* \"#utility.yul\":3312:3330   */\n      tag_176\n      tag_121\n      jump\t// in\n    tag_176:\n        /* \"#utility.yul\":3276:3332   */\n    tag_175:\n        /* \"#utility.yul\":3362:3366   */\n      0x20\n        /* \"#utility.yul\":3354:3360   */\n      dup3\n        /* \"#utility.yul\":3350:3367   */\n      mul\n        /* \"#utility.yul\":3342:3367   */\n      swap1\n      pop\n        /* \"#utility.yul\":3422:3426   */\n      0x20\n        /* \"#utility.yul\":3416:3420   */\n      dup2\n        /* \"#utility.yul\":3412:3427   */\n      add\n        /* \"#utility.yul\":3404:3427   */\n      swap1\n      pop\n        /* \"#utility.yul\":3123:3434   */\n      swap2\n      swap1\n      pop\n      jump\t// out\n        /* \"#utility.yul\":3440:3557   */\n    tag_125:\n        /* \"#utility.yul\":3549:3550   */\n      0x00\n        /* \"#utility.yul\":3546:3547   */\n      dup1\n        /* \"#utility.yul\":3539:3551   */\n      revert\n        /* \"#utility.yul\":3580:4290   */\n    tag_126:\n        /* \"#utility.yul\":3676:3681   */\n      0x00\n        /* \"#utility.yul\":3701:3782   */\n      tag_179\n        /* \"#utility.yul\":3717:3781   */\n      tag_180\n        /* \"#utility.yul\":3774:3780   */\n      dup5\n        /* \"#utility.yul\":3717:3781   */\n      tag_124\n      jump\t// in\n    tag_180:\n        /* \"#utility.yul\":3701:3782   */\n      tag_123\n      jump\t// in\n    tag_179:\n        /* \"#utility.yul\":3692:3782   */\n      swap1\n      pop\n        /* \"#utility.yul\":3802:3807   */\n      dup1\n        /* \"#utility.yul\":3831:3837   */\n      dup4\n        /* \"#utility.yul\":3824:3829   */\n      dup3\n        /* \"#utility.yul\":3817:3838   */\n      mstore\n        /* \"#utility.yul\":3865:3869   */\n      0x20\n        /* \"#utility.yul\":3858:3863   */\n      dup3\n        /* \"#utility.yul\":3854:3870   */\n      add\n        /* \"#utility.yul\":3847:3870   */\n      swap1\n      pop\n        /* \"#utility.yul\":3918:3922   */\n      0x20\n        /* \"#utility.yul\":3910:3916   */\n      dup5\n        /* \"#utility.yul\":3906:3923   */\n      mul\n        /* \"#utility.yul\":3898:3904   */\n      dup4\n        /* \"#utility.yul\":3894:3924   */\n      add\n        /* \"#utility.yul\":3947:3950   */\n      dup6\n        /* \"#utility.yul\":3939:3945   */\n      dup2\n        /* \"#utility.yul\":3936:3951   */\n      gt\n        /* \"#utility.yul\":3933:4055   */\n      iszero\n      tag_181\n      jumpi\n        /* \"#utility.yul\":3966:4045   */\n      tag_182\n      tag_125\n      jump\t// in\n    tag_182:\n        /* \"#utility.yul\":3933:4055   */\n    tag_181:\n        /* \"#utility.yul\":4081:4087   */\n      dup4\n        /* \"#utility.yul\":4064:4284   */\n    tag_183:\n        /* \"#utility.yul\":4098:4104   */\n      dup2\n        /* \"#utility.yul\":4093:4096   */\n      dup2\n        /* \"#utility.yul\":4090:4105   */\n      lt\n        /* \"#utility.yul\":4064:4284   */\n      iszero\n      tag_185\n      jumpi\n        /* \"#utility.yul\":4173:4176   */\n      dup1\n        /* \"#utility.yul\":4202:4239   */\n      tag_186\n        /* \"#utility.yul\":4235:4238   */\n      dup9\n        /* \"#utility.yul\":4223:4233   */\n      dup3\n        /* \"#utility.yul\":4202:4239   */\n      tag_115\n      jump\t// in\n    tag_186:\n        /* \"#utility.yul\":4197:4200   */\n      dup5\n        /* \"#utility.yul\":4190:4240   */\n      mstore\n        /* \"#utility.yul\":4269:4273   */\n      0x20\n        /* \"#utility.yul\":4264:4267   */\n      dup5\n        /* \"#utility.yul\":4260:4274   */\n      add\n        /* \"#utility.yul\":4253:4274   */\n      swap4\n      pop\n        /* \"#utility.yul\":4140:4284   */\n      pop\n        /* \"#utility.yul\":4124:4128   */\n      0x20\n        /* \"#utility.yul\":4119:4122   */\n      dup2\n        /* \"#utility.yul\":4115:4129   */\n      add\n        /* \"#utility.yul\":4108:4129   */\n      swap1\n      pop\n        /* \"#utility.yul\":4064:4284   */\n      jump(tag_183)\n    tag_185:\n        /* \"#utility.yul\":4068:4089   */\n      pop\n        /* \"#utility.yul\":3682:4290   */\n      pop\n      pop\n        /* \"#utility.yul\":3580:4290   */\n      swap4\n      swap3\n      pop\n      pop\n      pop\n      jump\t// out\n        /* \"#utility.yul\":4313:4683   */\n    tag_127:\n        /* \"#utility.yul\":4384:4389   */\n      0x00\n        /* \"#utility.yul\":4433:4436   */\n      dup3\n        /* \"#utility.yul\":4426:4430   */\n      0x1f\n        /* \"#utility.yul\":4418:4424   */\n      dup4\n        /* \"#utility.yul\":4414:4431   */\n      add\n        /* \"#utility.yul\":4410:4437   */\n      slt\n        /* \"#utility.yul\":4400:4522   */\n      tag_188\n      jumpi\n        /* \"#utility.yul\":4441:4520   */\n      tag_189\n      tag_119\n      jump\t// in\n    tag_189:\n        /* \"#utility.yul\":4400:4522   */\n    tag_188:\n        /* \"#utility.yul\":4558:4564   */\n      dup2\n        /* \"#utility.yul\":4545:4565   */\n      calldataload\n        /* \"#utility.yul\":4583:4677   */\n      tag_190\n        /* \"#utility.yul\":4673:4676   */\n      dup5\n        /* \"#utility.yul\":4665:4671   */\n      dup3\n        /* \"#utility.yul\":4658:4662   */\n      0x20\n        /* \"#utility.yul\":4650:4656   */\n      dup7\n        /* \"#utility.yul\":4646:4663   */\n      add\n        /* \"#utility.yul\":4583:4677   */\n      tag_126\n      jump\t// in\n    tag_190:\n        /* \"#utility.yul\":4574:4677   */\n      swap2\n      pop\n        /* \"#utility.yul\":4390:4683   */\n      pop\n        /* \"#utility.yul\":4313:4683   */\n      swap3\n      swap2\n      pop\n      pop\n      jump\t// out\n        /* \"#utility.yul\":4689:5228   */\n    tag_31:\n        /* \"#utility.yul\":4773:4779   */\n      0x00\n        /* \"#utility.yul\":4822:4824   */\n      0x20\n        /* \"#utility.yul\":4810:4819   */\n      dup3\n        /* \"#utility.yul\":4801:4808   */\n      dup5\n        /* \"#utility.yul\":4797:4820   */\n      sub\n        /* \"#utility.yul\":4793:4825   */\n      slt\n        /* \"#utility.yul\":4790:4909   */\n      iszero\n      tag_192\n      jumpi\n        /* \"#utility.yul\":4828:4907   */\n      tag_193\n      tag_111\n      jump\t// in\n    tag_193:\n        /* \"#utility.yul\":4790:4909   */\n    tag_192:\n        /* \"#utility.yul\":4976:4977   */\n      0x00\n        /* \"#utility.yul\":4965:4974   */\n      dup3\n        /* \"#utility.yul\":4961:4978   */\n      add\n        /* \"#utility.yul\":4948:4979   */\n      calldataload\n        /* \"#utility.yul\":5006:5024   */\n      0xffffffffffffffff\n        /* \"#utility.yul\":4998:5004   */\n      dup2\n        /* \"#utility.yul\":4995:5025   */\n      gt\n        /* \"#utility.yul\":4992:5109   */\n      iszero\n      tag_194\n      jumpi\n        /* \"#utility.yul\":5028:5107   */\n      tag_195\n      tag_112\n      jump\t// in\n    tag_195:\n        /* \"#utility.yul\":4992:5109   */\n    tag_194:\n        /* \"#utility.yul\":5133:5211   */\n      tag_196\n        /* \"#utility.yul\":5203:5210   */\n      dup5\n        /* \"#utility.yul\":5194:5200   */\n      dup3\n        /* \"#utility.yul\":5183:5192   */\n      dup6\n        /* \"#utility.yul\":5179:5201   */\n      add\n        /* \"#utility.yul\":5133:5211   */\n      tag_127\n      jump\t// in\n    tag_196:\n        /* \"#utility.yul\":5123:5211   */\n      swap2\n      pop\n        /* \"#utility.yul\":4919:5221   */\n      pop\n        /* \"#utility.yul\":4689:5228   */\n      swap3\n      swap2\n      pop\n      pop\n      jump\t// out\n        /* \"#utility.yul\":5234:5348   */\n    tag_128:\n        /* \"#utility.yul\":5301:5307   */\n      0x00\n        /* \"#utility.yul\":5335:5340   */\n      dup2\n        /* \"#utility.yul\":5329:5341   */\n      mload\n        /* \"#utility.yul\":5319:5341   */\n      swap1\n      pop\n        /* \"#utility.yul\":5234:5348   */\n      swap2\n      swap1\n      pop\n      jump\t// out\n        /* \"#utility.yul\":5354:5538   */\n    tag_129:\n        /* \"#utility.yul\":5453:5464   */\n      0x00\n        /* \"#utility.yul\":5487:5493   */\n      dup3\n        /* \"#utility.yul\":5482:5485   */\n      dup3\n        /* \"#utility.yul\":5475:5494   */\n      mstore\n        /* \"#utility.yul\":5527:5531   */\n      0x20\n        /* \"#utility.yul\":5522:5525   */\n      dup3\n        /* \"#utility.yul\":5518:5532   */\n      add\n        /* \"#utility.yul\":5503:5532   */\n      swap1\n      pop\n        /* \"#utility.yul\":5354:5538   */\n      swap3\n      swap2\n      pop\n      pop\n      jump\t// out\n        /* \"#utility.yul\":5544:5676   */\n    tag_130:\n        /* \"#utility.yul\":5611:5615   */\n      0x00\n        /* \"#utility.yul\":5634:5637   */\n      dup2\n        /* \"#utility.yul\":5626:5637   */\n      swap1\n      pop\n        /* \"#utility.yul\":5664:5668   */\n      0x20\n        /* \"#utility.yul\":5659:5662   */\n      dup3\n        /* \"#utility.yul\":5655:5669   */\n      add\n        /* \"#utility.yul\":5647:5669   */\n      swap1\n      pop\n        /* \"#utility.yul\":5544:5676   */\n      swap2\n      swap1\n      pop\n      jump\t// out\n        /* \"#utility.yul\":5682:5790   */\n    tag_131:\n        /* \"#utility.yul\":5759:5783   */\n      tag_201\n        /* \"#utility.yul\":5777:5782   */\n      dup2\n        /* \"#utility.yul\":5759:5783   */\n      tag_113\n      jump\t// in\n    tag_201:\n        /* \"#utility.yul\":5754:5757   */\n      dup3\n        /* \"#utility.yul\":5747:5784   */\n      mstore\n        /* \"#utility.yul\":5682:5790   */\n      pop\n      pop\n      jump\t// out\n        /* \"#utility.yul\":5796:5975   */\n    tag_132:\n        /* \"#utility.yul\":5865:5875   */\n      0x00\n        /* \"#utility.yul\":5886:5932   */\n      tag_203\n        /* \"#utility.yul\":5928:5931   */\n      dup4\n        /* \"#utility.yul\":5920:5926   */\n      dup4\n        /* \"#utility.yul\":5886:5932   */\n      tag_131\n      jump\t// in\n    tag_203:\n        /* \"#utility.yul\":5964:5968   */\n      0x20\n        /* \"#utility.yul\":5959:5962   */\n      dup4\n        /* \"#utility.yul\":5955:5969   */\n      add\n        /* \"#utility.yul\":5941:5969   */\n      swap1\n      pop\n        /* \"#utility.yul\":5796:5975   */\n      swap3\n      swap2\n      pop\n      pop\n      jump\t// out\n        /* \"#utility.yul\":5981:6094   */\n    tag_133:\n        /* \"#utility.yul\":6051:6055   */\n      0x00\n        /* \"#utility.yul\":6083:6087   */\n      0x20\n        /* \"#utility.yul\":6078:6081   */\n      dup3\n        /* \"#utility.yul\":6074:6088   */\n      add\n        /* \"#utility.yul\":6066:6088   */\n      swap1\n      pop\n        /* \"#utility.yul\":5981:6094   */\n      swap2\n      swap1\n      pop\n      jump\t// out\n        /* \"#utility.yul\":6130:6862   */\n    tag_134:\n        /* \"#utility.yul\":6249:6252   */\n      0x00\n        /* \"#utility.yul\":6278:6332   */\n      tag_206\n        /* \"#utility.yul\":6326:6331   */\n      dup3\n        /* \"#utility.yul\":6278:6332   */\n      tag_128\n      jump\t// in\n    tag_206:\n        /* \"#utility.yul\":6348:6434   */\n      tag_207\n        /* \"#utility.yul\":6427:6433   */\n      dup2\n        /* \"#utility.yul\":6422:6425   */\n      dup6\n        /* \"#utility.yul\":6348:6434   */\n      tag_129\n      jump\t// in\n    tag_207:\n        /* \"#utility.yul\":6341:6434   */\n      swap4\n      pop\n        /* \"#utility.yul\":6458:6514   */\n      tag_208\n        /* \"#utility.yul\":6508:6513   */\n      dup4\n        /* \"#utility.yul\":6458:6514   */\n      tag_130\n      jump\t// in\n    tag_208:\n        /* \"#utility.yul\":6537:6544   */\n      dup1\n        /* \"#utility.yul\":6568:6569   */\n      0x00\n        /* \"#utility.yul\":6553:6837   */\n    tag_209:\n        /* \"#utility.yul\":6578:6584   */\n      dup4\n        /* \"#utility.yul\":6575:6576   */\n      dup2\n        /* \"#utility.yul\":6572:6585   */\n      lt\n        /* \"#utility.yul\":6553:6837   */\n      iszero\n      tag_211\n      jumpi\n        /* \"#utility.yul\":6654:6660   */\n      dup2\n        /* \"#utility.yul\":6648:6661   */\n      mload\n        /* \"#utility.yul\":6681:6744   */\n      tag_212\n        /* \"#utility.yul\":6740:6743   */\n      dup9\n        /* \"#utility.yul\":6725:6738   */\n      dup3\n        /* \"#utility.yul\":6681:6744   */\n      tag_132\n      jump\t// in\n    tag_212:\n        /* \"#utility.yul\":6674:6744   */\n      swap8\n      pop\n        /* \"#utility.yul\":6767:6827   */\n      tag_213\n        /* \"#utility.yul\":6820:6826   */\n      dup4\n        /* \"#utility.yul\":6767:6827   */\n      tag_133\n      jump\t// in\n    tag_213:\n        /* \"#utility.yul\":6757:6827   */\n      swap3\n      pop\n        /* \"#utility.yul\":6613:6837   */\n      pop\n        /* \"#utility.yul\":6600:6601   */\n      0x01\n        /* \"#utility.yul\":6597:6598   */\n      dup2\n        /* \"#utility.yul\":6593:6602   */\n      add\n        /* \"#utility.yul\":6588:6602   */\n      swap1\n      pop\n        /* \"#utility.yul\":6553:6837   */\n      jump(tag_209)\n    tag_211:\n        /* \"#utility.yul\":6557:6571   */\n      pop\n        /* \"#utility.yul\":6853:6856   */\n      dup6\n        /* \"#utility.yul\":6846:6856   */\n      swap4\n      pop\n        /* \"#utility.yul\":6254:6862   */\n      pop\n      pop\n      pop\n        /* \"#utility.yul\":6130:6862   */\n      swap3\n      swap2\n      pop\n      pop\n      jump\t// out\n        /* \"#utility.yul\":6868:7241   */\n    tag_34:\n        /* \"#utility.yul\":7011:7015   */\n      0x00\n        /* \"#utility.yul\":7049:7051   */\n      0x20\n        /* \"#utility.yul\":7038:7047   */\n      dup3\n        /* \"#utility.yul\":7034:7052   */\n      add\n        /* \"#utility.yul\":7026:7052   */\n      swap1\n      pop\n        /* \"#utility.yul\":7098:7107   */\n      dup2\n        /* \"#utility.yul\":7092:7096   */\n      dup2\n        /* \"#utility.yul\":7088:7108   */\n      sub\n        /* \"#utility.yul\":7084:7085   */\n      0x00\n        /* \"#utility.yul\":7073:7082   */\n      dup4\n        /* \"#utility.yul\":7069:7086   */\n      add\n        /* \"#utility.yul\":7062:7109   */\n      mstore\n        /* \"#utility.yul\":7126:7234   */\n      tag_215\n        /* \"#utility.yul\":7229:7233   */\n      dup2\n        /* \"#utility.yul\":7220:7226   */\n      dup5\n        /* \"#utility.yul\":7126:7234   */\n      tag_134\n      jump\t// in\n    tag_215:\n        /* \"#utility.yul\":7118:7234   */\n      swap1\n      pop\n        /* \"#utility.yul\":6868:7241   */\n      swap3\n      swap2\n      pop\n      pop\n      jump\t// out\n        /* \"#utility.yul\":7247:7427   */\n    tag_135:\n        /* \"#utility.yul\":7295:7372   */\n      0x4e487b7100000000000000000000000000000000000000000000000000000000\n        /* \"#utility.yul\":7292:7293   */\n      0x00\n        /* \"#utility.yul\":7285:7373   */\n      mstore\n        /* \"#utility.yul\":7392:7396   */\n      0x11\n        /* \"#utility.yul\":7389:7390   */\n      0x04\n        /* \"#utility.yul\":7382:7397   */\n      mstore\n        /* \"#utility.yul\":7416:7420   */\n      0x24\n        /* \"#utility.yul\":7413:7414   */\n      0x00\n        /* \"#utility.yul\":7406:7421   */\n      revert\n        /* \"#utility.yul\":7433:7624   */\n    tag_50:\n        /* \"#utility.yul\":7473:7476   */\n      0x00\n        /* \"#utility.yul\":7492:7512   */\n      tag_218\n        /* \"#utility.yul\":7510:7511   */\n      dup3\n        /* \"#utility.yul\":7492:7512   */\n      tag_113\n      jump\t// in\n    tag_218:\n        /* \"#utility.yul\":7487:7512   */\n      swap2\n      pop\n        /* \"#utility.yul\":7526:7546   */\n      tag_219\n        /* \"#utility.yul\":7544:7545   */\n      dup4\n        /* \"#utility.yul\":7526:7546   */\n      tag_113\n      jump\t// in\n    tag_219:\n        /* \"#utility.yul\":7521:7546   */\n      swap3\n      pop\n        /* \"#utility.yul\":7569:7570   */\n      dup3\n        /* \"#utility.yul\":7566:7567   */\n      dup3\n        /* \"#utility.yul\":7562:7571   */\n      add\n        /* \"#utility.yul\":7555:7571   */\n      swap1\n      pop\n        /* \"#utility.yul\":7590:7593   */\n      dup1\n        /* \"#utility.yul\":7587:7588   */\n      dup3\n        /* \"#utility.yul\":7584:7594   */\n      gt\n        /* \"#utility.yul\":7581:7617   */\n      iszero\n      tag_220\n      jumpi\n        /* \"#utility.yul\":7597:7615   */\n      tag_221\n      tag_135\n      jump\t// in\n    tag_221:\n        /* \"#utility.yul\":7581:7617   */\n    tag_220:\n        /* \"#utility.yul\":7433:7624   */\n      swap3\n      swap2\n      pop\n      pop\n      jump\t// out\n        /* \"#utility.yul\":7630:7863   */\n    tag_52:\n        /* \"#utility.yul\":7669:7672   */\n      0x00\n        /* \"#utility.yul\":7692:7716   */\n      tag_223\n        /* \"#utility.yul\":7710:7715   */\n      dup3\n        /* \"#utility.yul\":7692:7716   */\n      tag_113\n      jump\t// in\n    tag_223:\n        /* \"#utility.yul\":7683:7716   */\n      swap2\n      pop\n        /* \"#utility.yul\":7738:7804   */\n      0xffffffffffffffffffffffffffffffffffffffffffffffffffffffffffffffff\n        /* \"#utility.yul\":7731:7736   */\n      dup3\n        /* \"#utility.yul\":7728:7805   */\n      sub\n        /* \"#utility.yul\":7725:7828   */\n      tag_224\n      jumpi\n        /* \"#utility.yul\":7808:7826   */\n      tag_225\n      tag_135\n      jump\t// in\n    tag_225:\n        /* \"#utility.yul\":7725:7828   */\n    tag_224:\n        /* \"#utility.yul\":7855:7856   */\n      0x01\n        /* \"#utility.yul\":7848:7853   */\n      dup3\n        /* \"#utility.yul\":7844:7857   */\n      add\n        /* \"#utility.yul\":7837:7857   */\n      swap1\n      pop\n        /* \"#utility.yul\":7630:7863   */\n      swap2\n      swap1\n      pop\n      jump\t// out\n        /* \"#utility.yul\":7869:8049   */\n    tag_67:\n        /* \"#utility.yul\":7917:7994   */\n      0x4e487b7100000000000000000000000000000000000000000000000000000000\n        /* \"#utility.yul\":7914:7915   */\n      0x00\n        /* \"#utility.yul\":7907:7995   */\n      mstore\n        /* \"#utility.yul\":8014:8018   */\n      0x32\n        /* \"#utility.yul\":8011:8012   */\n      0x04\n        /* \"#utility.yul\":8004:8019   */\n      mstore\n        /* \"#utility.yul\":8038:8042   */\n      0x24\n        /* \"#utility.yul\":8035:8036   */\n      0x00\n        /* \"#utility.yul\":8028:8043   */\n      revert\n        /* \"#utility.yul\":8055:8249   */\n    tag_69:\n        /* \"#utility.yul\":8095:8099   */\n      0x00\n        /* \"#utility.yul\":8115:8135   */\n      tag_228\n        /* \"#utility.yul\":8133:8134   */\n      dup3\n        /* \"#utility.yul\":8115:8135   */\n      tag_113\n      jump\t// in\n    tag_228:\n        /* \"#utility.yul\":8110:8135   */\n      swap2\n      pop\n        /* \"#utility.yul\":8149:8169   */\n      tag_229\n        /* \"#utility.yul\":8167:8168   */\n      dup4\n        /* \"#utility.yul\":8149:8169   */\n      tag_113\n      jump\t// in\n    tag_229:\n        /* \"#utility.yul\":8144:8169   */\n      swap3\n      pop\n        /* \"#utility.yul\":8193:8194   */\n      dup3\n        /* \"#utility.yul\":8190:8191   */\n      dup3\n        /* \"#utility.yul\":8186:8195   */\n      sub\n        /* \"#utility.yul\":8178:8195   */\n      swap1\n      pop\n        /* \"#utility.yul\":8217:8218   */\n      dup2\n        /* \"#utility.yul\":8211:8215   */\n      dup2\n        /* \"#utility.yul\":8208:8219   */\n      gt\n        /* \"#utility.yul\":8205:8242   */\n      iszero\n      tag_230\n      jumpi\n        /* \"#utility.yul\":8222:8240   */\n      tag_231\n      tag_135\n      jump\t// in\n    tag_231:\n        /* \"#utility.yul\":8205:8242   */\n    tag_230:\n        /* \"#utility.yul\":8055:8249   */\n      swap3\n      swap2\n      pop\n      pop\n      jump\t// out\n        /* \"#utility.yul\":8255:8426   */\n    tag_81:\n        /* \"#utility.yul\":8294:8297   */\n      0x00\n        /* \"#utility.yul\":8317:8341   */\n      tag_233\n        /* \"#utility.yul\":8335:8340   */\n      dup3\n        /* \"#utility.yul\":8317:8341   */\n      tag_113\n      jump\t// in\n    tag_233:\n        /* \"#utility.yul\":8308:8341   */\n      swap2\n      pop\n        /* \"#utility.yul\":8363:8367   */\n      0x00\n        /* \"#utility.yul\":8356:8361   */\n      dup3\n        /* \"#utility.yul\":8353:8368   */\n      sub\n        /* \"#utility.yul\":8350:8391   */\n      tag_234\n      jumpi\n        /* \"#utility.yul\":8371:8389   */\n      tag_235\n      tag_135\n      jump\t// in\n    tag_235:\n        /* \"#utility.yul\":8350:8391   */\n    tag_234:\n        /* \"#utility.yul\":8418:8419   */\n      0x01\n        /* \"#utility.yul\":8411:8416   */\n      dup3\n        /* \"#utility.yul\":8407:8420   */\n      sub\n        /* \"#utility.yul\":8400:8420   */\n      swap1\n      pop\n        /* \"#utility.yul\":8255:8426   */\n      swap2\n      swap1\n      pop\n      jump\t// out\n\n    auxdata: 0xa2646970667358221220fbd7e840e1f879a711d94a90e6bc7b6ed2bedc3c8972f1b5f8b900c5a9f884fc64736f6c63430008190033\n}\n",
				"bytecode": {
					"linkReferences": {},
					"object": "6080604052348015600e575f80fd5b506109508061001c5f395ff3fe608060405234801561000f575f80fd5b506004361061007b575f3560e01c80635d14639d116100595780635d14639d146100fd5780636188a6c01461011b5780636297206f1461014b578063b0cfa9fc1461017b5761007b565b8063287663201461007f5780632bbacaaa146100af5780633ab316da146100cd575b5f80fd5b610099600480360381019061009491906104ba565b610199565b6040516100a69190610507565b60405180910390f35b6100b76101b2565b6040516100c49190610507565b60405180910390f35b6100e760048036038101906100e29190610520565b6101e5565b6040516100f49190610565565b60405180910390f35b6101056101ff565b6040516101129190610507565b60405180910390f35b610135600480360381019061013091906106ce565b610238565b60405161014291906107cc565b60405180910390f35b610165600480360381019061016091906106ce565b610343565b60405161017291906107cc565b60405180910390f35b610183610443565b6040516101909190610507565b60405180910390f35b5f818310156101a857816101aa565b825b905092915050565b5f805f90505f5b80826101c59190610819565b915080806101d29061084c565b915050600a81106101b957819250505090565b5f8082036101f657600190506101fa565b5f90505b919050565b5f805f90505f5b600a81101561023057808261021b9190610819565b915080806102289061084c565b915050610206565b819250505090565b60605f600190505b825181101561033a575f83828151811061025d5761025c610893565b5b602002602001015190505f60018361027591906108c0565b90505b5f81101580156102a1575084818151811061029657610295610893565b5b602002602001015182105b156102ff578481815181106102b9576102b8610893565b5b6020026020010151856001836102cf9190610819565b815181106102e0576102df610893565b5b60200260200101818152505080806102f7906108f3565b915050610278565b818560018361030e9190610819565b8151811061031f5761031e610893565b5b60200260200101818152505050508080600101915050610240565b50819050919050565b60605f600190505b825181101561043a575f83828151811061036857610367610893565b5b602002602001015190505f8290505b600181101580156103ad57508460018261039191906108c0565b815181106103a2576103a1610893565b5b602002602001015182105b1561040b57846001826103c091906108c0565b815181106103d1576103d0610893565b5b60200260200101518582815181106103ec576103eb610893565b5b6020026020010181815250508080610403906108f3565b915050610377565b8185828151811061041f5761041e610893565b5b6020026020010181815250505050808060010191505061034b565b50819050919050565b5f805f90505f5b600a81101561046e57808261045f9190610819565b9150808060010191505061044a565b508091505090565b5f604051905090565b5f80fd5b5f80fd5b5f819050919050565b61049981610487565b81146104a3575f80fd5b50565b5f813590506104b481610490565b92915050565b5f80604083850312156104d0576104cf61047f565b5b5f6104dd858286016104a6565b92505060206104ee858286016104a6565b9150509250929050565b61050181610487565b82525050565b5f60208201905061051a5f8301846104f8565b92915050565b5f602082840312156105355761053461047f565b5b5f610542848285016104a6565b91505092915050565b5f8115159050919050565b61055f8161054b565b82525050565b5f6020820190506105785f830184610556565b92915050565b5f80fd5b5f601f19601f8301169050919050565b7f4e487b71000000000000000000000000000000000000000000000000000000005f52604160045260245ffd5b6105c882610582565b810181811067ffffffffffffffff821117156105e7576105e6610592565b5b80604052505050565b5f6105f9610476565b905061060582826105bf565b919050565b5f67ffffffffffffffff82111561062457610623610592565b5b602082029050602081019050919050565b5f80fd5b5f61064b6106468461060a565b6105f0565b9050808382526020820190506020840283018581111561066e5761066d610635565b5b835b81811015610697578061068388826104a6565b845260208401935050602081019050610670565b5050509392505050565b5f82601f8301126106b5576106b461057e565b5b81356106c5848260208601610639565b91505092915050565b5f602082840312156106e3576106e261047f565b5b5f82013567ffffffffffffffff811115610700576106ff610483565b5b61070c848285016106a1565b91505092915050565b5f81519050919050565b5f82825260208201905092915050565b5f819050602082019050919050565b61074781610487565b82525050565b5f610758838361073e565b60208301905092915050565b5f602082019050919050565b5f61077a82610715565b610784818561071f565b935061078f8361072f565b805f5b838110156107bf5781516107a6888261074d565b97506107b183610764565b925050600181019050610792565b5085935050505092915050565b5f6020820190508181035f8301526107e48184610770565b905092915050565b7f4e487b71000000000000000000000000000000000000000000000000000000005f52601160045260245ffd5b5f61082382610487565b915061082e83610487565b9250828201905080821115610846576108456107ec565b5b92915050565b5f61085682610487565b91507fffffffffffffffffffffffffffffffffffffffffffffffffffffffffffffffff8203610888576108876107ec565b5b600182019050919050565b7f4e487b71000000000000000000000000000000000000000000000000000000005f52603260045260245ffd5b5f6108ca82610487565b91506108d583610487565b92508282039050818111156108ed576108ec6107ec565b5b92915050565b5f6108fd82610487565b91505f820361090f5761090e6107ec565b5b60018203905091905056fea2646970667358221220fbd7e840e1f879a711d94a90e6bc7b6ed2bedc3c8972f1b5f8b900c5a9f884fc64736f6c63430008190033",
					"opcodes": "PUSH1 0x80 PUSH1 0x40 MSTORE CALLVALUE DUP1 ISZERO PUSH1 0xE JUMPI PUSH0 DUP1 REVERT JUMPDEST POP PUSH2 0x950 DUP1 PUSH2 0x1C PUSH0 CODECOPY PUSH0 RETURN INVALID PUSH1 0x80 PUSH1 0x40 MSTORE CALLVALUE DUP1 ISZERO PUSH2 0xF JUMPI PUSH0 DUP1 REVERT JUMPDEST POP PUSH1 0x4 CALLDATASIZE LT PUSH2 0x7B JUMPI PUSH0 CALLDATALOAD PUSH1 0xE0 SHR DUP1 PUSH4 0x5D14639D GT PUSH2 0x59 JUMPI DUP1 PUSH4 0x5D14639D EQ PUSH2 0xFD JUMPI DUP1 PUSH4 0x6188A6C0 EQ PUSH2 0x11B JUMPI DUP1 PUSH4 0x6297206F EQ PUSH2 0x14B JUMPI DUP1 PUSH4 0xB0CFA9FC EQ PUSH2 0x17B JUMPI PUSH2 0x7B JUMP JUMPDEST DUP1 PUSH4 0x28766320 EQ PUSH2 0x7F JUMPI DUP1 PUSH4 0x2BBACAAA EQ PUSH2 0xAF JUMPI DUP1 PUSH4 0x3AB316DA EQ PUSH2 0xCD JUMPI JUMPDEST PUSH0 DUP1 REVERT JUMPDEST PUSH2 0x99 PUSH1 0x4 DUP1 CALLDATASIZE SUB DUP2 ADD SWAP1 PUSH2 0x94 SWAP2 SWAP1 PUSH2 0x4BA JUMP JUMPDEST PUSH2 0x199 JUMP JUMPDEST PUSH1 0x40 MLOAD PUSH2 0xA6 SWAP2 SWAP1 PUSH2 0x507 JUMP JUMPDEST PUSH1 0x40 MLOAD DUP1 SWAP2 SUB SWAP1 RETURN JUMPDEST PUSH2 0xB7 PUSH2 0x1B2 JUMP JUMPDEST PUSH1 0x40 MLOAD PUSH2 0xC4 SWAP2 SWAP1 PUSH2 0x507 JUMP JUMPDEST PUSH1 0x40 MLOAD DUP1 SWAP2 SUB SWAP1 RETURN JUMPDEST PUSH2 0xE7 PUSH1 0x4 DUP1 CALLDATASIZE SUB DUP2 ADD SWAP1 PUSH2 0xE2 SWAP2 SWAP1 PUSH2 0x520 JUMP JUMPDEST PUSH2 0x1E5 JUMP JUMPDEST PUSH1 0x40 MLOAD PUSH2 0xF4 SWAP2 SWAP1 PUSH2 0x565 JUMP JUMPDEST PUSH1 0x40 MLOAD DUP1 SWAP2 SUB SWAP1 RETURN JUMPDEST PUSH2 0x105 PUSH2 0x1FF JUMP JUMPDEST PUSH1 0x40 MLOAD PUSH2 0x112 SWAP2 SWAP1 PUSH2 0x507 JUMP JUMPDEST PUSH1 0x40 MLOAD DUP1 SWAP2 SUB SWAP1 RETURN JUMPDEST PUSH2 0x135 PUSH1 0x4 DUP1 CALLDATASIZE SUB DUP2 ADD SWAP1 PUSH2 0x130 SWAP2 SWAP1 PUSH2 0x6CE JUMP JUMPDEST PUSH2 0x238 JUMP JUMPDEST PUSH1 0x40 MLOAD PUSH2 0x142 SWAP2 SWAP1 PUSH2 0x7CC JUMP JUMPDEST PUSH1 0x40 MLOAD DUP1 SWAP2 SUB SWAP1 RETURN JUMPDEST PUSH2 0x165 PUSH1 0x4 DUP1 CALLDATASIZE SUB DUP2 ADD SWAP1 PUSH2 0x160 SWAP2 SWAP1 PUSH2 0x6CE JUMP JUMPDEST PUSH2 0x343 JUMP JUMPDEST PUSH1 0x40 MLOAD PUSH2 0x172 SWAP2 SWAP1 PUSH2 0x7CC JUMP JUMPDEST PUSH1 0x40 MLOAD DUP1 SWAP2 SUB SWAP1 RETURN JUMPDEST PUSH2 0x183 PUSH2 0x443 JUMP JUMPDEST PUSH1 0x40 MLOAD PUSH2 0x190 SWAP2 SWAP1 PUSH2 0x507 JUMP JUMPDEST PUSH1 0x40 MLOAD DUP1 SWAP2 SUB SWAP1 RETURN JUMPDEST PUSH0 DUP2 DUP4 LT ISZERO PUSH2 0x1A8 JUMPI DUP2 PUSH2 0x1AA JUMP JUMPDEST DUP3 JUMPDEST SWAP1 POP SWAP3 SWAP2 POP POP JUMP JUMPDEST PUSH0 DUP1 PUSH0 SWAP1 POP PUSH0 JUMPDEST DUP1 DUP3 PUSH2 0x1C5 SWAP2 SWAP1 PUSH2 0x819 JUMP JUMPDEST SWAP2 POP DUP1 DUP1 PUSH2 0x1D2 SWAP1 PUSH2 0x84C JUMP JUMPDEST SWAP2 POP POP PUSH1 0xA DUP2 LT PUSH2 0x1B9 JUMPI DUP2 SWAP3 POP POP POP SWAP1 JUMP JUMPDEST PUSH0 DUP1 DUP3 SUB PUSH2 0x1F6 JUMPI PUSH1 0x1 SWAP1 POP PUSH2 0x1FA JUMP JUMPDEST PUSH0 SWAP1 POP JUMPDEST SWAP2 SWAP1 POP JUMP JUMPDEST PUSH0 DUP1 PUSH0 SWAP1 POP PUSH0 JUMPDEST PUSH1 0xA DUP2 LT ISZERO PUSH2 0x230 JUMPI DUP1 DUP3 PUSH2 0x21B SWAP2 SWAP1 PUSH2 0x819 JUMP JUMPDEST SWAP2 POP DUP1 DUP1 PUSH2 0x228 SWAP1 PUSH2 0x84C JUMP JUMPDEST SWAP2 POP POP PUSH2 0x206 JUMP JUMPDEST DUP2 SWAP3 POP POP POP SWAP1 JUMP JUMPDEST PUSH1 0x60 PUSH0 PUSH1 0x1 SWAP1 POP JUMPDEST DUP3 MLOAD DUP2 LT ISZERO PUSH2 0x33A JUMPI PUSH0 DUP4 DUP3 DUP2 MLOAD DUP2 LT PUSH2 0x25D JUMPI PUSH2 0x25C PUSH2 0x893 JUMP JUMPDEST JUMPDEST PUSH1 0x20 MUL PUSH1 0x20 ADD ADD MLOAD SWAP1 POP PUSH0 PUSH1 0x1 DUP4 PUSH2 0x275 SWAP2 SWAP1 PUSH2 0x8C0 JUMP JUMPDEST SWAP1 POP JUMPDEST PUSH0 DUP2 LT ISZERO DUP1 ISZERO PUSH2 0x2A1 JUMPI POP DUP5 DUP2 DUP2 MLOAD DUP2 LT PUSH2 0x296 JUMPI PUSH2 0x295 PUSH2 0x893 JUMP JUMPDEST JUMPDEST PUSH1 0x20 MUL PUSH1 0x20 ADD ADD MLOAD DUP3 LT JUMPDEST ISZERO PUSH2 0x2FF JUMPI DUP5 DUP2 DUP2 MLOAD DUP2 LT PUSH2 0x2B9 JUMPI PUSH2 0x2B8 PUSH2 0x893 JUMP JUMPDEST JUMPDEST PUSH1 0x20 MUL PUSH1 0x20 ADD ADD MLOAD DUP6 PUSH1 0x1 DUP4 PUSH2 0x2CF SWAP2 SWAP1 PUSH2 0x819 JUMP JUMPDEST DUP2 MLOAD DUP2 LT PUSH2 0x2E0 JUMPI PUSH2 0x2DF PUSH2 0x893 JUMP JUMPDEST JUMPDEST PUSH1 0x20 MUL PUSH1 0x20 ADD ADD DUP2 DUP2 MSTORE POP POP DUP1 DUP1 PUSH2 0x2F7 SWAP1 PUSH2 0x8F3 JUMP JUMPDEST SWAP2 POP POP PUSH2 0x278 JUMP JUMPDEST DUP2 DUP6 PUSH1 0x1 DUP4 PUSH2 0x30E SWAP2 SWAP1 PUSH2 0x819 JUMP JUMPDEST DUP2 MLOAD DUP2 LT PUSH2 0x31F JUMPI PUSH2 0x31E PUSH2 0x893 JUMP JUMPDEST JUMPDEST PUSH1 0x20 MUL PUSH1 0x20 ADD ADD DUP2 DUP2 MSTORE POP POP POP POP DUP1 DUP1 PUSH1 0x1 ADD SWAP2 POP POP PUSH2 0x240 JUMP JUMPDEST POP DUP2 SWAP1 POP SWAP2 SWAP1 POP JUMP JUMPDEST PUSH1 0x60 PUSH0 PUSH1 0x1 SWAP1 POP JUMPDEST DUP3 MLOAD DUP2 LT ISZERO PUSH2 0x43A JUMPI PUSH0 DUP4 DUP3 DUP2 MLOAD DUP2 LT PUSH2 0x368 JUMPI PUSH2 0x367 PUSH2 0x893 JUMP JUMPDEST JUMPDEST PUSH1 0x20 MUL PUSH1 0x20 ADD ADD MLOAD SWAP1 POP PUSH0 DUP3 SWAP1 POP JUMPDEST PUSH1 0x1 DUP2 LT ISZERO DUP1 ISZERO PUSH2 0x3AD JUMPI POP DUP5 PUSH1 0x1 DUP3 PUSH2 0x391 SWAP2 SWAP1 PUSH2 0x8C0 JUMP JUMPDEST DUP2 MLOAD DUP2 LT PUSH2 0x3A2 JUMPI PUSH2 0x3A1 PUSH2 0x893 JUMP JUMPDEST JUMPDEST PUSH1 0x20 MUL PUSH1 0x20 ADD ADD MLOAD DUP3 LT JUMPDEST ISZERO PUSH2 0x40B JUMPI DUP5 PUSH1 0x1 DUP3 PUSH2 0x3C0 SWAP2 SWAP1 PUSH2 0x8C0 JUMP JUMPDEST DUP2 MLOAD DUP2 LT PUSH2 0x3D1 JUMPI PUSH2 0x3D0 PUSH2 0x893 JUMP JUMPDEST JUMPDEST PUSH1 0x20 MUL PUSH1 0x20 ADD ADD MLOAD DUP6 DUP3 DUP2 MLOAD DUP2 LT PUSH2 0x3EC JUMPI PUSH2 0x3EB PUSH2 0x893 JUMP JUMPDEST JUMPDEST PUSH1 0x20 MUL PUSH1 0x20 ADD ADD DUP2 DUP2 MSTORE POP POP DUP1 DUP1 PUSH2 0x403 SWAP1 PUSH2 0x8F3 JUMP JUMPDEST SWAP2 POP POP PUSH2 0x377 JUMP JUMPDEST DUP2 DUP6 DUP3 DUP2 MLOAD DUP2 LT PUSH2 0x41F JUMPI PUSH2 0x41E PUSH2 0x893 JUMP JUMPDEST JUMPDEST PUSH1 0x20 MUL PUSH1 0x20 ADD ADD DUP2 DUP2 MSTORE POP POP POP POP DUP1 DUP1 PUSH1 0x1 ADD SWAP2 POP POP PUSH2 0x34B JUMP JUMPDEST POP DUP2 SWAP1 POP SWAP2 SWAP1 POP JUMP JUMPDEST PUSH0 DUP1 PUSH0 SWAP1 POP PUSH0 JUMPDEST PUSH1 0xA DUP2 LT ISZERO PUSH2 0x46E JUMPI DUP1 DUP3 PUSH2 0x45F SWAP2 SWAP1 PUSH2 0x819 JUMP JUMPDEST SWAP2 POP DUP1 DUP1 PUSH1 0x1 ADD SWAP2 POP POP PUSH2 0x44A JUMP JUMPDEST POP DUP1 SWAP2 POP POP SWAP1 JUMP JUMPDEST PUSH0 PUSH1 0x40 MLOAD SWAP1 POP SWAP1 JUMP JUMPDEST PUSH0 DUP1 REVERT JUMPDEST PUSH0 DUP1 REVERT JUMPDEST PUSH0 DUP2 SWAP1 POP SWAP2 SWAP1 POP JUMP JUMPDEST PUSH2 0x499 DUP2 PUSH2 0x487 JUMP JUMPDEST DUP2 EQ PUSH2 0x4A3 JUMPI PUSH0 DUP1 REVERT JUMPDEST POP JUMP JUMPDEST PUSH0 DUP2 CALLDATALOAD SWAP1 POP PUSH2 0x4B4 DUP2 PUSH2 0x490 JUMP JUMPDEST SWAP3 SWAP2 POP POP JUMP JUMPDEST PUSH0 DUP1 PUSH1 0x40 DUP4 DUP6 SUB SLT ISZERO PUSH2 0x4D0 JUMPI PUSH2 0x4CF PUSH2 0x47F JUMP JUMPDEST JUMPDEST PUSH0 PUSH2 0x4DD DUP6 DUP3 DUP7 ADD PUSH2 0x4A6 JUMP JUMPDEST SWAP3 POP POP PUSH1 0x20 PUSH2 0x4EE DUP6 DUP3 DUP7 ADD PUSH2 0x4A6 JUMP JUMPDEST SWAP2 POP POP SWAP3 POP SWAP3 SWAP1 POP JUMP JUMPDEST PUSH2 0x501 DUP2 PUSH2 0x487 JUMP JUMPDEST DUP3 MSTORE POP POP JUMP JUMPDEST PUSH0 PUSH1 0x20 DUP3 ADD SWAP1 POP PUSH2 0x51A PUSH0 DUP4 ADD DUP5 PUSH2 0x4F8 JUMP JUMPDEST SWAP3 SWAP2 POP POP JUMP JUMPDEST PUSH0 PUSH1 0x20 DUP3 DUP5 SUB SLT ISZERO PUSH2 0x535 JUMPI PUSH2 0x534 PUSH2 0x47F JUMP JUMPDEST JUMPDEST PUSH0 PUSH2 0x542 DUP5 DUP3 DUP6 ADD PUSH2 0x4A6 JUMP JUMPDEST SWAP2 POP POP SWAP3 SWAP2 POP POP JUMP JUMPDEST PUSH0 DUP2 ISZERO ISZERO SWAP1 POP SWAP2 SWAP1 POP JUMP JUMPDEST PUSH2 0x55F DUP2 PUSH2 0x54B JUMP JUMPDEST DUP3 MSTORE POP POP JUMP JUMPDEST PUSH0 PUSH1 0x20 DUP3 ADD SWAP1 POP PUSH2 0x578 PUSH0 DUP4 ADD DUP5 PUSH2 0x556 JUMP JUMPDEST SWAP3 SWAP2 POP POP JUMP JUMPDEST PUSH0 DUP1 REVERT JUMPDEST PUSH0 PUSH1 0x1F NOT PUSH1 0x1F DUP4 ADD AND SWAP1 POP SWAP2 SWAP1 POP JUMP JUMPDEST PUSH32 0x4E487B7100000000000000000000000000000000000000000000000000000000 PUSH0 MSTORE PUSH1 0x41 PUSH1 0x4 MSTORE PUSH1 0x24 PUSH0 REVERT JUMPDEST PUSH2 0x5C8 DUP3 PUSH2 0x582 JUMP JUMPDEST DUP2 ADD DUP2 DUP2 LT PUSH8 0xFFFFFFFFFFFFFFFF DUP3 GT OR ISZERO PUSH2 0x5E7 JUMPI PUSH2 0x5E6 PUSH2 0x592 JUMP JUMPDEST JUMPDEST DUP1 PUSH1 0x40 MSTORE POP POP POP JUMP JUMPDEST PUSH0 PUSH2 0x5F9 PUSH2 0x476 JUMP JUMPDEST SWAP1 POP PUSH2 0x605 DUP3 DUP3 PUSH2 0x5BF JUMP JUMPDEST SWAP2 SWAP1 POP JUMP JUMPDEST PUSH0 PUSH8 0xFFFFFFFFFFFFFFFF DUP3 GT ISZERO PUSH2 0x624 JUMPI PUSH2 0x623 PUSH2 0x592 JUMP JUMPDEST JUMPDEST PUSH1 0x20 DUP3 MUL SWAP1 POP PUSH1 0x20 DUP2 ADD SWAP1 POP SWAP2 SWAP1 POP JUMP JUMPDEST PUSH0 DUP1 REVERT JUMPDEST PUSH0 PUSH2 0x64B PUSH2 0x646 DUP5 PUSH2 0x60A JUMP JUMPDEST PUSH2 0x5F0 JUMP JUMPDEST SWAP1 POP DUP1 DUP4 DUP3 MSTORE PUSH1 0x20 DUP3 ADD SWAP1 POP PUSH1 0x20 DUP5 MUL DUP4 ADD DUP6 DUP2 GT ISZERO PUSH2 0x66E JUMPI PUSH2 0x66D PUSH2 0x635 JUMP JUMPDEST JUMPDEST DUP4 JUMPDEST DUP2 DUP2 LT ISZERO PUSH2 0x697 JUMPI DUP1 PUSH2 0x683 DUP9 DUP3 PUSH2 0x4A6 JUMP JUMPDEST DUP5 MSTORE PUSH1 0x20 DUP5 ADD SWAP4 POP POP PUSH1 0x20 DUP2 ADD SWAP1 POP PUSH2 0x670 JUMP JUMPDEST POP POP POP SWAP4 SWAP3 POP POP POP JUMP JUMPDEST PUSH0 DUP3 PUSH1 0x1F DUP4 ADD SLT PUSH2 0x6B5 JUMPI PUSH2 0x6B4 PUSH2 0x57E JUMP JUMPDEST JUMPDEST DUP2 CALLDATALOAD PUSH2 0x6C5 DUP5 DUP3 PUSH1 0x20 DUP7 ADD PUSH2 0x639 JUMP JUMPDEST SWAP2 POP POP SWAP3 SWAP2 POP POP JUMP JUMPDEST PUSH0 PUSH1 0x20 DUP3 DUP5 SUB SLT ISZERO PUSH2 0x6E3 JUMPI PUSH2 0x6E2 PUSH2 0x47F JUMP JUMPDEST JUMPDEST PUSH0 DUP3 ADD CALLDATALOAD PUSH8 0xFFFFFFFFFFFFFFFF DUP2 GT ISZERO PUSH2 0x700 JUMPI PUSH2 0x6FF PUSH2 0x483 JUMP JUMPDEST JUMPDEST PUSH2 0x70C DUP5 DUP3 DUP6 ADD PUSH2 0x6A1 JUMP JUMPDEST SWAP2 POP POP SWAP3 SWAP2 POP POP JUMP JUMPDEST PUSH0 DUP2 MLOAD SWAP1 POP SWAP2 SWAP1 POP JUMP JUMPDEST PUSH0 DUP3 DUP3 MSTORE PUSH1 0x20 DUP3 ADD SWAP1 POP SWAP3 SWAP2 POP POP JUMP JUMPDEST PUSH0 DUP2 SWAP1 POP PUSH1 0x20 DUP3 ADD SWAP1 POP SWAP2 SWAP1 POP JUMP JUMPDEST PUSH2 0x747 DUP2 PUSH2 0x487 JUMP JUMPDEST DUP3 MSTORE POP POP JUMP JUMPDEST PUSH0 PUSH2 0x758 DUP4 DUP4 PUSH2 0x73E JUMP JUMPDEST PUSH1 0x20 DUP4 ADD SWAP1 POP SWAP3 SWAP2 POP POP JUMP JUMPDEST PUSH0 PUSH1 0x20 DUP3 ADD SWAP1 POP SWAP2 SWAP1 POP JUMP JUMPDEST PUSH0 PUSH2 0x77A DUP3 PUSH2 0x715 JUMP JUMPDEST PUSH2 0x784 DUP2 DUP6 PUSH2 0x71F JUMP JUMPDEST SWAP4 POP PUSH2 0x78F DUP4 PUSH2 0x72F JUMP JUMPDEST DUP1 PUSH0 JUMPDEST DUP4 DUP2 LT ISZERO PUSH2 0x7BF JUMPI DUP2 MLOAD PUSH2 0x7A6 DUP9 DUP3 PUSH2 0x74D JUMP JUMPDEST SWAP8 POP PUSH2 0x7B1 DUP4 PUSH2 0x764 JUMP JUMPDEST SWAP3 POP POP PUSH1 0x1 DUP2 ADD SWAP1 POP PUSH2 0x792 JUMP JUMPDEST POP DUP6 SWAP4 POP POP POP POP SWAP3 SWAP2 POP POP JUMP JUMPDEST PUSH0 PUSH1 0x20 DUP3 ADD SWAP1 POP DUP2 DUP2 SUB PUSH0 DUP4 ADD MSTORE PUSH2 0x7E4 DUP2 DUP5 PUSH2 0x770 JUMP JUMPDEST SWAP1 POP SWAP3 SWAP2 POP POP JUMP JUMPDEST PUSH32 0x4E487B7100000000000000000000000000000000000000000000000000000000 PUSH0 MSTORE PUSH1 0x11 PUSH1 0x4 MSTORE PUSH1 0x24 PUSH0 REVERT JUMPDEST PUSH0 PUSH2 0x823 DUP3 PUSH2 0x487 JUMP JUMPDEST SWAP2 POP PUSH2 0x82E DUP4 PUSH2 0x487 JUMP JUMPDEST SWAP3 POP DUP3 DUP3 ADD SWAP1 POP DUP1 DUP3 GT ISZERO PUSH2 0x846 JUMPI PUSH2 0x845 PUSH2 0x7EC JUMP JUMPDEST JUMPDEST SWAP3 SWAP2 POP POP JUMP JUMPDEST PUSH0 PUSH2 0x856 DUP3 PUSH2 0x487 JUMP JUMPDEST SWAP2 POP PUSH32 0xFFFFFFFFFFFFFFFFFFFFFFFFFFFFFFFFFFFFFFFFFFFFFFFFFFFFFFFFFFFFFFFF DUP3 SUB PUSH2 0x888 JUMPI PUSH2 0x887 PUSH2 0x7EC JUMP JUMPDEST JUMPDEST PUSH1 0x1 DUP3 ADD SWAP1 POP SWAP2 SWAP1 POP JUMP JUMPDEST PUSH32 0x4E487B7100000000000000000000000000000000000000000000000000000000 PUSH0 MSTORE PUSH1 0x32 PUSH1 0x4 MSTORE PUSH1 0x24 PUSH0 REVERT JUMPDEST PUSH0 PUSH2 0x8CA DUP3 PUSH2 0x487 JUMP JUMPDEST SWAP2 POP PUSH2 0x8D5 DUP4 PUSH2 0x487 JUMP JUMPDEST SWAP3 POP DUP3 DUP3 SUB SWAP1 POP DUP2 DUP2 GT ISZERO PUSH2 0x8ED JUMPI PUSH2 0x8EC PUSH2 0x7EC JUMP JUMPDEST JUMPDEST SWAP3 SWAP2 POP POP JUMP JUMPDEST PUSH0 PUSH2 0x8FD DUP3 PUSH2 0x487 JUMP JUMPDEST SWAP2 POP PUSH0 DUP3 SUB PUSH2 0x90F JUMPI PUSH2 0x90E PUSH2 0x7EC JUMP JUMPDEST JUMPDEST PUSH1 0x1 DUP3 SUB SWAP1 POP SWAP2 SWAP1 POP JUMP INVALID LOG2 PUSH5 0x6970667358 0x22 SLT KECCAK256 0xFB 0xD7 0xE8 BLOCKHASH 0xE1 0xF8 PUSH26 0xA711D94A90E6BC7B6ED2BEDC3C8972F1B5F8B900C5A9F884FC64 PUSH20 0x6F6C634300081900330000000000000000000000 "
				},
				"gasEstimates": {
					"creation": {
						"codeDepositCost": "476800",
						"executionCost": "509",
						"totalCost": "477309"
					},
					"external": {
						"doWhileTest()": "infinite",
						"forLoopTest()": "infinite",
						"ifELseTest(uint256)": "678",
						"insertionSort(uint256[])": "infinite",
						"insertionSortWrong(uint256[])": "infinite",
						"ternaryTest(uint256,uint256)": "infinite",
						"whileTest()": "infinite"
					}
				},
				"methodIdentifiers": {
					"doWhileTest()": "2bbacaaa",
					"forLoopTest()": "b0cfa9fc",
					"ifELseTest(uint256)": "3ab316da",
					"insertionSort(uint256[])": "6297206f",
					"insertionSortWrong(uint256[])": "6188a6c0",
					"ternaryTest(uint256,uint256)": "28766320",
					"whileTest()": "5d14639d"
				}
			},
			"storageLayout": {
				"storage": [],
				"types": null
			},
			"userdoc": {
				"kind": "user",
				"methods": {},
				"version": 1
			}
		}
	}
}