{
	"data": {
		"bytecode": {
			"linkReferences": {},
			"object": "6080604052607b6000806101000a81548160ff021916908360ff16021790555034801561002b57600080fd5b5061037c8061003b6000396000f3fe60806040526004361061004a5760003560e01c806302067e6a1461004f57806318d5eaa814610078578063303810a6146100a1578063361516fa146100bf578063c6e2ecc2146100ea575b600080fd5b34801561005b57600080fd5b5061007660048036038101906100719190610201565b610127565b005b34801561008457600080fd5b5061009f600480360381019061009a9190610201565b61015f565b005b6100a961016b565b6040516100b69190610248565b60405180910390f35b3480156100cb57600080fd5b506100d461017d565b6040516100e19190610263565b60405180910390f35b3480156100f657600080fd5b50610111600480360381019061010c9190610201565b61019e565b60405161011e9190610263565b60405180910390f35b806000808282829054906101000a900460ff16610144919061027e565b92506101000a81548160ff021916908360ff16021790555050565b610168816101b4565b50565b600061017760016101b4565b47905090565b6000600160008054906101000a900460ff16610199919061027e565b905090565b60006001826101ad919061027e565b9050919050565b806000808282829054906101000a900460ff166101d191906102b5565b92506101000a81548160ff021916908360ff16021790555050565b6000813590506101fb8161032f565b92915050565b60006020828403121561021357600080fd5b6000610221848285016101ec565b91505092915050565b610233816102e9565b82525050565b610242816102f3565b82525050565b600060208201905061025d600083018461022a565b92915050565b60006020820190506102786000830184610239565b92915050565b6000610289826102f3565b9150610294836102f3565b92508260ff038211156102aa576102a9610300565b5b828201905092915050565b60006102c0826102f3565b91506102cb836102f3565b9250828210156102de576102dd610300565b5b828203905092915050565b6000819050919050565b600060ff82169050919050565b7f4e487b7100000000000000000000000000000000000000000000000000000000600052601160045260246000fd5b610338816102f3565b811461034357600080fd5b5056fea264697066735822122078dfa8e6cdd8f442bbf77e200c1914776d14d754c42e015fc1de11062a648cf064736f6c63430008040033",
			"opcodes": "PUSH1 0x80 PUSH1 0x40 MSTORE PUSH1 0x7B PUSH1 0x0 DUP1 PUSH2 0x100 EXP DUP2 SLOAD DUP2 PUSH1 0xFF MUL NOT AND SWAP1 DUP4 PUSH1 0xFF AND MUL OR SWAP1 SSTORE POP CALLVALUE DUP1 ISZERO PUSH2 0x2B JUMPI PUSH1 0x0 DUP1 REVERT JUMPDEST POP PUSH2 0x37C DUP1 PUSH2 0x3B PUSH1 0x0 CODECOPY PUSH1 0x0 RETURN INVALID PUSH1 0x80 PUSH1 0x40 MSTORE PUSH1 0x4 CALLDATASIZE LT PUSH2 0x4A JUMPI PUSH1 0x0 CALLDATALOAD PUSH1 0xE0 SHR DUP1 PUSH4 0x2067E6A EQ PUSH2 0x4F JUMPI DUP1 PUSH4 0x18D5EAA8 EQ PUSH2 0x78 JUMPI DUP1 PUSH4 0x303810A6 EQ PUSH2 0xA1 JUMPI DUP1 PUSH4 0x361516FA EQ PUSH2 0xBF JUMPI DUP1 PUSH4 0xC6E2ECC2 EQ PUSH2 0xEA JUMPI JUMPDEST PUSH1 0x0 DUP1 REVERT JUMPDEST CALLVALUE DUP1 ISZERO PUSH2 0x5B JUMPI PUSH1 0x0 DUP1 REVERT JUMPDEST POP PUSH2 0x76 PUSH1 0x4 DUP1 CALLDATASIZE SUB DUP2 ADD SWAP1 PUSH2 0x71 SWAP2 SWAP1 PUSH2 0x201 JUMP JUMPDEST PUSH2 0x127 JUMP JUMPDEST STOP JUMPDEST CALLVALUE DUP1 ISZERO PUSH2 0x84 JUMPI PUSH1 0x0 DUP1 REVERT JUMPDEST POP PUSH2 0x9F PUSH1 0x4 DUP1 CALLDATASIZE SUB DUP2 ADD SWAP1 PUSH2 0x9A SWAP2 SWAP1 PUSH2 0x201 JUMP JUMPDEST PUSH2 0x15F JUMP JUMPDEST STOP JUMPDEST PUSH2 0xA9 PUSH2 0x16B JUMP JUMPDEST PUSH1 0x40 MLOAD PUSH2 0xB6 SWAP2 SWAP1 PUSH2 0x248 JUMP JUMPDEST PUSH1 0x40 MLOAD DUP1 SWAP2 SUB SWAP1 RETURN JUMPDEST CALLVALUE DUP1 ISZERO PUSH2 0xCB JUMPI PUSH1 0x0 DUP1 REVERT JUMPDEST POP PUSH2 0xD4 PUSH2 0x17D JUMP JUMPDEST PUSH1 0x40 MLOAD PUSH2 0xE1 SWAP2 SWAP1 PUSH2 0x263 JUMP JUMPDEST PUSH1 0x40 MLOAD DUP1 SWAP2 SUB SWAP1 RETURN JUMPDEST CALLVALUE DUP1 ISZERO PUSH2 0xF6 JUMPI PUSH1 0x0 DUP1 REVERT JUMPDEST POP PUSH2 0x111 PUSH1 0x4 DUP1 CALLDATASIZE SUB DUP2 ADD SWAP1 PUSH2 0x10C SWAP2 SWAP1 PUSH2 0x201 JUMP JUMPDEST PUSH2 0x19E JUMP JUMPDEST PUSH1 0x40 MLOAD PUSH2 0x11E SWAP2 SWAP1 PUSH2 0x263 JUMP JUMPDEST PUSH1 0x40 MLOAD DUP1 SWAP2 SUB SWAP1 RETURN JUMPDEST DUP1 PUSH1 0x0 DUP1 DUP3 DUP3 DUP3 SWAP1 SLOAD SWAP1 PUSH2 0x100 EXP SWAP1 DIV PUSH1 0xFF AND PUSH2 0x144 SWAP2 SWAP1 PUSH2 0x27E JUMP JUMPDEST SWAP3 POP PUSH2 0x100 EXP DUP2 SLOAD DUP2 PUSH1 0xFF MUL NOT AND SWAP1 DUP4 PUSH1 0xFF AND MUL OR SWAP1 SSTORE POP POP JUMP JUMPDEST PUSH2 0x168 DUP2 PUSH2 0x1B4 JUMP JUMPDEST POP JUMP JUMPDEST PUSH1 0x0 PUSH2 0x177 PUSH1 0x1 PUSH2 0x1B4 JUMP JUMPDEST SELFBALANCE SWAP1 POP SWAP1 JUMP JUMPDEST PUSH1 0x0 PUSH1 0x1 PUSH1 0x0 DUP1 SLOAD SWAP1 PUSH2 0x100 EXP SWAP1 DIV PUSH1 0xFF AND PUSH2 0x199 SWAP2 SWAP1 PUSH2 0x27E JUMP JUMPDEST SWAP1 POP SWAP1 JUMP JUMPDEST PUSH1 0x0 PUSH1 0x1 DUP3 PUSH2 0x1AD SWAP2 SWAP1 PUSH2 0x27E JUMP JUMPDEST SWAP1 POP SWAP2 SWAP1 POP JUMP JUMPDEST DUP1 PUSH1 0x0 DUP1 DUP3 DUP3 DUP3 SWAP1 SLOAD SWAP1 PUSH2 0x100 EXP SWAP1 DIV PUSH1 0xFF AND PUSH2 0x1D1 SWAP2 SWAP1 PUSH2 0x2B5 JUMP JUMPDEST SWAP3 POP PUSH2 0x100 EXP DUP2 SLOAD DUP2 PUSH1 0xFF MUL NOT AND SWAP1 DUP4 PUSH1 0xFF AND MUL OR SWAP1 SSTORE POP POP JUMP JUMPDEST PUSH1 0x0 DUP2 CALLDATALOAD SWAP1 POP PUSH2 0x1FB DUP2 PUSH2 0x32F JUMP JUMPDEST SWAP3 SWAP2 POP POP JUMP JUMPDEST PUSH1 0x0 PUSH1 0x20 DUP3 DUP5 SUB SLT ISZERO PUSH2 0x213 JUMPI PUSH1 0x0 DUP1 REVERT JUMPDEST PUSH1 0x0 PUSH2 0x221 DUP5 DUP3 DUP6 ADD PUSH2 0x1EC JUMP JUMPDEST SWAP2 POP POP SWAP3 SWAP2 POP POP JUMP JUMPDEST PUSH2 0x233 DUP2 PUSH2 0x2E9 JUMP JUMPDEST DUP3 MSTORE POP POP JUMP JUMPDEST PUSH2 0x242 DUP2 PUSH2 0x2F3 JUMP JUMPDEST DUP3 MSTORE POP POP JUMP JUMPDEST PUSH1 0x0 PUSH1 0x20 DUP3 ADD SWAP1 POP PUSH2 0x25D PUSH1 0x0 DUP4 ADD DUP5 PUSH2 0x22A JUMP JUMPDEST SWAP3 SWAP2 POP POP JUMP JUMPDEST PUSH1 0x0 PUSH1 0x20 DUP3 ADD SWAP1 POP PUSH2 0x278 PUSH1 0x0 DUP4 ADD DUP5 PUSH2 0x239 JUMP JUMPDEST SWAP3 SWAP2 POP POP JUMP JUMPDEST PUSH1 0x0 PUSH2 0x289 DUP3 PUSH2 0x2F3 JUMP JUMPDEST SWAP2 POP PUSH2 0x294 DUP4 PUSH2 0x2F3 JUMP JUMPDEST SWAP3 POP DUP3 PUSH1 0xFF SUB DUP3 GT ISZERO PUSH2 0x2AA JUMPI PUSH2 0x2A9 PUSH2 0x300 JUMP JUMPDEST JUMPDEST DUP3 DUP3 ADD SWAP1 POP SWAP3 SWAP2 POP POP JUMP JUMPDEST PUSH1 0x0 PUSH2 0x2C0 DUP3 PUSH2 0x2F3 JUMP JUMPDEST SWAP2 POP PUSH2 0x2CB DUP4 PUSH2 0x2F3 JUMP JUMPDEST SWAP3 POP DUP3 DUP3 LT ISZERO PUSH2 0x2DE JUMPI PUSH2 0x2DD PUSH2 0x300 JUMP JUMPDEST JUMPDEST DUP3 DUP3 SUB SWAP1 POP SWAP3 SWAP2 POP POP JUMP JUMPDEST PUSH1 0x0 DUP2 SWAP1 POP SWAP2 SWAP1 POP JUMP JUMPDEST PUSH1 0x0 PUSH1 0xFF DUP3 AND SWAP1 POP SWAP2 SWAP1 POP JUMP JUMPDEST PUSH32 0x4E487B7100000000000000000000000000000000000000000000000000000000 PUSH1 0x0 MSTORE PUSH1 0x11 PUSH1 0x4 MSTORE PUSH1 0x24 PUSH1 0x0 REVERT JUMPDEST PUSH2 0x338 DUP2 PUSH2 0x2F3 JUMP JUMPDEST DUP2 EQ PUSH2 0x343 JUMPI PUSH1 0x0 DUP1 REVERT JUMPDEST POP JUMP INVALID LOG2 PUSH5 0x6970667358 0x22 SLT KECCAK256 PUSH25 0xDFA8E6CDD8F442BBF77E200C1914776D14D754C42E015FC1DE GT MOD 0x2A PUSH5 0x8CF064736F PUSH13 0x63430008040033000000000000 "
		},
		"gasEstimates": {
			"creation": {
				"codeDepositCost": "178400",
				"executionCost": "21087",
				"totalCost": "199487"
			},
			"external": {
				"add(uint8)": "infinite",
				"callMinus(uint8)": "infinite",
				"gatNumber()": "infinite",
				"minusPayable()": "infinite",
				"testPure(uint8)": "infinite"
			},
			"internal": {
				"minus(uint8)": "infinite"
			}
		},
		"methodIdentifiers": {
			"add(uint8)": "02067e6a",
			"callMinus(uint8)": "18d5eaa8",
			"gatNumber()": "361516fa",
			"minusPayable()": "303810a6",
			"testPure(uint8)": "c6e2ecc2"
		}
	},
	"abi": [
		{
			"inputs": [
				{
					"internalType": "uint8",
					"name": "n",
					"type": "uint8"
				}
			],
			"name": "add",
			"outputs": [],
			"stateMutability": "nonpayable",
			"type": "function"
		},
		{
			"inputs": [
				{
					"internalType": "uint8",
					"name": "n",
					"type": "uint8"
				}
			],
			"name": "callMinus",
			"outputs": [],
			"stateMutability": "nonpayable",
			"type": "function"
		},
		{
			"inputs": [],
			"name": "gatNumber",
			"outputs": [
				{
					"internalType": "uint8",
					"name": "nb",
					"type": "uint8"
				}
			],
			"stateMutability": "view",
			"type": "function"
		},
		{
			"inputs": [],
			"name": "minusPayable",
			"outputs": [
				{
					"internalType": "uint256",
					"name": "balance",
					"type": "uint256"
				}
			],
			"stateMutability": "payable",
			"type": "function"
		},
		{
			"inputs": [
				{
					"internalType": "uint8",
					"name": "n",
					"type": "uint8"
				}
			],
			"name": "testPure",
			"outputs": [
				{
					"internalType": "uint8",
					"name": "nb",
					"type": "uint8"
				}
			],
			"stateMutability": "pure",
			"type": "function"
		}
	]
}