{
	"wtfSolidity/102/22/call_contract.sol": {
		"Call": {
			"abi": [
				{
					"anonymous": false,
					"inputs": [
						{
							"indexed": false,
							"internalType": "bool",
							"name": "success",
							"type": "bool"
						},
						{
							"indexed": false,
							"internalType": "bytes",
							"name": "data",
							"type": "bytes"
						}
					],
					"name": "Response",
					"type": "event"
				},
				{
					"inputs": [
						{
							"internalType": "address",
							"name": "addr",
							"type": "address"
						}
					],
					"name": "callGetX",
					"outputs": [
						{
							"internalType": "uint256",
							"name": "",
							"type": "uint256"
						}
					],
					"stateMutability": "nonpayable",
					"type": "function"
				},
				{
					"inputs": [
						{
							"internalType": "address",
							"name": "addr",
							"type": "address"
						}
					],
					"name": "callNotExsit",
					"outputs": [],
					"stateMutability": "nonpayable",
					"type": "function"
				},
				{
					"inputs": [
						{
							"internalType": "address payable",
							"name": "addr",
							"type": "address"
						},
						{
							"internalType": "uint256",
							"name": "x",
							"type": "uint256"
						}
					],
					"name": "callSetX",
					"outputs": [],
					"stateMutability": "payable",
					"type": "function"
				}
			],
			"devdoc": {
				"kind": "dev",
				"methods": {},
				"version": 1
			},
			"evm": {
				"assembly": "    /* \"wtfSolidity/102/22/call_contract.sol\":60:1088  contract Call {... */\n  mstore(0x40, 0x80)\n  callvalue\n  dup1\n  iszero\n  tag_1\n  jumpi\n  0x00\n  dup1\n  revert\ntag_1:\n  pop\n  dataSize(sub_0)\n  dup1\n  dataOffset(sub_0)\n  0x00\n  codecopy\n  0x00\n  return\nstop\n\nsub_0: assembly {\n        /* \"wtfSolidity/102/22/call_contract.sol\":60:1088  contract Call {... */\n      mstore(0x40, 0x80)\n      jumpi(tag_1, lt(calldatasize, 0x04))\n      shr(0xe0, calldataload(0x00))\n      dup1\n      0x3ca065bb\n      eq\n      tag_2\n      jumpi\n      dup1\n      0x66563e69\n      eq\n      tag_3\n      jumpi\n      dup1\n      0xcbb84b4f\n      eq\n      tag_4\n      jumpi\n    tag_1:\n      0x00\n      dup1\n      revert\n        /* \"wtfSolidity/102/22/call_contract.sol\":130:467  function callSetX(address payable addr, uint256 x) public payable  {... */\n    tag_2:\n      tag_5\n      0x04\n      dup1\n      calldatasize\n      sub\n      dup2\n      add\n      swap1\n      tag_6\n      swap2\n      swap1\n      tag_7\n      jump\t// in\n    tag_6:\n      tag_8\n      jump\t// in\n    tag_5:\n      stop\n        /* \"wtfSolidity/102/22/call_contract.sol\":475:768  function callGetX(address addr) external returns(uint256) {... */\n    tag_3:\n      callvalue\n      dup1\n      iszero\n      tag_9\n      jumpi\n      0x00\n      dup1\n      revert\n    tag_9:\n      pop\n      tag_10\n      0x04\n      dup1\n      calldatasize\n      sub\n      dup2\n      add\n      swap1\n      tag_11\n      swap2\n      swap1\n      tag_12\n      jump\t// in\n    tag_11:\n      tag_13\n      jump\t// in\n    tag_10:\n      mload(0x40)\n      tag_14\n      swap2\n      swap1\n      tag_15\n      jump\t// in\n    tag_14:\n      mload(0x40)\n      dup1\n      swap2\n      sub\n      swap1\n      return\n        /* \"wtfSolidity/102/22/call_contract.sol\":876:1085  function callNotExsit(address addr) external  {... */\n    tag_4:\n      callvalue\n      dup1\n      iszero\n      tag_16\n      jumpi\n      0x00\n      dup1\n      revert\n    tag_16:\n      pop\n      tag_17\n      0x04\n      dup1\n      calldatasize\n      sub\n      dup2\n      add\n      swap1\n      tag_18\n      swap2\n      swap1\n      tag_12\n      jump\t// in\n    tag_18:\n      tag_19\n      jump\t// in\n    tag_17:\n      stop\n        /* \"wtfSolidity/102/22/call_contract.sol\":130:467  function callSetX(address payable addr, uint256 x) public payable  {... */\n    tag_8:\n        /* \"wtfSolidity/102/22/call_contract.sol\":209:221  bool success */\n      0x00\n        /* \"wtfSolidity/102/22/call_contract.sol\":223:240  bytes memory data */\n      dup1\n        /* \"wtfSolidity/102/22/call_contract.sol\":244:248  addr */\n      dup4\n        /* \"wtfSolidity/102/22/call_contract.sol\":244:253  addr.call */\n      0xffffffffffffffffffffffffffffffffffffffff\n      and\n        /* \"wtfSolidity/102/22/call_contract.sol\":261:270  msg.value */\n      callvalue\n        /* \"wtfSolidity/102/22/call_contract.sol\":327:328  x */\n      dup5\n        /* \"wtfSolidity/102/22/call_contract.sol\":286:329  abi.encodeWithSignature(\"setX(uint256)\", x) */\n      add(0x24, mload(0x40))\n      tag_21\n      swap2\n      swap1\n      tag_15\n      jump\t// in\n    tag_21:\n      mload(0x40)\n      0x20\n      dup2\n      dup4\n      sub\n      sub\n      dup2\n      mstore\n      swap1\n      0x40\n      mstore\n      and(not(0xffffffffffffffffffffffffffffffffffffffffffffffffffffffff), 0x4018d9aa00000000000000000000000000000000000000000000000000000000)\n      0x20\n      dup3\n      add\n      dup1\n      mload\n      0xffffffffffffffffffffffffffffffffffffffffffffffffffffffff\n      dup4\n      dup2\n      dup4\n      and\n      or\n      dup4\n      mstore\n      pop\n      pop\n      pop\n      pop\n        /* \"wtfSolidity/102/22/call_contract.sol\":244:418  addr.call{value: msg.value}(... */\n      mload(0x40)\n      tag_22\n      swap2\n      swap1\n      tag_23\n      jump\t// in\n    tag_22:\n      0x00\n      mload(0x40)\n      dup1\n      dup4\n      sub\n      dup2\n      dup6\n      dup8\n      gas\n      call\n      swap3\n      pop\n      pop\n      pop\n      returndatasize\n      dup1\n      0x00\n      dup2\n      eq\n      tag_26\n      jumpi\n      mload(0x40)\n      swap2\n      pop\n      and(add(returndatasize, 0x3f), not(0x1f))\n      dup3\n      add\n      0x40\n      mstore\n      returndatasize\n      dup3\n      mstore\n      returndatasize\n      0x00\n      0x20\n      dup5\n      add\n      returndatacopy\n      jump(tag_25)\n    tag_26:\n      0x60\n      swap2\n      pop\n    tag_25:\n      pop\n        /* \"wtfSolidity/102/22/call_contract.sol\":208:418  (bool success, bytes memory data) = addr.call{value: msg.value}(... */\n      swap2\n      pop\n      swap2\n      pop\n        /* \"wtfSolidity/102/22/call_contract.sol\":436:459  Response(success, data) */\n      0x13848c3e38f8886f3f5d2ad9dff80d8092c2bbb8efd5b887a99c2c6cfc09ac2a\n        /* \"wtfSolidity/102/22/call_contract.sol\":445:452  success */\n      dup3\n        /* \"wtfSolidity/102/22/call_contract.sol\":454:458  data */\n      dup3\n        /* \"wtfSolidity/102/22/call_contract.sol\":436:459  Response(success, data) */\n      mload(0x40)\n      tag_27\n      swap3\n      swap2\n      swap1\n      tag_28\n      jump\t// in\n    tag_27:\n      mload(0x40)\n      dup1\n      swap2\n      sub\n      swap1\n      log1\n        /* \"wtfSolidity/102/22/call_contract.sol\":197:467  {... */\n      pop\n      pop\n        /* \"wtfSolidity/102/22/call_contract.sol\":130:467  function callSetX(address payable addr, uint256 x) public payable  {... */\n      pop\n      pop\n      jump\t// out\n        /* \"wtfSolidity/102/22/call_contract.sol\":475:768  function callGetX(address addr) external returns(uint256) {... */\n    tag_13:\n        /* \"wtfSolidity/102/22/call_contract.sol\":524:531  uint256 */\n      0x00\n        /* \"wtfSolidity/102/22/call_contract.sol\":545:557  bool success */\n      dup1\n        /* \"wtfSolidity/102/22/call_contract.sol\":559:576  bytes memory data */\n      0x00\n        /* \"wtfSolidity/102/22/call_contract.sol\":580:584  addr */\n      dup4\n        /* \"wtfSolidity/102/22/call_contract.sol\":580:589  addr.call */\n      0xffffffffffffffffffffffffffffffffffffffff\n      and\n        /* \"wtfSolidity/102/22/call_contract.sol\":604:637  abi.encodeWithSignature(\"getX()\") */\n      add(0x24, mload(0x40))\n      mload(0x40)\n      0x20\n      dup2\n      dup4\n      sub\n      sub\n      dup2\n      mstore\n      swap1\n      0x40\n      mstore\n      and(not(0xffffffffffffffffffffffffffffffffffffffffffffffffffffffff), 0x5197c7aa00000000000000000000000000000000000000000000000000000000)\n      0x20\n      dup3\n      add\n      dup1\n      mload\n      0xffffffffffffffffffffffffffffffffffffffffffffffffffffffff\n      dup4\n      dup2\n      dup4\n      and\n      or\n      dup4\n      mstore\n      pop\n      pop\n      pop\n      pop\n        /* \"wtfSolidity/102/22/call_contract.sol\":580:648  addr.call(... */\n      mload(0x40)\n      tag_30\n      swap2\n      swap1\n      tag_23\n      jump\t// in\n    tag_30:\n      0x00\n      mload(0x40)\n      dup1\n      dup4\n      sub\n      dup2\n      0x00\n      dup7\n      gas\n      call\n      swap2\n      pop\n      pop\n      returndatasize\n      dup1\n      0x00\n      dup2\n      eq\n      tag_33\n      jumpi\n      mload(0x40)\n      swap2\n      pop\n      and(add(returndatasize, 0x3f), not(0x1f))\n      dup3\n      add\n      0x40\n      mstore\n      returndatasize\n      dup3\n      mstore\n      returndatasize\n      0x00\n      0x20\n      dup5\n      add\n      returndatacopy\n      jump(tag_32)\n    tag_33:\n      0x60\n      swap2\n      pop\n    tag_32:\n      pop\n        /* \"wtfSolidity/102/22/call_contract.sol\":544:648  (bool success, bytes memory data) = addr.call(... */\n      swap2\n      pop\n      swap2\n      pop\n        /* \"wtfSolidity/102/22/call_contract.sol\":666:689  Response(success, data) */\n      0x13848c3e38f8886f3f5d2ad9dff80d8092c2bbb8efd5b887a99c2c6cfc09ac2a\n        /* \"wtfSolidity/102/22/call_contract.sol\":675:682  success */\n      dup3\n        /* \"wtfSolidity/102/22/call_contract.sol\":684:688  data */\n      dup3\n        /* \"wtfSolidity/102/22/call_contract.sol\":666:689  Response(success, data) */\n      mload(0x40)\n      tag_34\n      swap3\n      swap2\n      swap1\n      tag_28\n      jump\t// in\n    tag_34:\n      mload(0x40)\n      dup1\n      swap2\n      sub\n      swap1\n      log1\n        /* \"wtfSolidity/102/22/call_contract.sol\":718:722  data */\n      dup1\n        /* \"wtfSolidity/102/22/call_contract.sol\":707:734  abi.decode(data, (uint256)) */\n      dup1\n      0x20\n      add\n      swap1\n      mload\n      dup2\n      add\n      swap1\n      tag_35\n      swap2\n      swap1\n      tag_36\n      jump\t// in\n    tag_35:\n        /* \"wtfSolidity/102/22/call_contract.sol\":700:734  return abi.decode(data, (uint256)) */\n      swap3\n      pop\n      pop\n      pop\n        /* \"wtfSolidity/102/22/call_contract.sol\":475:768  function callGetX(address addr) external returns(uint256) {... */\n      swap2\n      swap1\n      pop\n      jump\t// out\n        /* \"wtfSolidity/102/22/call_contract.sol\":876:1085  function callNotExsit(address addr) external  {... */\n    tag_19:\n        /* \"wtfSolidity/102/22/call_contract.sol\":934:946  bool success */\n      0x00\n        /* \"wtfSolidity/102/22/call_contract.sol\":948:965  bytes memory data */\n      dup1\n        /* \"wtfSolidity/102/22/call_contract.sol\":969:973  addr */\n      dup3\n        /* \"wtfSolidity/102/22/call_contract.sol\":969:978  addr.call */\n      0xffffffffffffffffffffffffffffffffffffffff\n      and\n        /* \"wtfSolidity/102/22/call_contract.sol\":993:1025  abi.encodeWithSignature(\"foo()\") */\n      add(0x24, mload(0x40))\n      mload(0x40)\n      0x20\n      dup2\n      dup4\n      sub\n      sub\n      dup2\n      mstore\n      swap1\n      0x40\n      mstore\n      and(not(0xffffffffffffffffffffffffffffffffffffffffffffffffffffffff), 0xc298557800000000000000000000000000000000000000000000000000000000)\n      0x20\n      dup3\n      add\n      dup1\n      mload\n      0xffffffffffffffffffffffffffffffffffffffffffffffffffffffff\n      dup4\n      dup2\n      dup4\n      and\n      or\n      dup4\n      mstore\n      pop\n      pop\n      pop\n      pop\n        /* \"wtfSolidity/102/22/call_contract.sol\":969:1036  addr.call(... */\n      mload(0x40)\n      tag_38\n      swap2\n      swap1\n      tag_23\n      jump\t// in\n    tag_38:\n      0x00\n      mload(0x40)\n      dup1\n      dup4\n      sub\n      dup2\n      0x00\n      dup7\n      gas\n      call\n      swap2\n      pop\n      pop\n      returndatasize\n      dup1\n      0x00\n      dup2\n      eq\n      tag_41\n      jumpi\n      mload(0x40)\n      swap2\n      pop\n      and(add(returndatasize, 0x3f), not(0x1f))\n      dup3\n      add\n      0x40\n      mstore\n      returndatasize\n      dup3\n      mstore\n      returndatasize\n      0x00\n      0x20\n      dup5\n      add\n      returndatacopy\n      jump(tag_40)\n    tag_41:\n      0x60\n      swap2\n      pop\n    tag_40:\n      pop\n        /* \"wtfSolidity/102/22/call_contract.sol\":933:1036  (bool success, bytes memory data) = addr.call(... */\n      swap2\n      pop\n      swap2\n      pop\n        /* \"wtfSolidity/102/22/call_contract.sol\":1054:1077  Response(success, data) */\n      0x13848c3e38f8886f3f5d2ad9dff80d8092c2bbb8efd5b887a99c2c6cfc09ac2a\n        /* \"wtfSolidity/102/22/call_contract.sol\":1063:1070  success */\n      dup3\n        /* \"wtfSolidity/102/22/call_contract.sol\":1072:1076  data */\n      dup3\n        /* \"wtfSolidity/102/22/call_contract.sol\":1054:1077  Response(success, data) */\n      mload(0x40)\n      tag_42\n      swap3\n      swap2\n      swap1\n      tag_28\n      jump\t// in\n    tag_42:\n      mload(0x40)\n      dup1\n      swap2\n      sub\n      swap1\n      log1\n        /* \"wtfSolidity/102/22/call_contract.sol\":922:1085  {... */\n      pop\n      pop\n        /* \"wtfSolidity/102/22/call_contract.sol\":876:1085  function callNotExsit(address addr) external  {... */\n      pop\n      jump\t// out\n        /* \"#utility.yul\":88:205   */\n    tag_44:\n        /* \"#utility.yul\":197:198   */\n      0x00\n        /* \"#utility.yul\":194:195   */\n      dup1\n        /* \"#utility.yul\":187:199   */\n      revert\n        /* \"#utility.yul\":334:460   */\n    tag_46:\n        /* \"#utility.yul\":371:378   */\n      0x00\n        /* \"#utility.yul\":411:453   */\n      0xffffffffffffffffffffffffffffffffffffffff\n        /* \"#utility.yul\":404:409   */\n      dup3\n        /* \"#utility.yul\":400:454   */\n      and\n        /* \"#utility.yul\":389:454   */\n      swap1\n      pop\n        /* \"#utility.yul\":334:460   */\n      swap2\n      swap1\n      pop\n      jump\t// out\n        /* \"#utility.yul\":466:570   */\n    tag_47:\n        /* \"#utility.yul\":511:518   */\n      0x00\n        /* \"#utility.yul\":540:564   */\n      tag_73\n        /* \"#utility.yul\":558:563   */\n      dup3\n        /* \"#utility.yul\":540:564   */\n      tag_46\n      jump\t// in\n    tag_73:\n        /* \"#utility.yul\":529:564   */\n      swap1\n      pop\n        /* \"#utility.yul\":466:570   */\n      swap2\n      swap1\n      pop\n      jump\t// out\n        /* \"#utility.yul\":576:714   */\n    tag_48:\n        /* \"#utility.yul\":657:689   */\n      tag_75\n        /* \"#utility.yul\":683:688   */\n      dup2\n        /* \"#utility.yul\":657:689   */\n      tag_47\n      jump\t// in\n    tag_75:\n        /* \"#utility.yul\":650:655   */\n      dup2\n        /* \"#utility.yul\":647:690   */\n      eq\n        /* \"#utility.yul\":637:708   */\n      tag_76\n      jumpi\n        /* \"#utility.yul\":704:705   */\n      0x00\n        /* \"#utility.yul\":701:702   */\n      dup1\n        /* \"#utility.yul\":694:706   */\n      revert\n        /* \"#utility.yul\":637:708   */\n    tag_76:\n        /* \"#utility.yul\":576:714   */\n      pop\n      jump\t// out\n        /* \"#utility.yul\":720:875   */\n    tag_49:\n        /* \"#utility.yul\":774:779   */\n      0x00\n        /* \"#utility.yul\":812:818   */\n      dup2\n        /* \"#utility.yul\":799:819   */\n      calldataload\n        /* \"#utility.yul\":790:819   */\n      swap1\n      pop\n        /* \"#utility.yul\":828:869   */\n      tag_78\n        /* \"#utility.yul\":863:868   */\n      dup2\n        /* \"#utility.yul\":828:869   */\n      tag_48\n      jump\t// in\n    tag_78:\n        /* \"#utility.yul\":720:875   */\n      swap3\n      swap2\n      pop\n      pop\n      jump\t// out\n        /* \"#utility.yul\":881:958   */\n    tag_50:\n        /* \"#utility.yul\":918:925   */\n      0x00\n        /* \"#utility.yul\":947:952   */\n      dup2\n        /* \"#utility.yul\":936:952   */\n      swap1\n      pop\n        /* \"#utility.yul\":881:958   */\n      swap2\n      swap1\n      pop\n      jump\t// out\n        /* \"#utility.yul\":964:1086   */\n    tag_51:\n        /* \"#utility.yul\":1037:1061   */\n      tag_81\n        /* \"#utility.yul\":1055:1060   */\n      dup2\n        /* \"#utility.yul\":1037:1061   */\n      tag_50\n      jump\t// in\n    tag_81:\n        /* \"#utility.yul\":1030:1035   */\n      dup2\n        /* \"#utility.yul\":1027:1062   */\n      eq\n        /* \"#utility.yul\":1017:1080   */\n      tag_82\n      jumpi\n        /* \"#utility.yul\":1076:1077   */\n      0x00\n        /* \"#utility.yul\":1073:1074   */\n      dup1\n        /* \"#utility.yul\":1066:1078   */\n      revert\n        /* \"#utility.yul\":1017:1080   */\n    tag_82:\n        /* \"#utility.yul\":964:1086   */\n      pop\n      jump\t// out\n        /* \"#utility.yul\":1092:1231   */\n    tag_52:\n        /* \"#utility.yul\":1138:1143   */\n      0x00\n        /* \"#utility.yul\":1176:1182   */\n      dup2\n        /* \"#utility.yul\":1163:1183   */\n      calldataload\n        /* \"#utility.yul\":1154:1183   */\n      swap1\n      pop\n        /* \"#utility.yul\":1192:1225   */\n      tag_84\n        /* \"#utility.yul\":1219:1224   */\n      dup2\n        /* \"#utility.yul\":1192:1225   */\n      tag_51\n      jump\t// in\n    tag_84:\n        /* \"#utility.yul\":1092:1231   */\n      swap3\n      swap2\n      pop\n      pop\n      jump\t// out\n        /* \"#utility.yul\":1237:1727   */\n    tag_7:\n        /* \"#utility.yul\":1313:1319   */\n      0x00\n        /* \"#utility.yul\":1321:1327   */\n      dup1\n        /* \"#utility.yul\":1370:1372   */\n      0x40\n        /* \"#utility.yul\":1358:1367   */\n      dup4\n        /* \"#utility.yul\":1349:1356   */\n      dup6\n        /* \"#utility.yul\":1345:1368   */\n      sub\n        /* \"#utility.yul\":1341:1373   */\n      slt\n        /* \"#utility.yul\":1338:1457   */\n      iszero\n      tag_86\n      jumpi\n        /* \"#utility.yul\":1376:1455   */\n      tag_87\n      tag_44\n      jump\t// in\n    tag_87:\n        /* \"#utility.yul\":1338:1457   */\n    tag_86:\n        /* \"#utility.yul\":1496:1497   */\n      0x00\n        /* \"#utility.yul\":1521:1582   */\n      tag_88\n        /* \"#utility.yul\":1574:1581   */\n      dup6\n        /* \"#utility.yul\":1565:1571   */\n      dup3\n        /* \"#utility.yul\":1554:1563   */\n      dup7\n        /* \"#utility.yul\":1550:1572   */\n      add\n        /* \"#utility.yul\":1521:1582   */\n      tag_49\n      jump\t// in\n    tag_88:\n        /* \"#utility.yul\":1511:1582   */\n      swap3\n      pop\n        /* \"#utility.yul\":1467:1592   */\n      pop\n        /* \"#utility.yul\":1631:1633   */\n      0x20\n        /* \"#utility.yul\":1657:1710   */\n      tag_89\n        /* \"#utility.yul\":1702:1709   */\n      dup6\n        /* \"#utility.yul\":1693:1699   */\n      dup3\n        /* \"#utility.yul\":1682:1691   */\n      dup7\n        /* \"#utility.yul\":1678:1700   */\n      add\n        /* \"#utility.yul\":1657:1710   */\n      tag_52\n      jump\t// in\n    tag_89:\n        /* \"#utility.yul\":1647:1710   */\n      swap2\n      pop\n        /* \"#utility.yul\":1602:1720   */\n      pop\n        /* \"#utility.yul\":1237:1727   */\n      swap3\n      pop\n      swap3\n      swap1\n      pop\n      jump\t// out\n        /* \"#utility.yul\":1733:1829   */\n    tag_53:\n        /* \"#utility.yul\":1770:1777   */\n      0x00\n        /* \"#utility.yul\":1799:1823   */\n      tag_91\n        /* \"#utility.yul\":1817:1822   */\n      dup3\n        /* \"#utility.yul\":1799:1823   */\n      tag_46\n      jump\t// in\n    tag_91:\n        /* \"#utility.yul\":1788:1823   */\n      swap1\n      pop\n        /* \"#utility.yul\":1733:1829   */\n      swap2\n      swap1\n      pop\n      jump\t// out\n        /* \"#utility.yul\":1835:1957   */\n    tag_54:\n        /* \"#utility.yul\":1908:1932   */\n      tag_93\n        /* \"#utility.yul\":1926:1931   */\n      dup2\n        /* \"#utility.yul\":1908:1932   */\n      tag_53\n      jump\t// in\n    tag_93:\n        /* \"#utility.yul\":1901:1906   */\n      dup2\n        /* \"#utility.yul\":1898:1933   */\n      eq\n        /* \"#utility.yul\":1888:1951   */\n      tag_94\n      jumpi\n        /* \"#utility.yul\":1947:1948   */\n      0x00\n        /* \"#utility.yul\":1944:1945   */\n      dup1\n        /* \"#utility.yul\":1937:1949   */\n      revert\n        /* \"#utility.yul\":1888:1951   */\n    tag_94:\n        /* \"#utility.yul\":1835:1957   */\n      pop\n      jump\t// out\n        /* \"#utility.yul\":1963:2102   */\n    tag_55:\n        /* \"#utility.yul\":2009:2014   */\n      0x00\n        /* \"#utility.yul\":2047:2053   */\n      dup2\n        /* \"#utility.yul\":2034:2054   */\n      calldataload\n        /* \"#utility.yul\":2025:2054   */\n      swap1\n      pop\n        /* \"#utility.yul\":2063:2096   */\n      tag_96\n        /* \"#utility.yul\":2090:2095   */\n      dup2\n        /* \"#utility.yul\":2063:2096   */\n      tag_54\n      jump\t// in\n    tag_96:\n        /* \"#utility.yul\":1963:2102   */\n      swap3\n      swap2\n      pop\n      pop\n      jump\t// out\n        /* \"#utility.yul\":2108:2437   */\n    tag_12:\n        /* \"#utility.yul\":2167:2173   */\n      0x00\n        /* \"#utility.yul\":2216:2218   */\n      0x20\n        /* \"#utility.yul\":2204:2213   */\n      dup3\n        /* \"#utility.yul\":2195:2202   */\n      dup5\n        /* \"#utility.yul\":2191:2214   */\n      sub\n        /* \"#utility.yul\":2187:2219   */\n      slt\n        /* \"#utility.yul\":2184:2303   */\n      iszero\n      tag_98\n      jumpi\n        /* \"#utility.yul\":2222:2301   */\n      tag_99\n      tag_44\n      jump\t// in\n    tag_99:\n        /* \"#utility.yul\":2184:2303   */\n    tag_98:\n        /* \"#utility.yul\":2342:2343   */\n      0x00\n        /* \"#utility.yul\":2367:2420   */\n      tag_100\n        /* \"#utility.yul\":2412:2419   */\n      dup5\n        /* \"#utility.yul\":2403:2409   */\n      dup3\n        /* \"#utility.yul\":2392:2401   */\n      dup6\n        /* \"#utility.yul\":2388:2410   */\n      add\n        /* \"#utility.yul\":2367:2420   */\n      tag_55\n      jump\t// in\n    tag_100:\n        /* \"#utility.yul\":2357:2420   */\n      swap2\n      pop\n        /* \"#utility.yul\":2313:2430   */\n      pop\n        /* \"#utility.yul\":2108:2437   */\n      swap3\n      swap2\n      pop\n      pop\n      jump\t// out\n        /* \"#utility.yul\":2443:2561   */\n    tag_56:\n        /* \"#utility.yul\":2530:2554   */\n      tag_102\n        /* \"#utility.yul\":2548:2553   */\n      dup2\n        /* \"#utility.yul\":2530:2554   */\n      tag_50\n      jump\t// in\n    tag_102:\n        /* \"#utility.yul\":2525:2528   */\n      dup3\n        /* \"#utility.yul\":2518:2555   */\n      mstore\n        /* \"#utility.yul\":2443:2561   */\n      pop\n      pop\n      jump\t// out\n        /* \"#utility.yul\":2567:2789   */\n    tag_15:\n        /* \"#utility.yul\":2660:2664   */\n      0x00\n        /* \"#utility.yul\":2698:2700   */\n      0x20\n        /* \"#utility.yul\":2687:2696   */\n      dup3\n        /* \"#utility.yul\":2683:2701   */\n      add\n        /* \"#utility.yul\":2675:2701   */\n      swap1\n      pop\n        /* \"#utility.yul\":2711:2782   */\n      tag_104\n        /* \"#utility.yul\":2779:2780   */\n      0x00\n        /* \"#utility.yul\":2768:2777   */\n      dup4\n        /* \"#utility.yul\":2764:2781   */\n      add\n        /* \"#utility.yul\":2755:2761   */\n      dup5\n        /* \"#utility.yul\":2711:2782   */\n      tag_56\n      jump\t// in\n    tag_104:\n        /* \"#utility.yul\":2567:2789   */\n      swap3\n      swap2\n      pop\n      pop\n      jump\t// out\n        /* \"#utility.yul\":2795:2893   */\n    tag_57:\n        /* \"#utility.yul\":2846:2852   */\n      0x00\n        /* \"#utility.yul\":2880:2885   */\n      dup2\n        /* \"#utility.yul\":2874:2886   */\n      mload\n        /* \"#utility.yul\":2864:2886   */\n      swap1\n      pop\n        /* \"#utility.yul\":2795:2893   */\n      swap2\n      swap1\n      pop\n      jump\t// out\n        /* \"#utility.yul\":2899:3046   */\n    tag_58:\n        /* \"#utility.yul\":3000:3011   */\n      0x00\n        /* \"#utility.yul\":3037:3040   */\n      dup2\n        /* \"#utility.yul\":3022:3040   */\n      swap1\n      pop\n        /* \"#utility.yul\":2899:3046   */\n      swap3\n      swap2\n      pop\n      pop\n      jump\t// out\n        /* \"#utility.yul\":3052:3191   */\n    tag_59:\n        /* \"#utility.yul\":3141:3147   */\n      dup3\n        /* \"#utility.yul\":3136:3139   */\n      dup2\n        /* \"#utility.yul\":3131:3134   */\n      dup4\n        /* \"#utility.yul\":3125:3148   */\n      mcopy\n        /* \"#utility.yul\":3182:3183   */\n      0x00\n        /* \"#utility.yul\":3173:3179   */\n      dup4\n        /* \"#utility.yul\":3168:3171   */\n      dup4\n        /* \"#utility.yul\":3164:3180   */\n      add\n        /* \"#utility.yul\":3157:3184   */\n      mstore\n        /* \"#utility.yul\":3052:3191   */\n      pop\n      pop\n      pop\n      jump\t// out\n        /* \"#utility.yul\":3197:3583   */\n    tag_60:\n        /* \"#utility.yul\":3301:3304   */\n      0x00\n        /* \"#utility.yul\":3329:3367   */\n      tag_109\n        /* \"#utility.yul\":3361:3366   */\n      dup3\n        /* \"#utility.yul\":3329:3367   */\n      tag_57\n      jump\t// in\n    tag_109:\n        /* \"#utility.yul\":3383:3471   */\n      tag_110\n        /* \"#utility.yul\":3464:3470   */\n      dup2\n        /* \"#utility.yul\":3459:3462   */\n      dup6\n        /* \"#utility.yul\":3383:3471   */\n      tag_58\n      jump\t// in\n    tag_110:\n        /* \"#utility.yul\":3376:3471   */\n      swap4\n      pop\n        /* \"#utility.yul\":3480:3545   */\n      tag_111\n        /* \"#utility.yul\":3538:3544   */\n      dup2\n        /* \"#utility.yul\":3533:3536   */\n      dup6\n        /* \"#utility.yul\":3526:3530   */\n      0x20\n        /* \"#utility.yul\":3519:3524   */\n      dup7\n        /* \"#utility.yul\":3515:3531   */\n      add\n        /* \"#utility.yul\":3480:3545   */\n      tag_59\n      jump\t// in\n    tag_111:\n        /* \"#utility.yul\":3570:3576   */\n      dup1\n        /* \"#utility.yul\":3565:3568   */\n      dup5\n        /* \"#utility.yul\":3561:3577   */\n      add\n        /* \"#utility.yul\":3554:3577   */\n      swap2\n      pop\n        /* \"#utility.yul\":3305:3583   */\n      pop\n        /* \"#utility.yul\":3197:3583   */\n      swap3\n      swap2\n      pop\n      pop\n      jump\t// out\n        /* \"#utility.yul\":3589:3860   */\n    tag_23:\n        /* \"#utility.yul\":3719:3722   */\n      0x00\n        /* \"#utility.yul\":3741:3834   */\n      tag_113\n        /* \"#utility.yul\":3830:3833   */\n      dup3\n        /* \"#utility.yul\":3821:3827   */\n      dup5\n        /* \"#utility.yul\":3741:3834   */\n      tag_60\n      jump\t// in\n    tag_113:\n        /* \"#utility.yul\":3734:3834   */\n      swap2\n      pop\n        /* \"#utility.yul\":3851:3854   */\n      dup2\n        /* \"#utility.yul\":3844:3854   */\n      swap1\n      pop\n        /* \"#utility.yul\":3589:3860   */\n      swap3\n      swap2\n      pop\n      pop\n      jump\t// out\n        /* \"#utility.yul\":3866:3956   */\n    tag_61:\n        /* \"#utility.yul\":3900:3907   */\n      0x00\n        /* \"#utility.yul\":3943:3948   */\n      dup2\n        /* \"#utility.yul\":3936:3949   */\n      iszero\n        /* \"#utility.yul\":3929:3950   */\n      iszero\n        /* \"#utility.yul\":3918:3950   */\n      swap1\n      pop\n        /* \"#utility.yul\":3866:3956   */\n      swap2\n      swap1\n      pop\n      jump\t// out\n        /* \"#utility.yul\":3962:4071   */\n    tag_62:\n        /* \"#utility.yul\":4043:4064   */\n      tag_116\n        /* \"#utility.yul\":4058:4063   */\n      dup2\n        /* \"#utility.yul\":4043:4064   */\n      tag_61\n      jump\t// in\n    tag_116:\n        /* \"#utility.yul\":4038:4041   */\n      dup3\n        /* \"#utility.yul\":4031:4065   */\n      mstore\n        /* \"#utility.yul\":3962:4071   */\n      pop\n      pop\n      jump\t// out\n        /* \"#utility.yul\":4077:4245   */\n    tag_63:\n        /* \"#utility.yul\":4160:4171   */\n      0x00\n        /* \"#utility.yul\":4194:4200   */\n      dup3\n        /* \"#utility.yul\":4189:4192   */\n      dup3\n        /* \"#utility.yul\":4182:4201   */\n      mstore\n        /* \"#utility.yul\":4234:4238   */\n      0x20\n        /* \"#utility.yul\":4229:4232   */\n      dup3\n        /* \"#utility.yul\":4225:4239   */\n      add\n        /* \"#utility.yul\":4210:4239   */\n      swap1\n      pop\n        /* \"#utility.yul\":4077:4245   */\n      swap3\n      swap2\n      pop\n      pop\n      jump\t// out\n        /* \"#utility.yul\":4251:4353   */\n    tag_64:\n        /* \"#utility.yul\":4292:4298   */\n      0x00\n        /* \"#utility.yul\":4343:4345   */\n      0x1f\n        /* \"#utility.yul\":4339:4346   */\n      not\n        /* \"#utility.yul\":4334:4336   */\n      0x1f\n        /* \"#utility.yul\":4327:4332   */\n      dup4\n        /* \"#utility.yul\":4323:4337   */\n      add\n        /* \"#utility.yul\":4319:4347   */\n      and\n        /* \"#utility.yul\":4309:4347   */\n      swap1\n      pop\n        /* \"#utility.yul\":4251:4353   */\n      swap2\n      swap1\n      pop\n      jump\t// out\n        /* \"#utility.yul\":4359:4732   */\n    tag_65:\n        /* \"#utility.yul\":4445:4448   */\n      0x00\n        /* \"#utility.yul\":4473:4511   */\n      tag_120\n        /* \"#utility.yul\":4505:4510   */\n      dup3\n        /* \"#utility.yul\":4473:4511   */\n      tag_57\n      jump\t// in\n    tag_120:\n        /* \"#utility.yul\":4527:4597   */\n      tag_121\n        /* \"#utility.yul\":4590:4596   */\n      dup2\n        /* \"#utility.yul\":4585:4588   */\n      dup6\n        /* \"#utility.yul\":4527:4597   */\n      tag_63\n      jump\t// in\n    tag_121:\n        /* \"#utility.yul\":4520:4597   */\n      swap4\n      pop\n        /* \"#utility.yul\":4606:4671   */\n      tag_122\n        /* \"#utility.yul\":4664:4670   */\n      dup2\n        /* \"#utility.yul\":4659:4662   */\n      dup6\n        /* \"#utility.yul\":4652:4656   */\n      0x20\n        /* \"#utility.yul\":4645:4650   */\n      dup7\n        /* \"#utility.yul\":4641:4657   */\n      add\n        /* \"#utility.yul\":4606:4671   */\n      tag_59\n      jump\t// in\n    tag_122:\n        /* \"#utility.yul\":4696:4725   */\n      tag_123\n        /* \"#utility.yul\":4718:4724   */\n      dup2\n        /* \"#utility.yul\":4696:4725   */\n      tag_64\n      jump\t// in\n    tag_123:\n        /* \"#utility.yul\":4691:4694   */\n      dup5\n        /* \"#utility.yul\":4687:4726   */\n      add\n        /* \"#utility.yul\":4680:4726   */\n      swap2\n      pop\n        /* \"#utility.yul\":4449:4732   */\n      pop\n        /* \"#utility.yul\":4359:4732   */\n      swap3\n      swap2\n      pop\n      pop\n      jump\t// out\n        /* \"#utility.yul\":4738:5145   */\n    tag_28:\n        /* \"#utility.yul\":4871:4875   */\n      0x00\n        /* \"#utility.yul\":4909:4911   */\n      0x40\n        /* \"#utility.yul\":4898:4907   */\n      dup3\n        /* \"#utility.yul\":4894:4912   */\n      add\n        /* \"#utility.yul\":4886:4912   */\n      swap1\n      pop\n        /* \"#utility.yul\":4922:4987   */\n      tag_125\n        /* \"#utility.yul\":4984:4985   */\n      0x00\n        /* \"#utility.yul\":4973:4982   */\n      dup4\n        /* \"#utility.yul\":4969:4986   */\n      add\n        /* \"#utility.yul\":4960:4966   */\n      dup6\n        /* \"#utility.yul\":4922:4987   */\n      tag_62\n      jump\t// in\n    tag_125:\n        /* \"#utility.yul\":5034:5043   */\n      dup2\n        /* \"#utility.yul\":5028:5032   */\n      dup2\n        /* \"#utility.yul\":5024:5044   */\n      sub\n        /* \"#utility.yul\":5019:5021   */\n      0x20\n        /* \"#utility.yul\":5008:5017   */\n      dup4\n        /* \"#utility.yul\":5004:5022   */\n      add\n        /* \"#utility.yul\":4997:5045   */\n      mstore\n        /* \"#utility.yul\":5062:5138   */\n      tag_126\n        /* \"#utility.yul\":5133:5137   */\n      dup2\n        /* \"#utility.yul\":5124:5130   */\n      dup5\n        /* \"#utility.yul\":5062:5138   */\n      tag_65\n      jump\t// in\n    tag_126:\n        /* \"#utility.yul\":5054:5138   */\n      swap1\n      pop\n        /* \"#utility.yul\":4738:5145   */\n      swap4\n      swap3\n      pop\n      pop\n      pop\n      jump\t// out\n        /* \"#utility.yul\":5151:5294   */\n    tag_66:\n        /* \"#utility.yul\":5208:5213   */\n      0x00\n        /* \"#utility.yul\":5239:5245   */\n      dup2\n        /* \"#utility.yul\":5233:5246   */\n      mload\n        /* \"#utility.yul\":5224:5246   */\n      swap1\n      pop\n        /* \"#utility.yul\":5255:5288   */\n      tag_128\n        /* \"#utility.yul\":5282:5287   */\n      dup2\n        /* \"#utility.yul\":5255:5288   */\n      tag_51\n      jump\t// in\n    tag_128:\n        /* \"#utility.yul\":5151:5294   */\n      swap3\n      swap2\n      pop\n      pop\n      jump\t// out\n        /* \"#utility.yul\":5300:5651   */\n    tag_36:\n        /* \"#utility.yul\":5370:5376   */\n      0x00\n        /* \"#utility.yul\":5419:5421   */\n      0x20\n        /* \"#utility.yul\":5407:5416   */\n      dup3\n        /* \"#utility.yul\":5398:5405   */\n      dup5\n        /* \"#utility.yul\":5394:5417   */\n      sub\n        /* \"#utility.yul\":5390:5422   */\n      slt\n        /* \"#utility.yul\":5387:5506   */\n      iszero\n      tag_130\n      jumpi\n        /* \"#utility.yul\":5425:5504   */\n      tag_131\n      tag_44\n      jump\t// in\n    tag_131:\n        /* \"#utility.yul\":5387:5506   */\n    tag_130:\n        /* \"#utility.yul\":5545:5546   */\n      0x00\n        /* \"#utility.yul\":5570:5634   */\n      tag_132\n        /* \"#utility.yul\":5626:5633   */\n      dup5\n        /* \"#utility.yul\":5617:5623   */\n      dup3\n        /* \"#utility.yul\":5606:5615   */\n      dup6\n        /* \"#utility.yul\":5602:5624   */\n      add\n        /* \"#utility.yul\":5570:5634   */\n      tag_66\n      jump\t// in\n    tag_132:\n        /* \"#utility.yul\":5560:5634   */\n      swap2\n      pop\n        /* \"#utility.yul\":5516:5644   */\n      pop\n        /* \"#utility.yul\":5300:5651   */\n      swap3\n      swap2\n      pop\n      pop\n      jump\t// out\n\n    auxdata: 0xa2646970667358221220893b91895d5b4c6471e11bffe1ca90e144cd39b4c77756d8bee328fc428e161a64736f6c63430008190033\n}\n",
				"bytecode": {
					"linkReferences": {},
					"object": "6080604052348015600e575f80fd5b506107368061001c5f395ff3fe608060405260043610610033575f3560e01c80633ca065bb1461003757806366563e6914610053578063cbb84b4f1461008f575b5f80fd5b610051600480360381019061004c91906104ed565b6100b7565b005b34801561005e575f80fd5b5061007960048036038101906100749190610566565b6101ef565b60405161008691906105a0565b60405180910390f35b34801561009a575f80fd5b506100b560048036038101906100b09190610566565b610332565b005b5f808373ffffffffffffffffffffffffffffffffffffffff1634846040516024016100e291906105a0565b6040516020818303038152906040527f4018d9aa000000000000000000000000000000000000000000000000000000007bffffffffffffffffffffffffffffffffffffffffffffffffffffffff19166020820180517bffffffffffffffffffffffffffffffffffffffffffffffffffffffff838183161783525050505060405161016c919061060b565b5f6040518083038185875af1925050503d805f81146101a6576040519150601f19603f3d011682016040523d82523d5f602084013e6101ab565b606091505b50915091507f13848c3e38f8886f3f5d2ad9dff80d8092c2bbb8efd5b887a99c2c6cfc09ac2a82826040516101e1929190610693565b60405180910390a150505050565b5f805f8373ffffffffffffffffffffffffffffffffffffffff166040516024016040516020818303038152906040527f5197c7aa000000000000000000000000000000000000000000000000000000007bffffffffffffffffffffffffffffffffffffffffffffffffffffffff19166020820180517bffffffffffffffffffffffffffffffffffffffffffffffffffffffff8381831617835250505050604051610299919061060b565b5f604051808303815f865af19150503d805f81146102d2576040519150601f19603f3d011682016040523d82523d5f602084013e6102d7565b606091505b50915091507f13848c3e38f8886f3f5d2ad9dff80d8092c2bbb8efd5b887a99c2c6cfc09ac2a828260405161030d929190610693565b60405180910390a18080602001905181019061032991906106d5565b92505050919050565b5f808273ffffffffffffffffffffffffffffffffffffffff166040516024016040516020818303038152906040527fc2985578000000000000000000000000000000000000000000000000000000007bffffffffffffffffffffffffffffffffffffffffffffffffffffffff19166020820180517bffffffffffffffffffffffffffffffffffffffffffffffffffffffff83818316178352505050506040516103db919061060b565b5f604051808303815f865af19150503d805f8114610414576040519150601f19603f3d011682016040523d82523d5f602084013e610419565b606091505b50915091507f13848c3e38f8886f3f5d2ad9dff80d8092c2bbb8efd5b887a99c2c6cfc09ac2a828260405161044f929190610693565b60405180910390a1505050565b5f80fd5b5f73ffffffffffffffffffffffffffffffffffffffff82169050919050565b5f61048982610460565b9050919050565b6104998161047f565b81146104a3575f80fd5b50565b5f813590506104b481610490565b92915050565b5f819050919050565b6104cc816104ba565b81146104d6575f80fd5b50565b5f813590506104e7816104c3565b92915050565b5f80604083850312156105035761050261045c565b5b5f610510858286016104a6565b9250506020610521858286016104d9565b9150509250929050565b5f61053582610460565b9050919050565b6105458161052b565b811461054f575f80fd5b50565b5f813590506105608161053c565b92915050565b5f6020828403121561057b5761057a61045c565b5b5f61058884828501610552565b91505092915050565b61059a816104ba565b82525050565b5f6020820190506105b35f830184610591565b92915050565b5f81519050919050565b5f81905092915050565b8281835e5f83830152505050565b5f6105e5826105b9565b6105ef81856105c3565b93506105ff8185602086016105cd565b80840191505092915050565b5f61061682846105db565b915081905092915050565b5f8115159050919050565b61063581610621565b82525050565b5f82825260208201905092915050565b5f601f19601f8301169050919050565b5f610665826105b9565b61066f818561063b565b935061067f8185602086016105cd565b6106888161064b565b840191505092915050565b5f6040820190506106a65f83018561062c565b81810360208301526106b8818461065b565b90509392505050565b5f815190506106cf816104c3565b92915050565b5f602082840312156106ea576106e961045c565b5b5f6106f7848285016106c1565b9150509291505056fea2646970667358221220893b91895d5b4c6471e11bffe1ca90e144cd39b4c77756d8bee328fc428e161a64736f6c63430008190033",
					"opcodes": "PUSH1 0x80 PUSH1 0x40 MSTORE CALLVALUE DUP1 ISZERO PUSH1 0xE JUMPI PUSH0 DUP1 REVERT JUMPDEST POP PUSH2 0x736 DUP1 PUSH2 0x1C PUSH0 CODECOPY PUSH0 RETURN INVALID PUSH1 0x80 PUSH1 0x40 MSTORE PUSH1 0x4 CALLDATASIZE LT PUSH2 0x33 JUMPI PUSH0 CALLDATALOAD PUSH1 0xE0 SHR DUP1 PUSH4 0x3CA065BB EQ PUSH2 0x37 JUMPI DUP1 PUSH4 0x66563E69 EQ PUSH2 0x53 JUMPI DUP1 PUSH4 0xCBB84B4F EQ PUSH2 0x8F JUMPI JUMPDEST PUSH0 DUP1 REVERT JUMPDEST PUSH2 0x51 PUSH1 0x4 DUP1 CALLDATASIZE SUB DUP2 ADD SWAP1 PUSH2 0x4C SWAP2 SWAP1 PUSH2 0x4ED JUMP JUMPDEST PUSH2 0xB7 JUMP JUMPDEST STOP JUMPDEST CALLVALUE DUP1 ISZERO PUSH2 0x5E JUMPI PUSH0 DUP1 REVERT JUMPDEST POP PUSH2 0x79 PUSH1 0x4 DUP1 CALLDATASIZE SUB DUP2 ADD SWAP1 PUSH2 0x74 SWAP2 SWAP1 PUSH2 0x566 JUMP JUMPDEST PUSH2 0x1EF JUMP JUMPDEST PUSH1 0x40 MLOAD PUSH2 0x86 SWAP2 SWAP1 PUSH2 0x5A0 JUMP JUMPDEST PUSH1 0x40 MLOAD DUP1 SWAP2 SUB SWAP1 RETURN JUMPDEST CALLVALUE DUP1 ISZERO PUSH2 0x9A JUMPI PUSH0 DUP1 REVERT JUMPDEST POP PUSH2 0xB5 PUSH1 0x4 DUP1 CALLDATASIZE SUB DUP2 ADD SWAP1 PUSH2 0xB0 SWAP2 SWAP1 PUSH2 0x566 JUMP JUMPDEST PUSH2 0x332 JUMP JUMPDEST STOP JUMPDEST PUSH0 DUP1 DUP4 PUSH20 0xFFFFFFFFFFFFFFFFFFFFFFFFFFFFFFFFFFFFFFFF AND CALLVALUE DUP5 PUSH1 0x40 MLOAD PUSH1 0x24 ADD PUSH2 0xE2 SWAP2 SWAP1 PUSH2 0x5A0 JUMP JUMPDEST PUSH1 0x40 MLOAD PUSH1 0x20 DUP2 DUP4 SUB SUB DUP2 MSTORE SWAP1 PUSH1 0x40 MSTORE PUSH32 0x4018D9AA00000000000000000000000000000000000000000000000000000000 PUSH28 0xFFFFFFFFFFFFFFFFFFFFFFFFFFFFFFFFFFFFFFFFFFFFFFFFFFFFFFFF NOT AND PUSH1 0x20 DUP3 ADD DUP1 MLOAD PUSH28 0xFFFFFFFFFFFFFFFFFFFFFFFFFFFFFFFFFFFFFFFFFFFFFFFFFFFFFFFF DUP4 DUP2 DUP4 AND OR DUP4 MSTORE POP POP POP POP PUSH1 0x40 MLOAD PUSH2 0x16C SWAP2 SWAP1 PUSH2 0x60B JUMP JUMPDEST PUSH0 PUSH1 0x40 MLOAD DUP1 DUP4 SUB DUP2 DUP6 DUP8 GAS CALL SWAP3 POP POP POP RETURNDATASIZE DUP1 PUSH0 DUP2 EQ PUSH2 0x1A6 JUMPI PUSH1 0x40 MLOAD SWAP2 POP PUSH1 0x1F NOT PUSH1 0x3F RETURNDATASIZE ADD AND DUP3 ADD PUSH1 0x40 MSTORE RETURNDATASIZE DUP3 MSTORE RETURNDATASIZE PUSH0 PUSH1 0x20 DUP5 ADD RETURNDATACOPY PUSH2 0x1AB JUMP JUMPDEST PUSH1 0x60 SWAP2 POP JUMPDEST POP SWAP2 POP SWAP2 POP PUSH32 0x13848C3E38F8886F3F5D2AD9DFF80D8092C2BBB8EFD5B887A99C2C6CFC09AC2A DUP3 DUP3 PUSH1 0x40 MLOAD PUSH2 0x1E1 SWAP3 SWAP2 SWAP1 PUSH2 0x693 JUMP JUMPDEST PUSH1 0x40 MLOAD DUP1 SWAP2 SUB SWAP1 LOG1 POP POP POP POP JUMP JUMPDEST PUSH0 DUP1 PUSH0 DUP4 PUSH20 0xFFFFFFFFFFFFFFFFFFFFFFFFFFFFFFFFFFFFFFFF AND PUSH1 0x40 MLOAD PUSH1 0x24 ADD PUSH1 0x40 MLOAD PUSH1 0x20 DUP2 DUP4 SUB SUB DUP2 MSTORE SWAP1 PUSH1 0x40 MSTORE PUSH32 0x5197C7AA00000000000000000000000000000000000000000000000000000000 PUSH28 0xFFFFFFFFFFFFFFFFFFFFFFFFFFFFFFFFFFFFFFFFFFFFFFFFFFFFFFFF NOT AND PUSH1 0x20 DUP3 ADD DUP1 MLOAD PUSH28 0xFFFFFFFFFFFFFFFFFFFFFFFFFFFFFFFFFFFFFFFFFFFFFFFFFFFFFFFF DUP4 DUP2 DUP4 AND OR DUP4 MSTORE POP POP POP POP PUSH1 0x40 MLOAD PUSH2 0x299 SWAP2 SWAP1 PUSH2 0x60B JUMP JUMPDEST PUSH0 PUSH1 0x40 MLOAD DUP1 DUP4 SUB DUP2 PUSH0 DUP7 GAS CALL SWAP2 POP POP RETURNDATASIZE DUP1 PUSH0 DUP2 EQ PUSH2 0x2D2 JUMPI PUSH1 0x40 MLOAD SWAP2 POP PUSH1 0x1F NOT PUSH1 0x3F RETURNDATASIZE ADD AND DUP3 ADD PUSH1 0x40 MSTORE RETURNDATASIZE DUP3 MSTORE RETURNDATASIZE PUSH0 PUSH1 0x20 DUP5 ADD RETURNDATACOPY PUSH2 0x2D7 JUMP JUMPDEST PUSH1 0x60 SWAP2 POP JUMPDEST POP SWAP2 POP SWAP2 POP PUSH32 0x13848C3E38F8886F3F5D2AD9DFF80D8092C2BBB8EFD5B887A99C2C6CFC09AC2A DUP3 DUP3 PUSH1 0x40 MLOAD PUSH2 0x30D SWAP3 SWAP2 SWAP1 PUSH2 0x693 JUMP JUMPDEST PUSH1 0x40 MLOAD DUP1 SWAP2 SUB SWAP1 LOG1 DUP1 DUP1 PUSH1 0x20 ADD SWAP1 MLOAD DUP2 ADD SWAP1 PUSH2 0x329 SWAP2 SWAP1 PUSH2 0x6D5 JUMP JUMPDEST SWAP3 POP POP POP SWAP2 SWAP1 POP JUMP JUMPDEST PUSH0 DUP1 DUP3 PUSH20 0xFFFFFFFFFFFFFFFFFFFFFFFFFFFFFFFFFFFFFFFF AND PUSH1 0x40 MLOAD PUSH1 0x24 ADD PUSH1 0x40 MLOAD PUSH1 0x20 DUP2 DUP4 SUB SUB DUP2 MSTORE SWAP1 PUSH1 0x40 MSTORE PUSH32 0xC298557800000000000000000000000000000000000000000000000000000000 PUSH28 0xFFFFFFFFFFFFFFFFFFFFFFFFFFFFFFFFFFFFFFFFFFFFFFFFFFFFFFFF NOT AND PUSH1 0x20 DUP3 ADD DUP1 MLOAD PUSH28 0xFFFFFFFFFFFFFFFFFFFFFFFFFFFFFFFFFFFFFFFFFFFFFFFFFFFFFFFF DUP4 DUP2 DUP4 AND OR DUP4 MSTORE POP POP POP POP PUSH1 0x40 MLOAD PUSH2 0x3DB SWAP2 SWAP1 PUSH2 0x60B JUMP JUMPDEST PUSH0 PUSH1 0x40 MLOAD DUP1 DUP4 SUB DUP2 PUSH0 DUP7 GAS CALL SWAP2 POP POP RETURNDATASIZE DUP1 PUSH0 DUP2 EQ PUSH2 0x414 JUMPI PUSH1 0x40 MLOAD SWAP2 POP PUSH1 0x1F NOT PUSH1 0x3F RETURNDATASIZE ADD AND DUP3 ADD PUSH1 0x40 MSTORE RETURNDATASIZE DUP3 MSTORE RETURNDATASIZE PUSH0 PUSH1 0x20 DUP5 ADD RETURNDATACOPY PUSH2 0x419 JUMP JUMPDEST PUSH1 0x60 SWAP2 POP JUMPDEST POP SWAP2 POP SWAP2 POP PUSH32 0x13848C3E38F8886F3F5D2AD9DFF80D8092C2BBB8EFD5B887A99C2C6CFC09AC2A DUP3 DUP3 PUSH1 0x40 MLOAD PUSH2 0x44F SWAP3 SWAP2 SWAP1 PUSH2 0x693 JUMP JUMPDEST PUSH1 0x40 MLOAD DUP1 SWAP2 SUB SWAP1 LOG1 POP POP POP JUMP JUMPDEST PUSH0 DUP1 REVERT JUMPDEST PUSH0 PUSH20 0xFFFFFFFFFFFFFFFFFFFFFFFFFFFFFFFFFFFFFFFF DUP3 AND SWAP1 POP SWAP2 SWAP1 POP JUMP JUMPDEST PUSH0 PUSH2 0x489 DUP3 PUSH2 0x460 JUMP JUMPDEST SWAP1 POP SWAP2 SWAP1 POP JUMP JUMPDEST PUSH2 0x499 DUP2 PUSH2 0x47F JUMP JUMPDEST DUP2 EQ PUSH2 0x4A3 JUMPI PUSH0 DUP1 REVERT JUMPDEST POP JUMP JUMPDEST PUSH0 DUP2 CALLDATALOAD SWAP1 POP PUSH2 0x4B4 DUP2 PUSH2 0x490 JUMP JUMPDEST SWAP3 SWAP2 POP POP JUMP JUMPDEST PUSH0 DUP2 SWAP1 POP SWAP2 SWAP1 POP JUMP JUMPDEST PUSH2 0x4CC DUP2 PUSH2 0x4BA JUMP JUMPDEST DUP2 EQ PUSH2 0x4D6 JUMPI PUSH0 DUP1 REVERT JUMPDEST POP JUMP JUMPDEST PUSH0 DUP2 CALLDATALOAD SWAP1 POP PUSH2 0x4E7 DUP2 PUSH2 0x4C3 JUMP JUMPDEST SWAP3 SWAP2 POP POP JUMP JUMPDEST PUSH0 DUP1 PUSH1 0x40 DUP4 DUP6 SUB SLT ISZERO PUSH2 0x503 JUMPI PUSH2 0x502 PUSH2 0x45C JUMP JUMPDEST JUMPDEST PUSH0 PUSH2 0x510 DUP6 DUP3 DUP7 ADD PUSH2 0x4A6 JUMP JUMPDEST SWAP3 POP POP PUSH1 0x20 PUSH2 0x521 DUP6 DUP3 DUP7 ADD PUSH2 0x4D9 JUMP JUMPDEST SWAP2 POP POP SWAP3 POP SWAP3 SWAP1 POP JUMP JUMPDEST PUSH0 PUSH2 0x535 DUP3 PUSH2 0x460 JUMP JUMPDEST SWAP1 POP SWAP2 SWAP1 POP JUMP JUMPDEST PUSH2 0x545 DUP2 PUSH2 0x52B JUMP JUMPDEST DUP2 EQ PUSH2 0x54F JUMPI PUSH0 DUP1 REVERT JUMPDEST POP JUMP JUMPDEST PUSH0 DUP2 CALLDATALOAD SWAP1 POP PUSH2 0x560 DUP2 PUSH2 0x53C JUMP JUMPDEST SWAP3 SWAP2 POP POP JUMP JUMPDEST PUSH0 PUSH1 0x20 DUP3 DUP5 SUB SLT ISZERO PUSH2 0x57B JUMPI PUSH2 0x57A PUSH2 0x45C JUMP JUMPDEST JUMPDEST PUSH0 PUSH2 0x588 DUP5 DUP3 DUP6 ADD PUSH2 0x552 JUMP JUMPDEST SWAP2 POP POP SWAP3 SWAP2 POP POP JUMP JUMPDEST PUSH2 0x59A DUP2 PUSH2 0x4BA JUMP JUMPDEST DUP3 MSTORE POP POP JUMP JUMPDEST PUSH0 PUSH1 0x20 DUP3 ADD SWAP1 POP PUSH2 0x5B3 PUSH0 DUP4 ADD DUP5 PUSH2 0x591 JUMP JUMPDEST SWAP3 SWAP2 POP POP JUMP JUMPDEST PUSH0 DUP2 MLOAD SWAP1 POP SWAP2 SWAP1 POP JUMP JUMPDEST PUSH0 DUP2 SWAP1 POP SWAP3 SWAP2 POP POP JUMP JUMPDEST DUP3 DUP2 DUP4 MCOPY PUSH0 DUP4 DUP4 ADD MSTORE POP POP POP JUMP JUMPDEST PUSH0 PUSH2 0x5E5 DUP3 PUSH2 0x5B9 JUMP JUMPDEST PUSH2 0x5EF DUP2 DUP6 PUSH2 0x5C3 JUMP JUMPDEST SWAP4 POP PUSH2 0x5FF DUP2 DUP6 PUSH1 0x20 DUP7 ADD PUSH2 0x5CD JUMP JUMPDEST DUP1 DUP5 ADD SWAP2 POP POP SWAP3 SWAP2 POP POP JUMP JUMPDEST PUSH0 PUSH2 0x616 DUP3 DUP5 PUSH2 0x5DB JUMP JUMPDEST SWAP2 POP DUP2 SWAP1 POP SWAP3 SWAP2 POP POP JUMP JUMPDEST PUSH0 DUP2 ISZERO ISZERO SWAP1 POP SWAP2 SWAP1 POP JUMP JUMPDEST PUSH2 0x635 DUP2 PUSH2 0x621 JUMP JUMPDEST DUP3 MSTORE POP POP JUMP JUMPDEST PUSH0 DUP3 DUP3 MSTORE PUSH1 0x20 DUP3 ADD SWAP1 POP SWAP3 SWAP2 POP POP JUMP JUMPDEST PUSH0 PUSH1 0x1F NOT PUSH1 0x1F DUP4 ADD AND SWAP1 POP SWAP2 SWAP1 POP JUMP JUMPDEST PUSH0 PUSH2 0x665 DUP3 PUSH2 0x5B9 JUMP JUMPDEST PUSH2 0x66F DUP2 DUP6 PUSH2 0x63B JUMP JUMPDEST SWAP4 POP PUSH2 0x67F DUP2 DUP6 PUSH1 0x20 DUP7 ADD PUSH2 0x5CD JUMP JUMPDEST PUSH2 0x688 DUP2 PUSH2 0x64B JUMP JUMPDEST DUP5 ADD SWAP2 POP POP SWAP3 SWAP2 POP POP JUMP JUMPDEST PUSH0 PUSH1 0x40 DUP3 ADD SWAP1 POP PUSH2 0x6A6 PUSH0 DUP4 ADD DUP6 PUSH2 0x62C JUMP JUMPDEST DUP2 DUP2 SUB PUSH1 0x20 DUP4 ADD MSTORE PUSH2 0x6B8 DUP2 DUP5 PUSH2 0x65B JUMP JUMPDEST SWAP1 POP SWAP4 SWAP3 POP POP POP JUMP JUMPDEST PUSH0 DUP2 MLOAD SWAP1 POP PUSH2 0x6CF DUP2 PUSH2 0x4C3 JUMP JUMPDEST SWAP3 SWAP2 POP POP JUMP JUMPDEST PUSH0 PUSH1 0x20 DUP3 DUP5 SUB SLT ISZERO PUSH2 0x6EA JUMPI PUSH2 0x6E9 PUSH2 0x45C JUMP JUMPDEST JUMPDEST PUSH0 PUSH2 0x6F7 DUP5 DUP3 DUP6 ADD PUSH2 0x6C1 JUMP JUMPDEST SWAP2 POP POP SWAP3 SWAP2 POP POP JUMP INVALID LOG2 PUSH5 0x6970667358 0x22 SLT KECCAK256 DUP10 EXTCODESIZE SWAP2 DUP10 TSTORE JUMPDEST 0x4C PUSH5 0x71E11BFFE1 0xCA SWAP1 0xE1 PREVRANDAO 0xCD CODECOPY 0xB4 0xC7 PUSH24 0x56D8BEE328FC428E161A64736F6C63430008190033000000 "
				},
				"gasEstimates": {
					"creation": {
						"codeDepositCost": "369200",
						"executionCost": "403",
						"totalCost": "369603"
					},
					"external": {
						"callGetX(address)": "infinite",
						"callNotExsit(address)": "infinite",
						"callSetX(address,uint256)": "infinite"
					}
				},
				"methodIdentifiers": {
					"callGetX(address)": "66563e69",
					"callNotExsit(address)": "cbb84b4f",
					"callSetX(address,uint256)": "3ca065bb"
				}
			},
			"storageLayout": {
				"storage": [],
				"types": null
			},
			"userdoc": {
				"kind": "user",
				"methods": {},
				"version": 1
			}
		}
	}
}