{
	"wtfSolidity/101/101_13/inheritance2.sol": {
		"Eve": {
			"abi": [
				{
					"anonymous": false,
					"inputs": [
						{
							"indexed": false,
							"internalType": "string",
							"name": "message",
							"type": "string"
						}
					],
					"name": "Log",
					"type": "event"
				},
				{
					"inputs": [],
					"name": "bar",
					"outputs": [],
					"stateMutability": "nonpayable",
					"type": "function"
				},
				{
					"inputs": [],
					"name": "foo",
					"outputs": [],
					"stateMutability": "nonpayable",
					"type": "function"
				}
			],
			"devdoc": {
				"kind": "dev",
				"methods": {},
				"version": 1
			},
			"evm": {
				"assembly": "    /* \"wtfSolidity/101/101_13/inheritance2.sol\":577:827  contract Eve is God {... */\n  mstore(0x40, 0x80)\n  callvalue\n  dup1\n  iszero\n  tag_1\n  jumpi\n  0x00\n  dup1\n  revert\ntag_1:\n  pop\n  dataSize(sub_0)\n  dup1\n  dataOffset(sub_0)\n  0x00\n  codecopy\n  0x00\n  return\nstop\n\nsub_0: assembly {\n        /* \"wtfSolidity/101/101_13/inheritance2.sol\":577:827  contract Eve is God {... */\n      mstore(0x40, 0x80)\n      callvalue\n      dup1\n      iszero\n      tag_1\n      jumpi\n      0x00\n      dup1\n      revert\n    tag_1:\n      pop\n      jumpi(tag_2, lt(calldatasize, 0x04))\n      shr(0xe0, calldataload(0x00))\n      dup1\n      0xc2985578\n      eq\n      tag_3\n      jumpi\n      dup1\n      0xfebb0f7e\n      eq\n      tag_4\n      jumpi\n    tag_2:\n      0x00\n      dup1\n      revert\n        /* \"wtfSolidity/101/101_13/inheritance2.sol\":604:710  function foo() public virtual override {... */\n    tag_3:\n      tag_5\n      tag_6\n      jump\t// in\n    tag_5:\n      stop\n        /* \"wtfSolidity/101/101_13/inheritance2.sol\":718:824  function bar() public virtual override {... */\n    tag_4:\n      tag_7\n      tag_8\n      jump\t// in\n    tag_7:\n      stop\n        /* \"wtfSolidity/101/101_13/inheritance2.sol\":604:710  function foo() public virtual override {... */\n    tag_6:\n        /* \"wtfSolidity/101/101_13/inheritance2.sol\":659:680  Log(\"Eve.foo called\") */\n      0xcf34ef537ac33ee1ac626ca1587a0a7e8e51561e5514f8cb36afa1c5102b3bab\n      mload(0x40)\n      tag_10\n      swap1\n      tag_11\n      jump\t// in\n    tag_10:\n      mload(0x40)\n      dup1\n      swap2\n      sub\n      swap1\n      log1\n        /* \"wtfSolidity/101/101_13/inheritance2.sol\":691:702  super.foo() */\n      tag_12\n        /* \"wtfSolidity/101/101_13/inheritance2.sol\":691:700  super.foo */\n      tag_13\n        /* \"wtfSolidity/101/101_13/inheritance2.sol\":691:702  super.foo() */\n      jump\t// in\n    tag_12:\n        /* \"wtfSolidity/101/101_13/inheritance2.sol\":604:710  function foo() public virtual override {... */\n      jump\t// out\n        /* \"wtfSolidity/101/101_13/inheritance2.sol\":718:824  function bar() public virtual override {... */\n    tag_8:\n        /* \"wtfSolidity/101/101_13/inheritance2.sol\":773:794  Log(\"Eve.bar called\") */\n      0xcf34ef537ac33ee1ac626ca1587a0a7e8e51561e5514f8cb36afa1c5102b3bab\n      mload(0x40)\n      tag_15\n      swap1\n      tag_16\n      jump\t// in\n    tag_15:\n      mload(0x40)\n      dup1\n      swap2\n      sub\n      swap1\n      log1\n        /* \"wtfSolidity/101/101_13/inheritance2.sol\":805:816  super.bar() */\n      tag_17\n        /* \"wtfSolidity/101/101_13/inheritance2.sol\":805:814  super.bar */\n      tag_18\n        /* \"wtfSolidity/101/101_13/inheritance2.sol\":805:816  super.bar() */\n      jump\t// in\n    tag_17:\n        /* \"wtfSolidity/101/101_13/inheritance2.sol\":718:824  function bar() public virtual override {... */\n      jump\t// out\n        /* \"wtfSolidity/101/101_13/inheritance2.sol\":177:252  function foo() public virtual {... */\n    tag_13:\n        /* \"wtfSolidity/101/101_13/inheritance2.sol\":223:244  Log(\"God.foo called\") */\n      0xcf34ef537ac33ee1ac626ca1587a0a7e8e51561e5514f8cb36afa1c5102b3bab\n      mload(0x40)\n      tag_20\n      swap1\n      tag_21\n      jump\t// in\n    tag_20:\n      mload(0x40)\n      dup1\n      swap2\n      sub\n      swap1\n      log1\n        /* \"wtfSolidity/101/101_13/inheritance2.sol\":177:252  function foo() public virtual {... */\n      jump\t// out\n        /* \"wtfSolidity/101/101_13/inheritance2.sol\":260:335  function bar() public virtual {... */\n    tag_18:\n        /* \"wtfSolidity/101/101_13/inheritance2.sol\":306:327  Log(\"God.bar called\") */\n      0xcf34ef537ac33ee1ac626ca1587a0a7e8e51561e5514f8cb36afa1c5102b3bab\n      mload(0x40)\n      tag_23\n      swap1\n      tag_24\n      jump\t// in\n    tag_23:\n      mload(0x40)\n      dup1\n      swap2\n      sub\n      swap1\n      log1\n        /* \"wtfSolidity/101/101_13/inheritance2.sol\":260:335  function bar() public virtual {... */\n      jump\t// out\n        /* \"#utility.yul\":7:176   */\n    tag_25:\n        /* \"#utility.yul\":91:102   */\n      0x00\n        /* \"#utility.yul\":125:131   */\n      dup3\n        /* \"#utility.yul\":120:123   */\n      dup3\n        /* \"#utility.yul\":113:132   */\n      mstore\n        /* \"#utility.yul\":165:169   */\n      0x20\n        /* \"#utility.yul\":160:163   */\n      dup3\n        /* \"#utility.yul\":156:170   */\n      add\n        /* \"#utility.yul\":141:170   */\n      swap1\n      pop\n        /* \"#utility.yul\":7:176   */\n      swap3\n      swap2\n      pop\n      pop\n      jump\t// out\n        /* \"#utility.yul\":182:346   */\n    tag_26:\n        /* \"#utility.yul\":322:338   */\n      0x4576652e666f6f2063616c6c6564000000000000000000000000000000000000\n        /* \"#utility.yul\":318:319   */\n      0x00\n        /* \"#utility.yul\":310:316   */\n      dup3\n        /* \"#utility.yul\":306:320   */\n      add\n        /* \"#utility.yul\":299:339   */\n      mstore\n        /* \"#utility.yul\":182:346   */\n      pop\n      jump\t// out\n        /* \"#utility.yul\":352:718   */\n    tag_27:\n        /* \"#utility.yul\":494:497   */\n      0x00\n        /* \"#utility.yul\":515:582   */\n      tag_38\n        /* \"#utility.yul\":579:581   */\n      0x0e\n        /* \"#utility.yul\":574:577   */\n      dup4\n        /* \"#utility.yul\":515:582   */\n      tag_25\n      jump\t// in\n    tag_38:\n        /* \"#utility.yul\":508:582   */\n      swap2\n      pop\n        /* \"#utility.yul\":591:684   */\n      tag_39\n        /* \"#utility.yul\":680:683   */\n      dup3\n        /* \"#utility.yul\":591:684   */\n      tag_26\n      jump\t// in\n    tag_39:\n        /* \"#utility.yul\":709:711   */\n      0x20\n        /* \"#utility.yul\":704:707   */\n      dup3\n        /* \"#utility.yul\":700:712   */\n      add\n        /* \"#utility.yul\":693:712   */\n      swap1\n      pop\n        /* \"#utility.yul\":352:718   */\n      swap2\n      swap1\n      pop\n      jump\t// out\n        /* \"#utility.yul\":724:1143   */\n    tag_11:\n        /* \"#utility.yul\":890:894   */\n      0x00\n        /* \"#utility.yul\":928:930   */\n      0x20\n        /* \"#utility.yul\":917:926   */\n      dup3\n        /* \"#utility.yul\":913:931   */\n      add\n        /* \"#utility.yul\":905:931   */\n      swap1\n      pop\n        /* \"#utility.yul\":977:986   */\n      dup2\n        /* \"#utility.yul\":971:975   */\n      dup2\n        /* \"#utility.yul\":967:987   */\n      sub\n        /* \"#utility.yul\":963:964   */\n      0x00\n        /* \"#utility.yul\":952:961   */\n      dup4\n        /* \"#utility.yul\":948:965   */\n      add\n        /* \"#utility.yul\":941:988   */\n      mstore\n        /* \"#utility.yul\":1005:1136   */\n      tag_41\n        /* \"#utility.yul\":1131:1135   */\n      dup2\n        /* \"#utility.yul\":1005:1136   */\n      tag_27\n      jump\t// in\n    tag_41:\n        /* \"#utility.yul\":997:1136   */\n      swap1\n      pop\n        /* \"#utility.yul\":724:1143   */\n      swap2\n      swap1\n      pop\n      jump\t// out\n        /* \"#utility.yul\":1149:1313   */\n    tag_28:\n        /* \"#utility.yul\":1289:1305   */\n      0x4576652e6261722063616c6c6564000000000000000000000000000000000000\n        /* \"#utility.yul\":1285:1286   */\n      0x00\n        /* \"#utility.yul\":1277:1283   */\n      dup3\n        /* \"#utility.yul\":1273:1287   */\n      add\n        /* \"#utility.yul\":1266:1306   */\n      mstore\n        /* \"#utility.yul\":1149:1313   */\n      pop\n      jump\t// out\n        /* \"#utility.yul\":1319:1685   */\n    tag_29:\n        /* \"#utility.yul\":1461:1464   */\n      0x00\n        /* \"#utility.yul\":1482:1549   */\n      tag_44\n        /* \"#utility.yul\":1546:1548   */\n      0x0e\n        /* \"#utility.yul\":1541:1544   */\n      dup4\n        /* \"#utility.yul\":1482:1549   */\n      tag_25\n      jump\t// in\n    tag_44:\n        /* \"#utility.yul\":1475:1549   */\n      swap2\n      pop\n        /* \"#utility.yul\":1558:1651   */\n      tag_45\n        /* \"#utility.yul\":1647:1650   */\n      dup3\n        /* \"#utility.yul\":1558:1651   */\n      tag_28\n      jump\t// in\n    tag_45:\n        /* \"#utility.yul\":1676:1678   */\n      0x20\n        /* \"#utility.yul\":1671:1674   */\n      dup3\n        /* \"#utility.yul\":1667:1679   */\n      add\n        /* \"#utility.yul\":1660:1679   */\n      swap1\n      pop\n        /* \"#utility.yul\":1319:1685   */\n      swap2\n      swap1\n      pop\n      jump\t// out\n        /* \"#utility.yul\":1691:2110   */\n    tag_16:\n        /* \"#utility.yul\":1857:1861   */\n      0x00\n        /* \"#utility.yul\":1895:1897   */\n      0x20\n        /* \"#utility.yul\":1884:1893   */\n      dup3\n        /* \"#utility.yul\":1880:1898   */\n      add\n        /* \"#utility.yul\":1872:1898   */\n      swap1\n      pop\n        /* \"#utility.yul\":1944:1953   */\n      dup2\n        /* \"#utility.yul\":1938:1942   */\n      dup2\n        /* \"#utility.yul\":1934:1954   */\n      sub\n        /* \"#utility.yul\":1930:1931   */\n      0x00\n        /* \"#utility.yul\":1919:1928   */\n      dup4\n        /* \"#utility.yul\":1915:1932   */\n      add\n        /* \"#utility.yul\":1908:1955   */\n      mstore\n        /* \"#utility.yul\":1972:2103   */\n      tag_47\n        /* \"#utility.yul\":2098:2102   */\n      dup2\n        /* \"#utility.yul\":1972:2103   */\n      tag_29\n      jump\t// in\n    tag_47:\n        /* \"#utility.yul\":1964:2103   */\n      swap1\n      pop\n        /* \"#utility.yul\":1691:2110   */\n      swap2\n      swap1\n      pop\n      jump\t// out\n        /* \"#utility.yul\":2116:2280   */\n    tag_30:\n        /* \"#utility.yul\":2256:2272   */\n      0x476f642e666f6f2063616c6c6564000000000000000000000000000000000000\n        /* \"#utility.yul\":2252:2253   */\n      0x00\n        /* \"#utility.yul\":2244:2250   */\n      dup3\n        /* \"#utility.yul\":2240:2254   */\n      add\n        /* \"#utility.yul\":2233:2273   */\n      mstore\n        /* \"#utility.yul\":2116:2280   */\n      pop\n      jump\t// out\n        /* \"#utility.yul\":2286:2652   */\n    tag_31:\n        /* \"#utility.yul\":2428:2431   */\n      0x00\n        /* \"#utility.yul\":2449:2516   */\n      tag_50\n        /* \"#utility.yul\":2513:2515   */\n      0x0e\n        /* \"#utility.yul\":2508:2511   */\n      dup4\n        /* \"#utility.yul\":2449:2516   */\n      tag_25\n      jump\t// in\n    tag_50:\n        /* \"#utility.yul\":2442:2516   */\n      swap2\n      pop\n        /* \"#utility.yul\":2525:2618   */\n      tag_51\n        /* \"#utility.yul\":2614:2617   */\n      dup3\n        /* \"#utility.yul\":2525:2618   */\n      tag_30\n      jump\t// in\n    tag_51:\n        /* \"#utility.yul\":2643:2645   */\n      0x20\n        /* \"#utility.yul\":2638:2641   */\n      dup3\n        /* \"#utility.yul\":2634:2646   */\n      add\n        /* \"#utility.yul\":2627:2646   */\n      swap1\n      pop\n        /* \"#utility.yul\":2286:2652   */\n      swap2\n      swap1\n      pop\n      jump\t// out\n        /* \"#utility.yul\":2658:3077   */\n    tag_21:\n        /* \"#utility.yul\":2824:2828   */\n      0x00\n        /* \"#utility.yul\":2862:2864   */\n      0x20\n        /* \"#utility.yul\":2851:2860   */\n      dup3\n        /* \"#utility.yul\":2847:2865   */\n      add\n        /* \"#utility.yul\":2839:2865   */\n      swap1\n      pop\n        /* \"#utility.yul\":2911:2920   */\n      dup2\n        /* \"#utility.yul\":2905:2909   */\n      dup2\n        /* \"#utility.yul\":2901:2921   */\n      sub\n        /* \"#utility.yul\":2897:2898   */\n      0x00\n        /* \"#utility.yul\":2886:2895   */\n      dup4\n        /* \"#utility.yul\":2882:2899   */\n      add\n        /* \"#utility.yul\":2875:2922   */\n      mstore\n        /* \"#utility.yul\":2939:3070   */\n      tag_53\n        /* \"#utility.yul\":3065:3069   */\n      dup2\n        /* \"#utility.yul\":2939:3070   */\n      tag_31\n      jump\t// in\n    tag_53:\n        /* \"#utility.yul\":2931:3070   */\n      swap1\n      pop\n        /* \"#utility.yul\":2658:3077   */\n      swap2\n      swap1\n      pop\n      jump\t// out\n        /* \"#utility.yul\":3083:3247   */\n    tag_32:\n        /* \"#utility.yul\":3223:3239   */\n      0x476f642e6261722063616c6c6564000000000000000000000000000000000000\n        /* \"#utility.yul\":3219:3220   */\n      0x00\n        /* \"#utility.yul\":3211:3217   */\n      dup3\n        /* \"#utility.yul\":3207:3221   */\n      add\n        /* \"#utility.yul\":3200:3240   */\n      mstore\n        /* \"#utility.yul\":3083:3247   */\n      pop\n      jump\t// out\n        /* \"#utility.yul\":3253:3619   */\n    tag_33:\n        /* \"#utility.yul\":3395:3398   */\n      0x00\n        /* \"#utility.yul\":3416:3483   */\n      tag_56\n        /* \"#utility.yul\":3480:3482   */\n      0x0e\n        /* \"#utility.yul\":3475:3478   */\n      dup4\n        /* \"#utility.yul\":3416:3483   */\n      tag_25\n      jump\t// in\n    tag_56:\n        /* \"#utility.yul\":3409:3483   */\n      swap2\n      pop\n        /* \"#utility.yul\":3492:3585   */\n      tag_57\n        /* \"#utility.yul\":3581:3584   */\n      dup3\n        /* \"#utility.yul\":3492:3585   */\n      tag_32\n      jump\t// in\n    tag_57:\n        /* \"#utility.yul\":3610:3612   */\n      0x20\n        /* \"#utility.yul\":3605:3608   */\n      dup3\n        /* \"#utility.yul\":3601:3613   */\n      add\n        /* \"#utility.yul\":3594:3613   */\n      swap1\n      pop\n        /* \"#utility.yul\":3253:3619   */\n      swap2\n      swap1\n      pop\n      jump\t// out\n        /* \"#utility.yul\":3625:4044   */\n    tag_24:\n        /* \"#utility.yul\":3791:3795   */\n      0x00\n        /* \"#utility.yul\":3829:3831   */\n      0x20\n        /* \"#utility.yul\":3818:3827   */\n      dup3\n        /* \"#utility.yul\":3814:3832   */\n      add\n        /* \"#utility.yul\":3806:3832   */\n      swap1\n      pop\n        /* \"#utility.yul\":3878:3887   */\n      dup2\n        /* \"#utility.yul\":3872:3876   */\n      dup2\n        /* \"#utility.yul\":3868:3888   */\n      sub\n        /* \"#utility.yul\":3864:3865   */\n      0x00\n        /* \"#utility.yul\":3853:3862   */\n      dup4\n        /* \"#utility.yul\":3849:3866   */\n      add\n        /* \"#utility.yul\":3842:3889   */\n      mstore\n        /* \"#utility.yul\":3906:4037   */\n      tag_59\n        /* \"#utility.yul\":4032:4036   */\n      dup2\n        /* \"#utility.yul\":3906:4037   */\n      tag_33\n      jump\t// in\n    tag_59:\n        /* \"#utility.yul\":3898:4037   */\n      swap1\n      pop\n        /* \"#utility.yul\":3625:4044   */\n      swap2\n      swap1\n      pop\n      jump\t// out\n\n    auxdata: 0xa26469706673582212205617b95698e355114ca6ad904c59c1effc2886f8f3820ac5f64a03afc9772dc164736f6c63430008190033\n}\n",
				"bytecode": {
					"linkReferences": {},
					"object": "6080604052348015600e575f80fd5b5061031e8061001c5f395ff3fe608060405234801561000f575f80fd5b5060043610610034575f3560e01c8063c298557814610038578063febb0f7e14610042575b5f80fd5b61004061004c565b005b61004a61008b565b005b7fcf34ef537ac33ee1ac626ca1587a0a7e8e51561e5514f8cb36afa1c5102b3bab60405161007990610192565b60405180910390a16100896100ca565b565b7fcf34ef537ac33ee1ac626ca1587a0a7e8e51561e5514f8cb36afa1c5102b3bab6040516100b8906101fa565b60405180910390a16100c8610101565b565b7fcf34ef537ac33ee1ac626ca1587a0a7e8e51561e5514f8cb36afa1c5102b3bab6040516100f790610262565b60405180910390a1565b7fcf34ef537ac33ee1ac626ca1587a0a7e8e51561e5514f8cb36afa1c5102b3bab60405161012e906102ca565b60405180910390a1565b5f82825260208201905092915050565b7f4576652e666f6f2063616c6c65640000000000000000000000000000000000005f82015250565b5f61017c600e83610138565b915061018782610148565b602082019050919050565b5f6020820190508181035f8301526101a981610170565b9050919050565b7f4576652e6261722063616c6c65640000000000000000000000000000000000005f82015250565b5f6101e4600e83610138565b91506101ef826101b0565b602082019050919050565b5f6020820190508181035f830152610211816101d8565b9050919050565b7f476f642e666f6f2063616c6c65640000000000000000000000000000000000005f82015250565b5f61024c600e83610138565b915061025782610218565b602082019050919050565b5f6020820190508181035f83015261027981610240565b9050919050565b7f476f642e6261722063616c6c65640000000000000000000000000000000000005f82015250565b5f6102b4600e83610138565b91506102bf82610280565b602082019050919050565b5f6020820190508181035f8301526102e1816102a8565b905091905056fea26469706673582212205617b95698e355114ca6ad904c59c1effc2886f8f3820ac5f64a03afc9772dc164736f6c63430008190033",
					"opcodes": "PUSH1 0x80 PUSH1 0x40 MSTORE CALLVALUE DUP1 ISZERO PUSH1 0xE JUMPI PUSH0 DUP1 REVERT JUMPDEST POP PUSH2 0x31E DUP1 PUSH2 0x1C PUSH0 CODECOPY PUSH0 RETURN INVALID PUSH1 0x80 PUSH1 0x40 MSTORE CALLVALUE DUP1 ISZERO PUSH2 0xF JUMPI PUSH0 DUP1 REVERT JUMPDEST POP PUSH1 0x4 CALLDATASIZE LT PUSH2 0x34 JUMPI PUSH0 CALLDATALOAD PUSH1 0xE0 SHR DUP1 PUSH4 0xC2985578 EQ PUSH2 0x38 JUMPI DUP1 PUSH4 0xFEBB0F7E EQ PUSH2 0x42 JUMPI JUMPDEST PUSH0 DUP1 REVERT JUMPDEST PUSH2 0x40 PUSH2 0x4C JUMP JUMPDEST STOP JUMPDEST PUSH2 0x4A PUSH2 0x8B JUMP JUMPDEST STOP JUMPDEST PUSH32 0xCF34EF537AC33EE1AC626CA1587A0A7E8E51561E5514F8CB36AFA1C5102B3BAB PUSH1 0x40 MLOAD PUSH2 0x79 SWAP1 PUSH2 0x192 JUMP JUMPDEST PUSH1 0x40 MLOAD DUP1 SWAP2 SUB SWAP1 LOG1 PUSH2 0x89 PUSH2 0xCA JUMP JUMPDEST JUMP JUMPDEST PUSH32 0xCF34EF537AC33EE1AC626CA1587A0A7E8E51561E5514F8CB36AFA1C5102B3BAB PUSH1 0x40 MLOAD PUSH2 0xB8 SWAP1 PUSH2 0x1FA JUMP JUMPDEST PUSH1 0x40 MLOAD DUP1 SWAP2 SUB SWAP1 LOG1 PUSH2 0xC8 PUSH2 0x101 JUMP JUMPDEST JUMP JUMPDEST PUSH32 0xCF34EF537AC33EE1AC626CA1587A0A7E8E51561E5514F8CB36AFA1C5102B3BAB PUSH1 0x40 MLOAD PUSH2 0xF7 SWAP1 PUSH2 0x262 JUMP JUMPDEST PUSH1 0x40 MLOAD DUP1 SWAP2 SUB SWAP1 LOG1 JUMP JUMPDEST PUSH32 0xCF34EF537AC33EE1AC626CA1587A0A7E8E51561E5514F8CB36AFA1C5102B3BAB PUSH1 0x40 MLOAD PUSH2 0x12E SWAP1 PUSH2 0x2CA JUMP JUMPDEST PUSH1 0x40 MLOAD DUP1 SWAP2 SUB SWAP1 LOG1 JUMP JUMPDEST PUSH0 DUP3 DUP3 MSTORE PUSH1 0x20 DUP3 ADD SWAP1 POP SWAP3 SWAP2 POP POP JUMP JUMPDEST PUSH32 0x4576652E666F6F2063616C6C6564000000000000000000000000000000000000 PUSH0 DUP3 ADD MSTORE POP JUMP JUMPDEST PUSH0 PUSH2 0x17C PUSH1 0xE DUP4 PUSH2 0x138 JUMP JUMPDEST SWAP2 POP PUSH2 0x187 DUP3 PUSH2 0x148 JUMP JUMPDEST PUSH1 0x20 DUP3 ADD SWAP1 POP SWAP2 SWAP1 POP JUMP JUMPDEST PUSH0 PUSH1 0x20 DUP3 ADD SWAP1 POP DUP2 DUP2 SUB PUSH0 DUP4 ADD MSTORE PUSH2 0x1A9 DUP2 PUSH2 0x170 JUMP JUMPDEST SWAP1 POP SWAP2 SWAP1 POP JUMP JUMPDEST PUSH32 0x4576652E6261722063616C6C6564000000000000000000000000000000000000 PUSH0 DUP3 ADD MSTORE POP JUMP JUMPDEST PUSH0 PUSH2 0x1E4 PUSH1 0xE DUP4 PUSH2 0x138 JUMP JUMPDEST SWAP2 POP PUSH2 0x1EF DUP3 PUSH2 0x1B0 JUMP JUMPDEST PUSH1 0x20 DUP3 ADD SWAP1 POP SWAP2 SWAP1 POP JUMP JUMPDEST PUSH0 PUSH1 0x20 DUP3 ADD SWAP1 POP DUP2 DUP2 SUB PUSH0 DUP4 ADD MSTORE PUSH2 0x211 DUP2 PUSH2 0x1D8 JUMP JUMPDEST SWAP1 POP SWAP2 SWAP1 POP JUMP JUMPDEST PUSH32 0x476F642E666F6F2063616C6C6564000000000000000000000000000000000000 PUSH0 DUP3 ADD MSTORE POP JUMP JUMPDEST PUSH0 PUSH2 0x24C PUSH1 0xE DUP4 PUSH2 0x138 JUMP JUMPDEST SWAP2 POP PUSH2 0x257 DUP3 PUSH2 0x218 JUMP JUMPDEST PUSH1 0x20 DUP3 ADD SWAP1 POP SWAP2 SWAP1 POP JUMP JUMPDEST PUSH0 PUSH1 0x20 DUP3 ADD SWAP1 POP DUP2 DUP2 SUB PUSH0 DUP4 ADD MSTORE PUSH2 0x279 DUP2 PUSH2 0x240 JUMP JUMPDEST SWAP1 POP SWAP2 SWAP1 POP JUMP JUMPDEST PUSH32 0x476F642E6261722063616C6C6564000000000000000000000000000000000000 PUSH0 DUP3 ADD MSTORE POP JUMP JUMPDEST PUSH0 PUSH2 0x2B4 PUSH1 0xE DUP4 PUSH2 0x138 JUMP JUMPDEST SWAP2 POP PUSH2 0x2BF DUP3 PUSH2 0x280 JUMP JUMPDEST PUSH1 0x20 DUP3 ADD SWAP1 POP SWAP2 SWAP1 POP JUMP JUMPDEST PUSH0 PUSH1 0x20 DUP3 ADD SWAP1 POP DUP2 DUP2 SUB PUSH0 DUP4 ADD MSTORE PUSH2 0x2E1 DUP2 PUSH2 0x2A8 JUMP JUMPDEST SWAP1 POP SWAP2 SWAP1 POP JUMP INVALID LOG2 PUSH5 0x6970667358 0x22 SLT KECCAK256 JUMP OR 0xB9 JUMP SWAP9 0xE3 SSTORE GT 0x4C 0xA6 0xAD SWAP1 0x4C MSIZE 0xC1 0xEF 0xFC 0x28 DUP7 0xF8 RETURN DUP3 EXP 0xC5 0xF6 BLOBBASEFEE SUB 0xAF 0xC9 PUSH24 0x2DC164736F6C634300081900330000000000000000000000 "
				},
				"gasEstimates": {
					"creation": {
						"codeDepositCost": "159600",
						"executionCost": "200",
						"totalCost": "159800"
					},
					"external": {
						"bar()": "infinite",
						"foo()": "infinite"
					}
				},
				"methodIdentifiers": {
					"bar()": "febb0f7e",
					"foo()": "c2985578"
				}
			},
			"storageLayout": {
				"storage": [],
				"types": null
			},
			"userdoc": {
				"kind": "user",
				"methods": {},
				"version": 1
			}
		}
	}
}