{
	"wtfSolidity/101/101_13/inheritance1.sol": {
		"Identifier": {
			"abi": [
				{
					"inputs": [
						{
							"internalType": "uint256",
							"name": "_dividend",
							"type": "uint256"
						}
					],
					"name": "getExactDividedBy2And3",
					"outputs": [
						{
							"internalType": "uint256",
							"name": "",
							"type": "uint256"
						},
						{
							"internalType": "uint256",
							"name": "",
							"type": "uint256"
						}
					],
					"stateMutability": "pure",
					"type": "function"
				}
			],
			"devdoc": {
				"kind": "dev",
				"methods": {},
				"version": 1
			},
			"evm": {
				"assembly": "    /* \"wtfSolidity/101/101_13/inheritance1.sol\":201:914  contract Identifier is Base1 {... */\n  mstore(0x40, 0x80)\n  callvalue\n  dup1\n  iszero\n  tag_1\n  jumpi\n  0x00\n  dup1\n  revert\ntag_1:\n  pop\n  dataSize(sub_0)\n  dup1\n  dataOffset(sub_0)\n  0x00\n  codecopy\n  0x00\n  return\nstop\n\nsub_0: assembly {\n        /* \"wtfSolidity/101/101_13/inheritance1.sol\":201:914  contract Identifier is Base1 {... */\n      mstore(0x40, 0x80)\n      callvalue\n      dup1\n      iszero\n      tag_1\n      jumpi\n      0x00\n      dup1\n      revert\n    tag_1:\n      pop\n      jumpi(tag_2, lt(calldatasize, 0x04))\n      shr(0xe0, calldataload(0x00))\n      dup1\n      0x4534a438\n      eq\n      tag_3\n      jumpi\n    tag_2:\n      0x00\n      dup1\n      revert\n        /* \"wtfSolidity/101/101_13/inheritance1.sol\":458:643  function getExactDividedBy2And3(uint _dividend) public exactDividedBy2And3(_dividend) pure returns(uint, uint) {... */\n    tag_3:\n      tag_4\n      0x04\n      dup1\n      calldatasize\n      sub\n      dup2\n      add\n      swap1\n      tag_5\n      swap2\n      swap1\n      tag_6\n      jump\t// in\n    tag_5:\n      tag_7\n      jump\t// in\n    tag_4:\n      mload(0x40)\n      tag_8\n      swap3\n      swap2\n      swap1\n      tag_9\n      jump\t// in\n    tag_8:\n      mload(0x40)\n      dup1\n      swap2\n      sub\n      swap1\n      return\n    tag_7:\n        /* \"wtfSolidity/101/101_13/inheritance1.sol\":557:561  uint */\n      0x00\n        /* \"wtfSolidity/101/101_13/inheritance1.sol\":563:567  uint */\n      dup1\n        /* \"wtfSolidity/101/101_13/inheritance1.sol\":533:542  _dividend */\n      dup3\n        /* \"wtfSolidity/101/101_13/inheritance1.sol\":587:635  getExactDividedBy2And3WithoutModifier(_dividend) */\n      tag_12\n        /* \"wtfSolidity/101/101_13/inheritance1.sol\":625:634  _dividend */\n      dup5\n        /* \"wtfSolidity/101/101_13/inheritance1.sol\":587:624  getExactDividedBy2And3WithoutModifier */\n      tag_13\n        /* \"wtfSolidity/101/101_13/inheritance1.sol\":587:635  getExactDividedBy2And3WithoutModifier(_dividend) */\n      jump\t// in\n    tag_12:\n        /* \"wtfSolidity/101/101_13/inheritance1.sol\":580:635  return getExactDividedBy2And3WithoutModifier(_dividend) */\n      swap3\n      pop\n      swap3\n      pop\n        /* \"wtfSolidity/101/101_13/inheritance1.sol\":325:326  0 */\n      0x00\n        /* \"wtfSolidity/101/101_13/inheritance1.sol\":320:321  2 */\n      0x02\n        /* \"wtfSolidity/101/101_13/inheritance1.sol\":315:317  _a */\n      dup3\n        /* \"wtfSolidity/101/101_13/inheritance1.sol\":315:321  _a % 2 */\n      tag_14\n      swap2\n      swap1\n      tag_15\n      jump\t// in\n    tag_14:\n        /* \"wtfSolidity/101/101_13/inheritance1.sol\":315:326  _a % 2 == 0 */\n      eq\n        /* \"wtfSolidity/101/101_13/inheritance1.sol\":315:341  _a % 2 == 0 && _a % 5 == 0 */\n      dup1\n      iszero\n      tag_16\n      jumpi\n      pop\n        /* \"wtfSolidity/101/101_13/inheritance1.sol\":340:341  0 */\n      0x00\n        /* \"wtfSolidity/101/101_13/inheritance1.sol\":335:336  5 */\n      0x05\n        /* \"wtfSolidity/101/101_13/inheritance1.sol\":330:332  _a */\n      dup3\n        /* \"wtfSolidity/101/101_13/inheritance1.sol\":330:336  _a % 5 */\n      tag_17\n      swap2\n      swap1\n      tag_15\n      jump\t// in\n    tag_17:\n        /* \"wtfSolidity/101/101_13/inheritance1.sol\":330:341  _a % 5 == 0 */\n      eq\n        /* \"wtfSolidity/101/101_13/inheritance1.sol\":315:341  _a % 2 == 0 && _a % 5 == 0 */\n    tag_16:\n        /* \"wtfSolidity/101/101_13/inheritance1.sol\":307:342  require(_a % 2 == 0 && _a % 5 == 0) */\n      tag_18\n      jumpi\n      0x00\n      dup1\n      revert\n    tag_18:\n        /* \"wtfSolidity/101/101_13/inheritance1.sol\":458:643  function getExactDividedBy2And3(uint _dividend) public exactDividedBy2And3(_dividend) pure returns(uint, uint) {... */\n      pop\n      swap2\n      pop\n      swap2\n      jump\t// out\n        /* \"wtfSolidity/101/101_13/inheritance1.sol\":704:911  function getExactDividedBy2And3WithoutModifier(uint _dividend) internal pure returns(uint, uint) {... */\n    tag_13:\n        /* \"wtfSolidity/101/101_13/inheritance1.sol\":789:793  uint */\n      0x00\n        /* \"wtfSolidity/101/101_13/inheritance1.sol\":795:799  uint */\n      dup1\n        /* \"wtfSolidity/101/101_13/inheritance1.sol\":812:821  uint div2 */\n      0x00\n        /* \"wtfSolidity/101/101_13/inheritance1.sol\":836:837  2 */\n      0x02\n        /* \"wtfSolidity/101/101_13/inheritance1.sol\":824:833  _dividend */\n      dup5\n        /* \"wtfSolidity/101/101_13/inheritance1.sol\":824:837  _dividend / 2 */\n      tag_20\n      swap2\n      swap1\n      tag_21\n      jump\t// in\n    tag_20:\n        /* \"wtfSolidity/101/101_13/inheritance1.sol\":812:837  uint div2 = _dividend / 2 */\n      swap1\n      pop\n        /* \"wtfSolidity/101/101_13/inheritance1.sol\":848:857  uint div3 */\n      0x00\n        /* \"wtfSolidity/101/101_13/inheritance1.sol\":872:873  3 */\n      0x03\n        /* \"wtfSolidity/101/101_13/inheritance1.sol\":860:869  _dividend */\n      dup6\n        /* \"wtfSolidity/101/101_13/inheritance1.sol\":860:873  _dividend / 3 */\n      tag_22\n      swap2\n      swap1\n      tag_21\n      jump\t// in\n    tag_22:\n        /* \"wtfSolidity/101/101_13/inheritance1.sol\":848:873  uint div3 = _dividend / 3 */\n      swap1\n      pop\n        /* \"wtfSolidity/101/101_13/inheritance1.sol\":892:896  div2 */\n      dup2\n        /* \"wtfSolidity/101/101_13/inheritance1.sol\":898:902  div3 */\n      dup2\n        /* \"wtfSolidity/101/101_13/inheritance1.sol\":884:903  return (div2, div3) */\n      swap4\n      pop\n      swap4\n      pop\n      pop\n      pop\n        /* \"wtfSolidity/101/101_13/inheritance1.sol\":704:911  function getExactDividedBy2And3WithoutModifier(uint _dividend) internal pure returns(uint, uint) {... */\n      swap2\n      pop\n      swap2\n      jump\t// out\n        /* \"#utility.yul\":88:205   */\n    tag_24:\n        /* \"#utility.yul\":197:198   */\n      0x00\n        /* \"#utility.yul\":194:195   */\n      dup1\n        /* \"#utility.yul\":187:199   */\n      revert\n        /* \"#utility.yul\":334:411   */\n    tag_26:\n        /* \"#utility.yul\":371:378   */\n      0x00\n        /* \"#utility.yul\":400:405   */\n      dup2\n        /* \"#utility.yul\":389:405   */\n      swap1\n      pop\n        /* \"#utility.yul\":334:411   */\n      swap2\n      swap1\n      pop\n      jump\t// out\n        /* \"#utility.yul\":417:539   */\n    tag_27:\n        /* \"#utility.yul\":490:514   */\n      tag_38\n        /* \"#utility.yul\":508:513   */\n      dup2\n        /* \"#utility.yul\":490:514   */\n      tag_26\n      jump\t// in\n    tag_38:\n        /* \"#utility.yul\":483:488   */\n      dup2\n        /* \"#utility.yul\":480:515   */\n      eq\n        /* \"#utility.yul\":470:533   */\n      tag_39\n      jumpi\n        /* \"#utility.yul\":529:530   */\n      0x00\n        /* \"#utility.yul\":526:527   */\n      dup1\n        /* \"#utility.yul\":519:531   */\n      revert\n        /* \"#utility.yul\":470:533   */\n    tag_39:\n        /* \"#utility.yul\":417:539   */\n      pop\n      jump\t// out\n        /* \"#utility.yul\":545:684   */\n    tag_28:\n        /* \"#utility.yul\":591:596   */\n      0x00\n        /* \"#utility.yul\":629:635   */\n      dup2\n        /* \"#utility.yul\":616:636   */\n      calldataload\n        /* \"#utility.yul\":607:636   */\n      swap1\n      pop\n        /* \"#utility.yul\":645:678   */\n      tag_41\n        /* \"#utility.yul\":672:677   */\n      dup2\n        /* \"#utility.yul\":645:678   */\n      tag_27\n      jump\t// in\n    tag_41:\n        /* \"#utility.yul\":545:684   */\n      swap3\n      swap2\n      pop\n      pop\n      jump\t// out\n        /* \"#utility.yul\":690:1019   */\n    tag_6:\n        /* \"#utility.yul\":749:755   */\n      0x00\n        /* \"#utility.yul\":798:800   */\n      0x20\n        /* \"#utility.yul\":786:795   */\n      dup3\n        /* \"#utility.yul\":777:784   */\n      dup5\n        /* \"#utility.yul\":773:796   */\n      sub\n        /* \"#utility.yul\":769:801   */\n      slt\n        /* \"#utility.yul\":766:885   */\n      iszero\n      tag_43\n      jumpi\n        /* \"#utility.yul\":804:883   */\n      tag_44\n      tag_24\n      jump\t// in\n    tag_44:\n        /* \"#utility.yul\":766:885   */\n    tag_43:\n        /* \"#utility.yul\":924:925   */\n      0x00\n        /* \"#utility.yul\":949:1002   */\n      tag_45\n        /* \"#utility.yul\":994:1001   */\n      dup5\n        /* \"#utility.yul\":985:991   */\n      dup3\n        /* \"#utility.yul\":974:983   */\n      dup6\n        /* \"#utility.yul\":970:992   */\n      add\n        /* \"#utility.yul\":949:1002   */\n      tag_28\n      jump\t// in\n    tag_45:\n        /* \"#utility.yul\":939:1002   */\n      swap2\n      pop\n        /* \"#utility.yul\":895:1012   */\n      pop\n        /* \"#utility.yul\":690:1019   */\n      swap3\n      swap2\n      pop\n      pop\n      jump\t// out\n        /* \"#utility.yul\":1025:1143   */\n    tag_29:\n        /* \"#utility.yul\":1112:1136   */\n      tag_47\n        /* \"#utility.yul\":1130:1135   */\n      dup2\n        /* \"#utility.yul\":1112:1136   */\n      tag_26\n      jump\t// in\n    tag_47:\n        /* \"#utility.yul\":1107:1110   */\n      dup3\n        /* \"#utility.yul\":1100:1137   */\n      mstore\n        /* \"#utility.yul\":1025:1143   */\n      pop\n      pop\n      jump\t// out\n        /* \"#utility.yul\":1149:1481   */\n    tag_9:\n        /* \"#utility.yul\":1270:1274   */\n      0x00\n        /* \"#utility.yul\":1308:1310   */\n      0x40\n        /* \"#utility.yul\":1297:1306   */\n      dup3\n        /* \"#utility.yul\":1293:1311   */\n      add\n        /* \"#utility.yul\":1285:1311   */\n      swap1\n      pop\n        /* \"#utility.yul\":1321:1392   */\n      tag_49\n        /* \"#utility.yul\":1389:1390   */\n      0x00\n        /* \"#utility.yul\":1378:1387   */\n      dup4\n        /* \"#utility.yul\":1374:1391   */\n      add\n        /* \"#utility.yul\":1365:1371   */\n      dup6\n        /* \"#utility.yul\":1321:1392   */\n      tag_29\n      jump\t// in\n    tag_49:\n        /* \"#utility.yul\":1402:1474   */\n      tag_50\n        /* \"#utility.yul\":1470:1472   */\n      0x20\n        /* \"#utility.yul\":1459:1468   */\n      dup4\n        /* \"#utility.yul\":1455:1473   */\n      add\n        /* \"#utility.yul\":1446:1452   */\n      dup5\n        /* \"#utility.yul\":1402:1474   */\n      tag_29\n      jump\t// in\n    tag_50:\n        /* \"#utility.yul\":1149:1481   */\n      swap4\n      swap3\n      pop\n      pop\n      pop\n      jump\t// out\n        /* \"#utility.yul\":1487:1667   */\n    tag_30:\n        /* \"#utility.yul\":1535:1612   */\n      0x4e487b7100000000000000000000000000000000000000000000000000000000\n        /* \"#utility.yul\":1532:1533   */\n      0x00\n        /* \"#utility.yul\":1525:1613   */\n      mstore\n        /* \"#utility.yul\":1632:1636   */\n      0x12\n        /* \"#utility.yul\":1629:1630   */\n      0x04\n        /* \"#utility.yul\":1622:1637   */\n      mstore\n        /* \"#utility.yul\":1656:1660   */\n      0x24\n        /* \"#utility.yul\":1653:1654   */\n      0x00\n        /* \"#utility.yul\":1646:1661   */\n      revert\n        /* \"#utility.yul\":1673:1849   */\n    tag_15:\n        /* \"#utility.yul\":1705:1706   */\n      0x00\n        /* \"#utility.yul\":1722:1742   */\n      tag_53\n        /* \"#utility.yul\":1740:1741   */\n      dup3\n        /* \"#utility.yul\":1722:1742   */\n      tag_26\n      jump\t// in\n    tag_53:\n        /* \"#utility.yul\":1717:1742   */\n      swap2\n      pop\n        /* \"#utility.yul\":1756:1776   */\n      tag_54\n        /* \"#utility.yul\":1774:1775   */\n      dup4\n        /* \"#utility.yul\":1756:1776   */\n      tag_26\n      jump\t// in\n    tag_54:\n        /* \"#utility.yul\":1751:1776   */\n      swap3\n      pop\n        /* \"#utility.yul\":1795:1796   */\n      dup3\n        /* \"#utility.yul\":1785:1820   */\n      tag_55\n      jumpi\n        /* \"#utility.yul\":1800:1818   */\n      tag_56\n      tag_30\n      jump\t// in\n    tag_56:\n        /* \"#utility.yul\":1785:1820   */\n    tag_55:\n        /* \"#utility.yul\":1841:1842   */\n      dup3\n        /* \"#utility.yul\":1838:1839   */\n      dup3\n        /* \"#utility.yul\":1834:1843   */\n      mod\n        /* \"#utility.yul\":1829:1843   */\n      swap1\n      pop\n        /* \"#utility.yul\":1673:1849   */\n      swap3\n      swap2\n      pop\n      pop\n      jump\t// out\n        /* \"#utility.yul\":2041:2226   */\n    tag_21:\n        /* \"#utility.yul\":2081:2082   */\n      0x00\n        /* \"#utility.yul\":2098:2118   */\n      tag_59\n        /* \"#utility.yul\":2116:2117   */\n      dup3\n        /* \"#utility.yul\":2098:2118   */\n      tag_26\n      jump\t// in\n    tag_59:\n        /* \"#utility.yul\":2093:2118   */\n      swap2\n      pop\n        /* \"#utility.yul\":2132:2152   */\n      tag_60\n        /* \"#utility.yul\":2150:2151   */\n      dup4\n        /* \"#utility.yul\":2132:2152   */\n      tag_26\n      jump\t// in\n    tag_60:\n        /* \"#utility.yul\":2127:2152   */\n      swap3\n      pop\n        /* \"#utility.yul\":2171:2172   */\n      dup3\n        /* \"#utility.yul\":2161:2196   */\n      tag_61\n      jumpi\n        /* \"#utility.yul\":2176:2194   */\n      tag_62\n      tag_30\n      jump\t// in\n    tag_62:\n        /* \"#utility.yul\":2161:2196   */\n    tag_61:\n        /* \"#utility.yul\":2218:2219   */\n      dup3\n        /* \"#utility.yul\":2215:2216   */\n      dup3\n        /* \"#utility.yul\":2211:2220   */\n      div\n        /* \"#utility.yul\":2206:2220   */\n      swap1\n      pop\n        /* \"#utility.yul\":2041:2226   */\n      swap3\n      swap2\n      pop\n      pop\n      jump\t// out\n\n    auxdata: 0xa26469706673582212209ad0b03a821ae37b0d87b91eb1c505aff2184772754d587c59ca99b0e3aa732264736f6c63430008190033\n}\n",
				"bytecode": {
					"linkReferences": {},
					"object": "6080604052348015600e575f80fd5b5061022c8061001c5f395ff3fe608060405234801561000f575f80fd5b5060043610610029575f3560e01c80634534a4381461002d575b5f80fd5b61004760048036038101906100429190610108565b61005e565b604051610055929190610142565b60405180910390f35b5f808261006a846100a2565b925092505f60028261007c9190610196565b14801561009457505f6005826100929190610196565b145b61009c575f80fd5b50915091565b5f805f6002846100b291906101c6565b90505f6003856100c291906101c6565b90508181935093505050915091565b5f80fd5b5f819050919050565b6100e7816100d5565b81146100f1575f80fd5b50565b5f81359050610102816100de565b92915050565b5f6020828403121561011d5761011c6100d1565b5b5f61012a848285016100f4565b91505092915050565b61013c816100d5565b82525050565b5f6040820190506101555f830185610133565b6101626020830184610133565b9392505050565b7f4e487b71000000000000000000000000000000000000000000000000000000005f52601260045260245ffd5b5f6101a0826100d5565b91506101ab836100d5565b9250826101bb576101ba610169565b5b828206905092915050565b5f6101d0826100d5565b91506101db836100d5565b9250826101eb576101ea610169565b5b82820490509291505056fea26469706673582212209ad0b03a821ae37b0d87b91eb1c505aff2184772754d587c59ca99b0e3aa732264736f6c63430008190033",
					"opcodes": "PUSH1 0x80 PUSH1 0x40 MSTORE CALLVALUE DUP1 ISZERO PUSH1 0xE JUMPI PUSH0 DUP1 REVERT JUMPDEST POP PUSH2 0x22C DUP1 PUSH2 0x1C PUSH0 CODECOPY PUSH0 RETURN INVALID PUSH1 0x80 PUSH1 0x40 MSTORE CALLVALUE DUP1 ISZERO PUSH2 0xF JUMPI PUSH0 DUP1 REVERT JUMPDEST POP PUSH1 0x4 CALLDATASIZE LT PUSH2 0x29 JUMPI PUSH0 CALLDATALOAD PUSH1 0xE0 SHR DUP1 PUSH4 0x4534A438 EQ PUSH2 0x2D JUMPI JUMPDEST PUSH0 DUP1 REVERT JUMPDEST PUSH2 0x47 PUSH1 0x4 DUP1 CALLDATASIZE SUB DUP2 ADD SWAP1 PUSH2 0x42 SWAP2 SWAP1 PUSH2 0x108 JUMP JUMPDEST PUSH2 0x5E JUMP JUMPDEST PUSH1 0x40 MLOAD PUSH2 0x55 SWAP3 SWAP2 SWAP1 PUSH2 0x142 JUMP JUMPDEST PUSH1 0x40 MLOAD DUP1 SWAP2 SUB SWAP1 RETURN JUMPDEST PUSH0 DUP1 DUP3 PUSH2 0x6A DUP5 PUSH2 0xA2 JUMP JUMPDEST SWAP3 POP SWAP3 POP PUSH0 PUSH1 0x2 DUP3 PUSH2 0x7C SWAP2 SWAP1 PUSH2 0x196 JUMP JUMPDEST EQ DUP1 ISZERO PUSH2 0x94 JUMPI POP PUSH0 PUSH1 0x5 DUP3 PUSH2 0x92 SWAP2 SWAP1 PUSH2 0x196 JUMP JUMPDEST EQ JUMPDEST PUSH2 0x9C JUMPI PUSH0 DUP1 REVERT JUMPDEST POP SWAP2 POP SWAP2 JUMP JUMPDEST PUSH0 DUP1 PUSH0 PUSH1 0x2 DUP5 PUSH2 0xB2 SWAP2 SWAP1 PUSH2 0x1C6 JUMP JUMPDEST SWAP1 POP PUSH0 PUSH1 0x3 DUP6 PUSH2 0xC2 SWAP2 SWAP1 PUSH2 0x1C6 JUMP JUMPDEST SWAP1 POP DUP2 DUP2 SWAP4 POP SWAP4 POP POP POP SWAP2 POP SWAP2 JUMP JUMPDEST PUSH0 DUP1 REVERT JUMPDEST PUSH0 DUP2 SWAP1 POP SWAP2 SWAP1 POP JUMP JUMPDEST PUSH2 0xE7 DUP2 PUSH2 0xD5 JUMP JUMPDEST DUP2 EQ PUSH2 0xF1 JUMPI PUSH0 DUP1 REVERT JUMPDEST POP JUMP JUMPDEST PUSH0 DUP2 CALLDATALOAD SWAP1 POP PUSH2 0x102 DUP2 PUSH2 0xDE JUMP JUMPDEST SWAP3 SWAP2 POP POP JUMP JUMPDEST PUSH0 PUSH1 0x20 DUP3 DUP5 SUB SLT ISZERO PUSH2 0x11D JUMPI PUSH2 0x11C PUSH2 0xD1 JUMP JUMPDEST JUMPDEST PUSH0 PUSH2 0x12A DUP5 DUP3 DUP6 ADD PUSH2 0xF4 JUMP JUMPDEST SWAP2 POP POP SWAP3 SWAP2 POP POP JUMP JUMPDEST PUSH2 0x13C DUP2 PUSH2 0xD5 JUMP JUMPDEST DUP3 MSTORE POP POP JUMP JUMPDEST PUSH0 PUSH1 0x40 DUP3 ADD SWAP1 POP PUSH2 0x155 PUSH0 DUP4 ADD DUP6 PUSH2 0x133 JUMP JUMPDEST PUSH2 0x162 PUSH1 0x20 DUP4 ADD DUP5 PUSH2 0x133 JUMP JUMPDEST SWAP4 SWAP3 POP POP POP JUMP JUMPDEST PUSH32 0x4E487B7100000000000000000000000000000000000000000000000000000000 PUSH0 MSTORE PUSH1 0x12 PUSH1 0x4 MSTORE PUSH1 0x24 PUSH0 REVERT JUMPDEST PUSH0 PUSH2 0x1A0 DUP3 PUSH2 0xD5 JUMP JUMPDEST SWAP2 POP PUSH2 0x1AB DUP4 PUSH2 0xD5 JUMP JUMPDEST SWAP3 POP DUP3 PUSH2 0x1BB JUMPI PUSH2 0x1BA PUSH2 0x169 JUMP JUMPDEST JUMPDEST DUP3 DUP3 MOD SWAP1 POP SWAP3 SWAP2 POP POP JUMP JUMPDEST PUSH0 PUSH2 0x1D0 DUP3 PUSH2 0xD5 JUMP JUMPDEST SWAP2 POP PUSH2 0x1DB DUP4 PUSH2 0xD5 JUMP JUMPDEST SWAP3 POP DUP3 PUSH2 0x1EB JUMPI PUSH2 0x1EA PUSH2 0x169 JUMP JUMPDEST JUMPDEST DUP3 DUP3 DIV SWAP1 POP SWAP3 SWAP2 POP POP JUMP INVALID LOG2 PUSH5 0x6970667358 0x22 SLT KECCAK256 SWAP11 0xD0 0xB0 GASPRICE DUP3 BYTE 0xE3 PUSH28 0xD87B91EB1C505AFF2184772754D587C59CA99B0E3AA732264736F6C PUSH4 0x43000819 STOP CALLER "
				},
				"gasEstimates": {
					"creation": {
						"codeDepositCost": "111200",
						"executionCost": "157",
						"totalCost": "111357"
					},
					"external": {
						"getExactDividedBy2And3(uint256)": "infinite"
					},
					"internal": {
						"getExactDividedBy2And3WithoutModifier(uint256)": "infinite"
					}
				},
				"methodIdentifiers": {
					"getExactDividedBy2And3(uint256)": "4534a438"
				}
			},
			"storageLayout": {
				"storage": [],
				"types": null
			},
			"userdoc": {
				"kind": "user",
				"methods": {},
				"version": 1
			}
		}
	}
}