{
	"data": {
		"bytecode": {
			"linkReferences": {},
			"object": "6080604052348015600e575f80fd5b5061040e8061001c5f395ff3fe608060405234801561000f575f80fd5b5060043610610055575f3560e01c806328fbf34314610059578063b9d9eb0f14610078578063c298557814610082578063c7d55d6a1461008c578063d14d385d14610096575b5f80fd5b6100616100b2565b60405161006f9291906101e4565b60405180910390f35b6100806100c2565b005b61008a6100d7565b005b6100946100ff565b005b6100b060048036038101906100ab9190610380565b610116565b005b5f805f0154908060010154905082565b60075f80018190555060645f60010181905550565b6100fd604051806060016040528060018152602001600281526020016003815250610116565b565b5f6011815f01819055506064816001018190555050565b5f600367ffffffffffffffff8111156101325761013161022c565b5b6040519080825280602002602001820160405280156101605781602001602082028036833780820191505090505b5090506001815f81518110610178576101776103ab565b5b60200260200101818152505060028160018151811061019a576101996103ab565b5b6020026020010181815250506003816002815181106101bc576101bb6103ab565b5b6020026020010181815250505050565b5f819050919050565b6101de816101cc565b82525050565b5f6040820190506101f75f8301856101d5565b61020460208301846101d5565b9392505050565b5f604051905090565b5f80fd5b5f80fd5b5f601f19601f8301169050919050565b7f4e487b71000000000000000000000000000000000000000000000000000000005f52604160045260245ffd5b6102628261021c565b810181811067ffffffffffffffff821117156102815761028061022c565b5b80604052505050565b5f61029361020b565b905061029f8282610259565b919050565b5f67ffffffffffffffff8211156102be576102bd61022c565b5b602082029050919050565b5f80fd5b6102d6816101cc565b81146102e0575f80fd5b50565b5f813590506102f1816102cd565b92915050565b5f610309610304846102a4565b61028a565b90508060208402830185811115610323576103226102c9565b5b835b8181101561034c578061033888826102e3565b845260208401935050602081019050610325565b5050509392505050565b5f82601f83011261036a57610369610218565b5b60036103778482856102f7565b91505092915050565b5f6060828403121561039557610394610214565b5b5f6103a284828501610356565b91505092915050565b7f4e487b71000000000000000000000000000000000000000000000000000000005f52603260045260245ffdfea264697066735822122043e92ac4e1f37b1fe56827bfa086c6e685a08b0d1d42c3b4af08df618c7d1edf64736f6c63430008190033",
			"opcodes": "PUSH1 0x80 PUSH1 0x40 MSTORE CALLVALUE DUP1 ISZERO PUSH1 0xE JUMPI PUSH0 DUP1 REVERT JUMPDEST POP PUSH2 0x40E DUP1 PUSH2 0x1C PUSH0 CODECOPY PUSH0 RETURN INVALID PUSH1 0x80 PUSH1 0x40 MSTORE CALLVALUE DUP1 ISZERO PUSH2 0xF JUMPI PUSH0 DUP1 REVERT JUMPDEST POP PUSH1 0x4 CALLDATASIZE LT PUSH2 0x55 JUMPI PUSH0 CALLDATALOAD PUSH1 0xE0 SHR DUP1 PUSH4 0x28FBF343 EQ PUSH2 0x59 JUMPI DUP1 PUSH4 0xB9D9EB0F EQ PUSH2 0x78 JUMPI DUP1 PUSH4 0xC2985578 EQ PUSH2 0x82 JUMPI DUP1 PUSH4 0xC7D55D6A EQ PUSH2 0x8C JUMPI DUP1 PUSH4 0xD14D385D EQ PUSH2 0x96 JUMPI JUMPDEST PUSH0 DUP1 REVERT JUMPDEST PUSH2 0x61 PUSH2 0xB2 JUMP JUMPDEST PUSH1 0x40 MLOAD PUSH2 0x6F SWAP3 SWAP2 SWAP1 PUSH2 0x1E4 JUMP JUMPDEST PUSH1 0x40 MLOAD DUP1 SWAP2 SUB SWAP1 RETURN JUMPDEST PUSH2 0x80 PUSH2 0xC2 JUMP JUMPDEST STOP JUMPDEST PUSH2 0x8A PUSH2 0xD7 JUMP JUMPDEST STOP JUMPDEST PUSH2 0x94 PUSH2 0xFF JUMP JUMPDEST STOP JUMPDEST PUSH2 0xB0 PUSH1 0x4 DUP1 CALLDATASIZE SUB DUP2 ADD SWAP1 PUSH2 0xAB SWAP2 SWAP1 PUSH2 0x380 JUMP JUMPDEST PUSH2 0x116 JUMP JUMPDEST STOP JUMPDEST PUSH0 DUP1 PUSH0 ADD SLOAD SWAP1 DUP1 PUSH1 0x1 ADD SLOAD SWAP1 POP DUP3 JUMP JUMPDEST PUSH1 0x7 PUSH0 DUP1 ADD DUP2 SWAP1 SSTORE POP PUSH1 0x64 PUSH0 PUSH1 0x1 ADD DUP2 SWAP1 SSTORE POP JUMP JUMPDEST PUSH2 0xFD PUSH1 0x40 MLOAD DUP1 PUSH1 0x60 ADD PUSH1 0x40 MSTORE DUP1 PUSH1 0x1 DUP2 MSTORE PUSH1 0x20 ADD PUSH1 0x2 DUP2 MSTORE PUSH1 0x20 ADD PUSH1 0x3 DUP2 MSTORE POP PUSH2 0x116 JUMP JUMPDEST JUMP JUMPDEST PUSH0 PUSH1 0x11 DUP2 PUSH0 ADD DUP2 SWAP1 SSTORE POP PUSH1 0x64 DUP2 PUSH1 0x1 ADD DUP2 SWAP1 SSTORE POP POP JUMP JUMPDEST PUSH0 PUSH1 0x3 PUSH8 0xFFFFFFFFFFFFFFFF DUP2 GT ISZERO PUSH2 0x132 JUMPI PUSH2 0x131 PUSH2 0x22C JUMP JUMPDEST JUMPDEST PUSH1 0x40 MLOAD SWAP1 DUP1 DUP3 MSTORE DUP1 PUSH1 0x20 MUL PUSH1 0x20 ADD DUP3 ADD PUSH1 0x40 MSTORE DUP1 ISZERO PUSH2 0x160 JUMPI DUP2 PUSH1 0x20 ADD PUSH1 0x20 DUP3 MUL DUP1 CALLDATASIZE DUP4 CALLDATACOPY DUP1 DUP3 ADD SWAP2 POP POP SWAP1 POP JUMPDEST POP SWAP1 POP PUSH1 0x1 DUP2 PUSH0 DUP2 MLOAD DUP2 LT PUSH2 0x178 JUMPI PUSH2 0x177 PUSH2 0x3AB JUMP JUMPDEST JUMPDEST PUSH1 0x20 MUL PUSH1 0x20 ADD ADD DUP2 DUP2 MSTORE POP POP PUSH1 0x2 DUP2 PUSH1 0x1 DUP2 MLOAD DUP2 LT PUSH2 0x19A JUMPI PUSH2 0x199 PUSH2 0x3AB JUMP JUMPDEST JUMPDEST PUSH1 0x20 MUL PUSH1 0x20 ADD ADD DUP2 DUP2 MSTORE POP POP PUSH1 0x3 DUP2 PUSH1 0x2 DUP2 MLOAD DUP2 LT PUSH2 0x1BC JUMPI PUSH2 0x1BB PUSH2 0x3AB JUMP JUMPDEST JUMPDEST PUSH1 0x20 MUL PUSH1 0x20 ADD ADD DUP2 DUP2 MSTORE POP POP POP POP JUMP JUMPDEST PUSH0 DUP2 SWAP1 POP SWAP2 SWAP1 POP JUMP JUMPDEST PUSH2 0x1DE DUP2 PUSH2 0x1CC JUMP JUMPDEST DUP3 MSTORE POP POP JUMP JUMPDEST PUSH0 PUSH1 0x40 DUP3 ADD SWAP1 POP PUSH2 0x1F7 PUSH0 DUP4 ADD DUP6 PUSH2 0x1D5 JUMP JUMPDEST PUSH2 0x204 PUSH1 0x20 DUP4 ADD DUP5 PUSH2 0x1D5 JUMP JUMPDEST SWAP4 SWAP3 POP POP POP JUMP JUMPDEST PUSH0 PUSH1 0x40 MLOAD SWAP1 POP SWAP1 JUMP JUMPDEST PUSH0 DUP1 REVERT JUMPDEST PUSH0 DUP1 REVERT JUMPDEST PUSH0 PUSH1 0x1F NOT PUSH1 0x1F DUP4 ADD AND SWAP1 POP SWAP2 SWAP1 POP JUMP JUMPDEST PUSH32 0x4E487B7100000000000000000000000000000000000000000000000000000000 PUSH0 MSTORE PUSH1 0x41 PUSH1 0x4 MSTORE PUSH1 0x24 PUSH0 REVERT JUMPDEST PUSH2 0x262 DUP3 PUSH2 0x21C JUMP JUMPDEST DUP2 ADD DUP2 DUP2 LT PUSH8 0xFFFFFFFFFFFFFFFF DUP3 GT OR ISZERO PUSH2 0x281 JUMPI PUSH2 0x280 PUSH2 0x22C JUMP JUMPDEST JUMPDEST DUP1 PUSH1 0x40 MSTORE POP POP POP JUMP JUMPDEST PUSH0 PUSH2 0x293 PUSH2 0x20B JUMP JUMPDEST SWAP1 POP PUSH2 0x29F DUP3 DUP3 PUSH2 0x259 JUMP JUMPDEST SWAP2 SWAP1 POP JUMP JUMPDEST PUSH0 PUSH8 0xFFFFFFFFFFFFFFFF DUP3 GT ISZERO PUSH2 0x2BE JUMPI PUSH2 0x2BD PUSH2 0x22C JUMP JUMPDEST JUMPDEST PUSH1 0x20 DUP3 MUL SWAP1 POP SWAP2 SWAP1 POP JUMP JUMPDEST PUSH0 DUP1 REVERT JUMPDEST PUSH2 0x2D6 DUP2 PUSH2 0x1CC JUMP JUMPDEST DUP2 EQ PUSH2 0x2E0 JUMPI PUSH0 DUP1 REVERT JUMPDEST POP JUMP JUMPDEST PUSH0 DUP2 CALLDATALOAD SWAP1 POP PUSH2 0x2F1 DUP2 PUSH2 0x2CD JUMP JUMPDEST SWAP3 SWAP2 POP POP JUMP JUMPDEST PUSH0 PUSH2 0x309 PUSH2 0x304 DUP5 PUSH2 0x2A4 JUMP JUMPDEST PUSH2 0x28A JUMP JUMPDEST SWAP1 POP DUP1 PUSH1 0x20 DUP5 MUL DUP4 ADD DUP6 DUP2 GT ISZERO PUSH2 0x323 JUMPI PUSH2 0x322 PUSH2 0x2C9 JUMP JUMPDEST JUMPDEST DUP4 JUMPDEST DUP2 DUP2 LT ISZERO PUSH2 0x34C JUMPI DUP1 PUSH2 0x338 DUP9 DUP3 PUSH2 0x2E3 JUMP JUMPDEST DUP5 MSTORE PUSH1 0x20 DUP5 ADD SWAP4 POP POP PUSH1 0x20 DUP2 ADD SWAP1 POP PUSH2 0x325 JUMP JUMPDEST POP POP POP SWAP4 SWAP3 POP POP POP JUMP JUMPDEST PUSH0 DUP3 PUSH1 0x1F DUP4 ADD SLT PUSH2 0x36A JUMPI PUSH2 0x369 PUSH2 0x218 JUMP JUMPDEST JUMPDEST PUSH1 0x3 PUSH2 0x377 DUP5 DUP3 DUP6 PUSH2 0x2F7 JUMP JUMPDEST SWAP2 POP POP SWAP3 SWAP2 POP POP JUMP JUMPDEST PUSH0 PUSH1 0x60 DUP3 DUP5 SUB SLT ISZERO PUSH2 0x395 JUMPI PUSH2 0x394 PUSH2 0x214 JUMP JUMPDEST JUMPDEST PUSH0 PUSH2 0x3A2 DUP5 DUP3 DUP6 ADD PUSH2 0x356 JUMP JUMPDEST SWAP2 POP POP SWAP3 SWAP2 POP POP JUMP JUMPDEST PUSH32 0x4E487B7100000000000000000000000000000000000000000000000000000000 PUSH0 MSTORE PUSH1 0x32 PUSH1 0x4 MSTORE PUSH1 0x24 PUSH0 REVERT INVALID LOG2 PUSH5 0x6970667358 0x22 SLT KECCAK256 NUMBER 0xE9 0x2A 0xC4 0xE1 RETURN PUSH28 0x1FE56827BFA086C6E685A08B0D1D42C3B4AF08DF618C7D1EDF64736F PUSH13 0x63430008190033000000000000 "
		},
		"gasEstimates": {
			"creation": {
				"codeDepositCost": "207600",
				"executionCost": "249",
				"totalCost": "207849"
			},
			"external": {
				"foo()": "642",
				"g(uint256[3])": "infinite",
				"initStu()": "44381",
				"initStudnet()": "44430",
				"stu()": "infinite"
			}
		},
		"methodIdentifiers": {
			"foo()": "c2985578",
			"g(uint256[3])": "d14d385d",
			"initStu()": "b9d9eb0f",
			"initStudnet()": "c7d55d6a",
			"stu()": "28fbf343"
		}
	},
	"abi": [
		{
			"inputs": [],
			"name": "foo",
			"outputs": [],
			"stateMutability": "pure",
			"type": "function"
		},
		{
			"inputs": [
				{
					"internalType": "uint256[3]",
					"name": "",
					"type": "uint256[3]"
				}
			],
			"name": "g",
			"outputs": [],
			"stateMutability": "pure",
			"type": "function"
		},
		{
			"inputs": [],
			"name": "initStu",
			"outputs": [],
			"stateMutability": "nonpayable",
			"type": "function"
		},
		{
			"inputs": [],
			"name": "initStudnet",
			"outputs": [],
			"stateMutability": "nonpayable",
			"type": "function"
		},
		{
			"inputs": [],
			"name": "stu",
			"outputs": [
				{
					"internalType": "uint256",
					"name": "id",
					"type": "uint256"
				},
				{
					"internalType": "uint256",
					"name": "score",
					"type": "uint256"
				}
			],
			"stateMutability": "view",
			"type": "function"
		}
	]
}